{"contracts/PolPick.sol":{"PolPick":{"abi":[{"inputs":[{"internalType":"address","name":"_newGameController15","type":"address"},{"internalType":"address","name":"_newGameController30","type":"address"}],"stateMutability":"nonpayable","type":"constructor"},{"inputs":[{"internalType":"address","name":"owner","type":"address"}],"name":"OwnableInvalidOwner","type":"error"},{"inputs":[{"internalType":"address","name":"account","type":"address"}],"name":"OwnableUnauthorizedAccount","type":"error"},{"inputs":[],"name":"PendingDistributions","type":"error"},{"anonymous":false,"inputs":[],"name":"GameStarted","type":"event"},{"anonymous":false,"inputs":[{"indexed":false,"internalType":"bytes","name":"reason","type":"bytes"}],"name":"GameStopped","type":"event"},{"anonymous":false,"inputs":[{"indexed":true,"internalType":"address","name":"previousOwner","type":"address"},{"indexed":true,"internalType":"address","name":"newOwner","type":"address"}],"name":"OwnershipTransferred","type":"event"},{"anonymous":false,"inputs":[{"indexed":false,"internalType":"bytes","name":"poolId","type":"bytes"},{"indexed":false,"internalType":"uint256","name":"totalWinners","type":"uint256"},{"indexed":false,"internalType":"uint256","name":"from","type":"uint256"},{"indexed":false,"internalType":"uint256","name":"to","type":"uint256"},{"indexed":false,"internalType":"int64","name":"timestamp","type":"int64"}],"name":"RoundDistributed","type":"event"},{"anonymous":false,"inputs":[{"indexed":false,"internalType":"bytes","name":"poolId","type":"bytes"},{"indexed":false,"internalType":"int64","name":"timestamp","type":"int64"},{"indexed":false,"internalType":"int32","name":"startPrice","type":"int32"},{"indexed":false,"internalType":"int32","name":"endPrice","type":"int32"},{"indexed":true,"internalType":"bytes","name":"indexedPoolId","type":"bytes"}],"name":"RoundEnded","type":"event"},{"anonymous":false,"inputs":[{"indexed":false,"internalType":"bytes","name":"poolId","type":"bytes"},{"indexed":false,"internalType":"int64","name":"timestamp","type":"int64"},{"indexed":false,"internalType":"int32","name":"price","type":"int32"},{"indexed":false,"internalType":"uint256","name":"minTradeAmount","type":"uint256"},{"indexed":false,"internalType":"uint256","name":"maxTradeAmount","type":"uint256"},{"indexed":false,"internalType":"uint256","name":"poolTradesLimit","type":"uint256"},{"indexed":true,"internalType":"bytes","name":"indexedPoolId","type":"bytes"}],"name":"RoundStarted","type":"event"},{"anonymous":false,"inputs":[{"indexed":false,"internalType":"bytes","name":"poolId","type":"bytes"},{"indexed":false,"internalType":"address","name":"sender","type":"address"},{"indexed":false,"internalType":"uint256","name":"amount","type":"uint256"},{"indexed":false,"internalType":"string","name":"prediction","type":"string"},{"indexed":false,"internalType":"uint256","name":"newTotal","type":"uint256"},{"indexed":true,"internalType":"bytes","name":"indexedPoolId","type":"bytes"},{"indexed":true,"internalType":"address","name":"indexedSender","type":"address"},{"indexed":false,"internalType":"string","name":"avatarUrl","type":"string"},{"indexed":false,"internalType":"string","name":"countryCode","type":"string"},{"indexed":false,"internalType":"int64","name":"roundStartTime","type":"int64"},{"indexed":false,"internalType":"string","name":"whiteLabelId","type":"string"},{"indexed":false,"internalType":"string","name":"gameId","type":"string"}],"name":"TradePlaced","type":"event"},{"anonymous":false,"inputs":[{"indexed":false,"internalType":"bytes","name":"poolId","type":"bytes"},{"indexed":false,"internalType":"address","name":"sender","type":"address"},{"indexed":false,"internalType":"uint256","name":"amount","type":"uint256"},{"indexed":false,"internalType":"string","name":"whiteLabelId","type":"string"}],"name":"TradeReturned","type":"event"},{"anonymous":false,"inputs":[{"indexed":false,"internalType":"bytes","name":"poolId","type":"bytes"},{"indexed":false,"internalType":"address","name":"sender","type":"address"},{"indexed":false,"internalType":"uint256","name":"tradeAmount","type":"uint256"},{"indexed":false,"internalType":"uint256","name":"winningsAmount","type":"uint256"},{"indexed":true,"internalType":"address","name":"indexedSender","type":"address"},{"indexed":false,"internalType":"string","name":"whiteLabelId","type":"string"},{"indexed":false,"internalType":"uint8","name":"feePercentage","type":"uint8"},{"indexed":false,"internalType":"uint8","name":"feeJackpotPercentage","type":"uint8"}],"name":"TradeWinningsSent","type":"event"},{"inputs":[{"internalType":"address","name":"newGameControllerAddress","type":"address"}],"name":"changeGameControllerAddress15","outputs":[],"stateMutability":"nonpayable","type":"function"},{"inputs":[{"internalType":"address","name":"newGameControllerAddress","type":"address"}],"name":"changeGameControllerAddress30","outputs":[],"stateMutability":"nonpayable","type":"function"},{"inputs":[{"internalType":"address","name":"newFeeAddress","type":"address"}],"name":"changeGameFeeAddress","outputs":[],"stateMutability":"nonpayable","type":"function"},{"inputs":[{"internalType":"address","name":"newFeeJackpotAddress","type":"address"}],"name":"changeGameFeeJackpotAddress","outputs":[],"stateMutability":"nonpayable","type":"function"},{"inputs":[{"internalType":"uint8","name":"newFeeJackpotPercentage","type":"uint8"}],"name":"changeGameFeeJackpotPercentage","outputs":[],"stateMutability":"nonpayable","type":"function"},{"inputs":[{"internalType":"uint8","name":"newFeePercentage","type":"uint8"}],"name":"changeGameFeePercentage","outputs":[],"stateMutability":"nonpayable","type":"function"},{"inputs":[{"internalType":"address","name":"newServiceFeeAddress","type":"address"}],"name":"changeGameServiceFeeAddress","outputs":[],"stateMutability":"nonpayable","type":"function"},{"inputs":[{"internalType":"uint8","name":"newFeeServicePercentage","type":"uint8"}],"name":"changeGameServicePercentage","outputs":[],"stateMutability":"nonpayable","type":"function"},{"inputs":[{"internalType":"bytes","name":"poolId","type":"bytes"},{"internalType":"uint256","name":"minBetAmount","type":"uint256"},{"internalType":"uint256","name":"maxBetAmount","type":"uint256"},{"internalType":"uint256","name":"poolBetsLimit","type":"uint256"}],"name":"createPool","outputs":[],"stateMutability":"nonpayable","type":"function"},{"inputs":[{"internalType":"bytes","name":"poolId","type":"bytes"},{"internalType":"uint32","name":"batchSize","type":"uint32"},{"internalType":"int64","name":"timeMS","type":"int64"}],"name":"distribute","outputs":[],"stateMutability":"nonpayable","type":"function"},{"inputs":[],"name":"feeAddress","outputs":[{"internalType":"address","name":"","type":"address"}],"stateMutability":"view","type":"function"},{"inputs":[],"name":"feeJackpotAddress","outputs":[{"internalType":"address","name":"","type":"address"}],"stateMutability":"view","type":"function"},{"inputs":[],"name":"feeJackpotPercentage","outputs":[{"internalType":"uint8","name":"","type":"uint8"}],"stateMutability":"view","type":"function"},{"inputs":[],"name":"feePercentage","outputs":[{"internalType":"uint8","name":"","type":"uint8"}],"stateMutability":"view","type":"function"},{"inputs":[],"name":"gameController15","outputs":[{"internalType":"address","name":"","type":"address"}],"stateMutability":"view","type":"function"},{"inputs":[],"name":"gameController30","outputs":[{"internalType":"address","name":"","type":"address"}],"stateMutability":"view","type":"function"},{"inputs":[],"name":"getContractBalance","outputs":[{"internalType":"uint256","name":"","type":"uint256"}],"stateMutability":"view","type":"function"},{"inputs":[{"internalType":"bytes","name":"poolId","type":"bytes"}],"name":"hasPendingDistributions","outputs":[{"internalType":"bool","name":"","type":"bool"}],"stateMutability":"view","type":"function"},{"inputs":[{"internalType":"bytes","name":"poolId","type":"bytes"}],"name":"isPoolOpen","outputs":[{"internalType":"bool","name":"","type":"bool"}],"stateMutability":"view","type":"function"},{"inputs":[],"name":"isRunning","outputs":[{"internalType":"bool","name":"","type":"bool"}],"stateMutability":"view","type":"function"},{"inputs":[{"components":[{"internalType":"bytes","name":"poolId","type":"bytes"},{"internalType":"string","name":"avatarUrl","type":"string"},{"internalType":"string","name":"countryCode","type":"string"},{"internalType":"bool","name":"upOrDown","type":"bool"},{"internalType":"string","name":"whiteLabelId","type":"string"},{"internalType":"string","name":"gameId","type":"string"}],"internalType":"struct PolPick.makeTradeStruct","name":"userTrade","type":"tuple"}],"name":"makeTrade","outputs":[],"stateMutability":"payable","type":"function"},{"inputs":[],"name":"notRunningReason","outputs":[{"internalType":"bytes","name":"","type":"bytes"}],"stateMutability":"view","type":"function"},{"inputs":[],"name":"owner","outputs":[{"internalType":"address","name":"","type":"address"}],"stateMutability":"view","type":"function"},{"inputs":[{"internalType":"bytes","name":"","type":"bytes"}],"name":"pools","outputs":[{"internalType":"bool","name":"created","type":"bool"},{"internalType":"int32","name":"startPrice","type":"int32"},{"internalType":"int32","name":"endPrice","type":"int32"},{"internalType":"uint256","name":"minBetAmount","type":"uint256"},{"internalType":"uint256","name":"maxBetAmount","type":"uint256"},{"internalType":"uint256","name":"poolBetsLimit","type":"uint256"},{"components":[{"internalType":"uint256[]","name":"bets","type":"uint256[]"},{"internalType":"address[]","name":"addresses","type":"address[]"},{"internalType":"string[]","name":"avatars","type":"string[]"},{"internalType":"string[]","name":"countries","type":"string[]"},{"internalType":"string[]","name":"whiteLabelIds","type":"string[]"},{"internalType":"uint256","name":"total","type":"uint256"},{"internalType":"uint256","name":"distributedCount","type":"uint256"},{"internalType":"uint256","name":"totalDistributed","type":"uint256"}],"internalType":"struct PolPick.BetGroup","name":"upBetGroup","type":"tuple"},{"components":[{"internalType":"uint256[]","name":"bets","type":"uint256[]"},{"internalType":"address[]","name":"addresses","type":"address[]"},{"internalType":"string[]","name":"avatars","type":"string[]"},{"internalType":"string[]","name":"countries","type":"string[]"},{"internalType":"string[]","name":"whiteLabelIds","type":"string[]"},{"internalType":"uint256","name":"total","type":"uint256"},{"internalType":"uint256","name":"distributedCount","type":"uint256"},{"internalType":"uint256","name":"totalDistributed","type":"uint256"}],"internalType":"struct PolPick.BetGroup","name":"downBetGroup","type":"tuple"},{"internalType":"int64","name":"roundStartTime","type":"int64"}],"stateMutability":"view","type":"function"},{"inputs":[],"name":"renounceOwnership","outputs":[],"stateMutability":"nonpayable","type":"function"},{"inputs":[],"name":"serviceFeeAddress","outputs":[{"internalType":"address","name":"","type":"address"}],"stateMutability":"view","type":"function"},{"inputs":[],"name":"serviceFeePercentage","outputs":[{"internalType":"uint8","name":"","type":"uint8"}],"stateMutability":"view","type":"function"},{"inputs":[],"name":"startGame","outputs":[],"stateMutability":"nonpayable","type":"function"},{"inputs":[{"internalType":"bytes","name":"reason","type":"bytes"}],"name":"stopGame","outputs":[],"stateMutability":"nonpayable","type":"function"},{"inputs":[{"internalType":"address","name":"to","type":"address"},{"internalType":"uint256","name":"amount","type":"uint256"}],"name":"transferEther","outputs":[],"stateMutability":"payable","type":"function"},{"inputs":[{"internalType":"address","name":"newOwner","type":"address"}],"name":"transferOwnership","outputs":[],"stateMutability":"nonpayable","type":"function"},{"inputs":[{"internalType":"bytes","name":"poolId","type":"bytes"},{"internalType":"int64","name":"timeMS","type":"int64"},{"internalType":"int32","name":"price","type":"int32"},{"internalType":"uint32","name":"batchSize","type":"uint32"}],"name":"trigger","outputs":[],"stateMutability":"nonpayable","type":"function"}],"evm":{"bytecode":{"linkReferences":{},"object":"6080604052600b600460006101000a81548160ff021916908360ff1602179055506001600460016101000a81548160ff021916908360ff1602179055506001600460026101000a81548160ff021916908360ff16021790555033600460036101000a81548173ffffffffffffffffffffffffffffffffffffffff021916908373ffffffffffffffffffffffffffffffffffffffff16021790555033600560006101000a81548173ffffffffffffffffffffffffffffffffffffffff021916908373ffffffffffffffffffffffffffffffffffffffff16021790555033600660006101000a81548173ffffffffffffffffffffffffffffffffffffffff021916908373ffffffffffffffffffffffffffffffffffffffff1602179055503480156200012857600080fd5b506040516200590a3803806200590a83398181016040528101906200014e91906200038e565b81600073ffffffffffffffffffffffffffffffffffffffff168173ffffffffffffffffffffffffffffffffffffffff1603620001c45760006040517f1e4fbdf7000000000000000000000000000000000000000000000000000000008152600401620001bb9190620003e6565b60405180910390fd5b620001d5816200026060201b60201c565b5081600160006101000a81548173ffffffffffffffffffffffffffffffffffffffff021916908373ffffffffffffffffffffffffffffffffffffffff16021790555080600260006101000a81548173ffffffffffffffffffffffffffffffffffffffff021916908373ffffffffffffffffffffffffffffffffffffffff160217905550505062000403565b60008060009054906101000a900473ffffffffffffffffffffffffffffffffffffffff169050816000806101000a81548173ffffffffffffffffffffffffffffffffffffffff021916908373ffffffffffffffffffffffffffffffffffffffff1602179055508173ffffffffffffffffffffffffffffffffffffffff168173ffffffffffffffffffffffffffffffffffffffff167f8be0079c531659141344cd1fd0a4f28419497f9722a3daafe3b4186f6b6457e060405160405180910390a35050565b600080fd5b600073ffffffffffffffffffffffffffffffffffffffff82169050919050565b6000620003568262000329565b9050919050565b620003688162000349565b81146200037457600080fd5b50565b60008151905062000388816200035d565b92915050565b60008060408385031215620003a857620003a762000324565b5b6000620003b88582860162000377565b9250506020620003cb8582860162000377565b9150509250929050565b620003e08162000349565b82525050565b6000602082019050620003fd6000830184620003d5565b92915050565b6154f780620004136000396000f3fe6080604052600436106101e35760003560e01c8063715018a611610102578063b91429a811610095578063e470996911610064578063e470996914610682578063eab79b7d146106ab578063f2fde38b146106d4578063f901b0c3146106fd576101e3565b8063b91429a8146105ee578063d4c770cf14610619578063d5ac395a14610642578063d65ab5f21461066b576101e3565b8063a7c3324d116100d1578063a7c3324d14610548578063a9b99af514610571578063ae38a8b91461059a578063afad745a146105c5576101e3565b8063715018a6146104b25780638da5cb5b146104c9578063900b7b3f146104f4578063a001ecdd1461051d576101e3565b80633b9fe1ee1161017a578063595dc89711610149578063595dc89714610408578063603ef649146104315780636518a0a91461045c5780636f9fb98a14610487576101e3565b80633b9fe1ee146103445780633fafac921461036f57806341275358146103b457806341581768146103df576101e3565b8063159dc634116101b6578063159dc634146102885780631c2db192146102b35780632014e5d1146102dc57806330efabd414610307576101e3565b806304c15b58146101e857806305b1137b146102135780630c2f915e1461022f5780630d62d0311461026c575b600080fd5b3480156101f457600080fd5b506101fd610726565b60405161020a91906135e3565b60405180910390f35b61022d60048036038101906102289190613674565b61074c565b005b34801561023b57600080fd5b5061025660048036038101906102519190613719565b61079d565b6040516102639190613781565b60405180910390f35b610286600480360381019061028191906137c0565b610807565b005b34801561029457600080fd5b5061029d611007565b6040516102aa9190613825565b60405180910390f35b3480156102bf57600080fd5b506102da60048036038101906102d59190613840565b61101a565b005b3480156102e857600080fd5b506102f1611066565b6040516102fe9190613781565b60405180910390f35b34801561031357600080fd5b5061032e60048036038101906103299190613719565b611079565b60405161033b9190613781565b60405180910390f35b34801561035057600080fd5b506103596110bf565b60405161036691906135e3565b60405180910390f35b34801561037b57600080fd5b50610396600480360381019061039191906139ae565b6110e5565b6040516103ab99989796959493929190613dc7565b60405180910390f35b3480156103c057600080fd5b506103c96118b1565b6040516103d691906135e3565b60405180910390f35b3480156103eb57600080fd5b5061040660048036038101906104019190613840565b6118d7565b005b34801561041457600080fd5b5061042f600480360381019061042a9190613840565b611923565b005b34801561043d57600080fd5b5061044661196f565b6040516104539190613825565b60405180910390f35b34801561046857600080fd5b50610471611982565b60405161047e9190613eb7565b60405180910390f35b34801561049357600080fd5b5061049c611a10565b6040516104a99190613ed9565b60405180910390f35b3480156104be57600080fd5b506104c7611a18565b005b3480156104d557600080fd5b506104de611a2c565b6040516104eb91906135e3565b60405180910390f35b34801561050057600080fd5b5061051b60048036038101906105169190613f20565b611a55565b005b34801561052957600080fd5b50610532611ac2565b60405161053f9190613825565b60405180910390f35b34801561055457600080fd5b5061056f600480360381019061056a9190613fb5565b611ad5565b005b34801561057d57600080fd5b5061059860048036038101906105939190614055565b612305565b005b3480156105a657600080fd5b506105af6126bb565b6040516105bc91906135e3565b60405180910390f35b3480156105d157600080fd5b506105ec60048036038101906105e79190613f20565b6126e1565b005b3480156105fa57600080fd5b5061060361274e565b60405161061091906135e3565b60405180910390f35b34801561062557600080fd5b50610640600480360381019061063b9190613f20565b612774565b005b34801561064e57600080fd5b5061066960048036038101906106649190613840565b6127e1565b005b34801561067757600080fd5b5061068061282d565b005b34801561068e57600080fd5b506106a960048036038101906106a491906140dd565b61289d565b005b3480156106b757600080fd5b506106d260048036038101906106cd9190613719565b612a40565b005b3480156106e057600080fd5b506106fb60048036038101906106f69190613840565b612ab2565b005b34801561070957600080fd5b50610724600480360381019061071f9190613840565b612b38565b005b600260009054906101000a900473ffffffffffffffffffffffffffffffffffffffff1681565b4781111561078f576040517f08c379a0000000000000000000000000000000000000000000000000000000008152600401610786906141e8565b60405180910390fd5b6107998282612b84565b5050565b600080600384846040516107b2929190614238565b9081526020016040518091039020600c0160000180549050600385856040516107dc929190614238565b9081526020016040518091039020600401600001805490506107fe9190614280565b11905092915050565b80806000019061081791906142c3565b6108218282611079565b610860576040517f08c379a000000000000000000000000000000000000000000000000000000000815260040161085790614398565b60405180910390fd5b600660149054906101000a900460ff166108af576040517f08c379a00000000000000000000000000000000000000000000000000000000081526004016108a690614404565b60405180910390fd5b8280600001906108bf91906142c3565b600382826040516108d1929190614238565b908152602001604051809103902060000160009054906101000a900460ff1661092f576040517f08c379a000000000000000000000000000000000000000000000000000000000815260040161092690614470565b60405180910390fd5b61093833612c35565b610977576040517f08c379a000000000000000000000000000000000000000000000000000000000815260040161096e906144dc565b60405180910390fd5b600034116109ba576040517f08c379a00000000000000000000000000000000000000000000000000000000081526004016109b190614548565b60405180910390fd5b60038580600001906109cc91906142c3565b6040516109da929190614238565b908152602001604051809103902060010154341015610a2e576040517f08c379a0000000000000000000000000000000000000000000000000000000008152600401610a25906145da565b60405180910390fd5b6003858060000190610a4091906142c3565b604051610a4e929190614238565b908152602001604051809103902060020154341115610aa2576040517f08c379a0000000000000000000000000000000000000000000000000000000008152600401610a999061466c565b60405180910390fd5b6000856060016020810190610ab791906146b8565b15610be45760016003878060000190610ad091906142c3565b604051610ade929190614238565b908152602001604051809103902060030154610afa91906146e5565b6003878060000190610b0c91906142c3565b604051610b1a929190614238565b9081526020016040518091039020600401600001805490501115610b73576040517f08c379a0000000000000000000000000000000000000000000000000000000008152600401610b6a9061478b565b60405180910390fd5b610bdd6003878060000190610b8891906142c3565b604051610b96929190614238565b908152602001604051809103902060040134888060200190610bb891906147ab565b8a8060400190610bc891906147ab565b8c8060800190610bd891906147ab565b612c6d565b9050610d08565b60016003878060000190610bf891906142c3565b604051610c06929190614238565b908152602001604051809103902060030154610c2291906146e5565b6003878060000190610c3491906142c3565b604051610c42929190614238565b9081526020016040518091039020600c01600001805490501115610c9b576040517f08c379a0000000000000000000000000000000000000000000000000000000008152600401610c929061478b565b60405180910390fd5b610d056003878060000190610cb091906142c3565b604051610cbe929190614238565b9081526020016040518091039020600c0134888060200190610ce091906147ab565b8a8060400190610cf091906147ab565b8c8060800190610d0091906147ab565b612c6d565b90505b610d10613447565b868060200190610d2091906147ab565b8080601f016020809104026020016040519081016040528093929190818152602001838380828437600081840152601f19601f820116905080830192505050505050508160000181905250868060400190610d7b91906147ab565b8080601f016020809104026020016040519081016040528093929190818152602001838380828437600081840152601f19601f820116905080830192505050505050508160200181905250868060800190610dd691906147ab565b8080601f016020809104026020016040519081016040528093929190818152602001838380828437600081840152601f19601f8201169050808301925050505050505081604001819052506003878060000190610e3391906142c3565b604051610e41929190614238565b908152602001604051809103902060140160009054906101000a900460070b816060019060070b908160070b81525050868060a00190610e8191906147ab565b8080601f016020809104026020016040519081016040528093929190818152602001838380828437600081840152601f19601f8201169050808301925050505050505081608001819052503373ffffffffffffffffffffffffffffffffffffffff16878060000190610ef391906142c3565b604051610f01929190614238565b60405180910390207f1ba68e8df7ae1e0dd153767b3bdad5fc9e7469ae2210b7c067ef0a4477848dbc898060000190610f3a91906142c3565b33348d6060016020810190610f4f91906146b8565b610f8e576040518060400160405280600481526020017f444f574e00000000000000000000000000000000000000000000000000000000815250610fc5565b6040518060400160405280600281526020017f55500000000000000000000000000000000000000000000000000000000000008152505b8989600001518a602001518b606001518c604001518d60800151604051610ff69b9a99989796959493929190614874565b60405180910390a350505050505050565b600460019054906101000a900460ff1681565b611022612ded565b80600560006101000a81548173ffffffffffffffffffffffffffffffffffffffff021916908373ffffffffffffffffffffffffffffffffffffffff16021790555050565b600660149054906101000a900460ff1681565b600080600060038585604051611090929190614238565b908152602001604051809103902060000160019054906101000a900460030b60030b1490508091505092915050565b600560009054906101000a900473ffffffffffffffffffffffffffffffffffffffff1681565b6003818051602081018201805184825260208301602085012081835280955050505050506000915090508060000160009054906101000a900460ff16908060000160019054906101000a900460030b908060000160059054906101000a900460030b908060010154908060020154908060030154908060040160405180610100016040529081600082018054806020026020016040519081016040528092919081815260200182805480156111b957602002820191906000526020600020905b8154815260200190600101908083116111a5575b505050505081526020016001820180548060200260200160405190810160405280929190818152602001828054801561124757602002820191906000526020600020905b8160009054906101000a900473ffffffffffffffffffffffffffffffffffffffff1673ffffffffffffffffffffffffffffffffffffffff16815260200190600101908083116111fd575b5050505050815260200160028201805480602002602001604051908101604052809291908181526020016000905b828210156113215783829060005260206000200180546112949061496b565b80601f01602080910402602001604051908101604052809291908181526020018280546112c09061496b565b801561130d5780601f106112e25761010080835404028352916020019161130d565b820191906000526020600020905b8154815290600101906020018083116112f057829003601f168201915b505050505081526020019060010190611275565b50505050815260200160038201805480602002602001604051908101604052809291908181526020016000905b828210156113fa57838290600052602060002001805461136d9061496b565b80601f01602080910402602001604051908101604052809291908181526020018280546113999061496b565b80156113e65780601f106113bb576101008083540402835291602001916113e6565b820191906000526020600020905b8154815290600101906020018083116113c957829003601f168201915b50505050508152602001906001019061134e565b50505050815260200160048201805480602002602001604051908101604052809291908181526020016000905b828210156114d35783829060005260206000200180546114469061496b565b80601f01602080910402602001604051908101604052809291908181526020018280546114729061496b565b80156114bf5780601f10611494576101008083540402835291602001916114bf565b820191906000526020600020905b8154815290600101906020018083116114a257829003601f168201915b505050505081526020019060010190611427565b50505050815260200160058201548152602001600682015481526020016007820154815250509080600c01604051806101000160405290816000820180548060200260200160405190810160405280929190818152602001828054801561155957602002820191906000526020600020905b815481526020019060010190808311611545575b50505050508152602001600182018054806020026020016040519081016040528092919081815260200182805480156115e757602002820191906000526020600020905b8160009054906101000a900473ffffffffffffffffffffffffffffffffffffffff1673ffffffffffffffffffffffffffffffffffffffff168152602001906001019080831161159d575b5050505050815260200160028201805480602002602001604051908101604052809291908181526020016000905b828210156116c15783829060005260206000200180546116349061496b565b80601f01602080910402602001604051908101604052809291908181526020018280546116609061496b565b80156116ad5780601f10611682576101008083540402835291602001916116ad565b820191906000526020600020905b81548152906001019060200180831161169057829003601f168201915b505050505081526020019060010190611615565b50505050815260200160038201805480602002602001604051908101604052809291908181526020016000905b8282101561179a57838290600052602060002001805461170d9061496b565b80601f01602080910402602001604051908101604052809291908181526020018280546117399061496b565b80156117865780601f1061175b57610100808354040283529160200191611786565b820191906000526020600020905b81548152906001019060200180831161176957829003601f168201915b5050505050815260200190600101906116ee565b50505050815260200160048201805480602002602001604051908101604052809291908181526020016000905b828210156118735783829060005260206000200180546117e69061496b565b80601f01602080910402602001604051908101604052809291908181526020018280546118129061496b565b801561185f5780601f106118345761010080835404028352916020019161185f565b820191906000526020600020905b81548152906001019060200180831161184257829003601f168201915b5050505050815260200190600101906117c7565b5050505081526020016005820154815260200160068201548152602001600782015481525050908060140160009054906101000a900460070b905089565b600460039054906101000a900473ffffffffffffffffffffffffffffffffffffffff1681565b6118df612ded565b80600660006101000a81548173ffffffffffffffffffffffffffffffffffffffff021916908373ffffffffffffffffffffffffffffffffffffffff16021790555050565b61192b612ded565b80600460036101000a81548173ffffffffffffffffffffffffffffffffffffffff021916908373ffffffffffffffffffffffffffffffffffffffff16021790555050565b600460029054906101000a900460ff1681565b6007805461198f9061496b565b80601f01602080910402602001604051908101604052809291908181526020018280546119bb9061496b565b8015611a085780601f106119dd57610100808354040283529160200191611a08565b820191906000526020600020905b8154815290600101906020018083116119eb57829003601f168201915b505050505081565b600047905090565b611a20612ded565b611a2a6000612e74565b565b60008060009054906101000a900473ffffffffffffffffffffffffffffffffffffffff16905090565b611a5d612ded565b60648160ff161115611aa4576040517f08c379a0000000000000000000000000000000000000000000000000000000008152600401611a9b90614a0e565b60405180910390fd5b80600460016101000a81548160ff021916908360ff16021790555050565b600460009054906101000a900460ff1681565b600160009054906101000a900473ffffffffffffffffffffffffffffffffffffffff1673ffffffffffffffffffffffffffffffffffffffff163373ffffffffffffffffffffffffffffffffffffffff161480611b7e5750600260009054906101000a900473ffffffffffffffffffffffffffffffffffffffff1673ffffffffffffffffffffffffffffffffffffffff163373ffffffffffffffffffffffffffffffffffffffff16145b611bbd576040517f08c379a0000000000000000000000000000000000000000000000000000000008152600401611bb490614a7a565b60405180910390fd5b838360038282604051611bd1929190614238565b908152602001604051809103902060000160009054906101000a900460ff16611c2f576040517f08c379a0000000000000000000000000000000000000000000000000000000008152600401611c2690614470565b60405180910390fd5b600060038787604051611c43929190614238565b90815260200160405180910390209050600081600401600001805490501480611c765750600081600c0160000180549050145b80611ca857508060000160059054906101000a900460030b60030b8160000160019054906101000a900460030b60030b145b15611e95578060000160059054906101000a900460030b60030b8160000160019054906101000a900460030b60030b03611deb576000816004019050600082600c019050600082600601549050600082600601549050611d0a8b8b868c612f38565b611d168b8b858c612f38565b7fd86802201c3bf5d79ef71027c49cdfdee99fa298848917618ba148d098f15f748b8b86600001805490508588600601548d604051611d5a96959493929190614a9a565b60405180910390a17fd86802201c3bf5d79ef71027c49cdfdee99fa298848917618ba148d098f15f748b8b85600001805490508487600601548d604051611da696959493929190614a9a565b60405180910390a183600001805490508460060154148015611dd2575082600001805490508360060154145b15611de257611de18b8b6130e0565b5b50505050611e8f565b60008082600c016000018054905014611e075781600c01611e0c565b816004015b9050600081600601549050611e238989848a612f38565b7fd86802201c3bf5d79ef71027c49cdfdee99fa298848917618ba148d098f15f74898984600001805490508486600601548b604051611e6796959493929190614a9a565b60405180910390a18160000180549050826006015403611e8c57611e8b89896130e0565b5b50505b506122fd565b600081600c01905060008260040190508260000160059054906101000a900460030b60030b8360000160019054906101000a900460030b60030b1215611ee25782600401915082600c0190505b6000611eee838361326c565b905060008863ffffffff168260e0015111611f0d578160e00151611f15565b8863ffffffff165b90506000818560060154611f299190614280565b90506000856006015490505b818110156121c057600060648760050154606487608001518a6000018681548110611f6357611f62614af6565b5b9060005260206000200154611f789190614b25565b611f829190614b25565b611f8c9190614b96565b611f969190614b96565b9050612061876001018381548110611fb157611fb0614af6565b5b9060005260206000200160009054906101000a900473ffffffffffffffffffffffffffffffffffffffff166064600460009054906101000a900460ff1660ff168a600001868154811061200757612006614af6565b5b906000526020600020015461201c9190614b25565b6120269190614b96565b89600001858154811061203c5761203b614af6565b5b906000526020600020015461205191906146e5565b8361205c9190614280565b612b84565b86600101828154811061207757612076614af6565b5b9060005260206000200160009054906101000a900473ffffffffffffffffffffffffffffffffffffffff1673ffffffffffffffffffffffffffffffffffffffff167fc6f8d1369ef8a4d7d8373cd5079d27245ff35d49aba7ff57de55fbaf8d53813b8f8f8a60010186815481106120f1576120f0614af6565b5b9060005260206000200160009054906101000a900473ffffffffffffffffffffffffffffffffffffffff168b600001878154811061213257612131614af6565b5b9060005260206000200154868d600401898154811061215457612153614af6565b5b90600052602060002001600460009054906101000a900460ff16600460019054906101000a900460ff16604051612192989796959493929190614c60565b60405180910390a28087600701546121aa9190614280565b8760070181905550508080600101915050611f35565b507fd86802201c3bf5d79ef71027c49cdfdee99fa298848917618ba148d098f15f748c8c87600001805490508860060154858e60405161220596959493929190614a9a565b60405180910390a180856006018190555084600001805490508560060154036122f657612258600460039054906101000a900473ffffffffffffffffffffffffffffffffffffffff168460c00151612b84565b612288600560009054906101000a900473ffffffffffffffffffffffffffffffffffffffff168460400151612b84565b6122b8600660009054906101000a900473ffffffffffffffffffffffffffffffffffffffff168460600151612b84565b6122eb600460039054906101000a900473ffffffffffffffffffffffffffffffffffffffff166122e6611a10565b612b84565b6122f58c8c6130e0565b5b5050505050505b505050505050565b600160009054906101000a900473ffffffffffffffffffffffffffffffffffffffff1673ffffffffffffffffffffffffffffffffffffffff163373ffffffffffffffffffffffffffffffffffffffff1614806123ae5750600260009054906101000a900473ffffffffffffffffffffffffffffffffffffffff1673ffffffffffffffffffffffffffffffffffffffff163373ffffffffffffffffffffffffffffffffffffffff16145b6123ed576040517f08c379a00000000000000000000000000000000000000000000000000000000081526004016123e490614a7a565b60405180910390fd5b848460038282604051612401929190614238565b908152602001604051809103902060000160009054906101000a900460ff1661245f576040517f08c379a000000000000000000000000000000000000000000000000000000000815260040161245690614470565b60405180910390fd5b600060038888604051612473929190614238565b9081526020016040518091039020905061248d8888611079565b156125b257600660149054906101000a900460ff166124e1576040517f08c379a00000000000000000000000000000000000000000000000000000000081526004016124d890614d51565b60405180910390fd5b848160000160016101000a81548163ffffffff021916908360030b63ffffffff160217905550858160140160006101000a81548167ffffffffffffffff021916908360070b67ffffffffffffffff1602179055508787604051612545929190614238565b60405180910390207f977f157300bb4d69d09b3e083fb55a17a0c02f978e5b220c08173c63de9665aa8989898560000160019054906101000a900460030b8660010154876002015488600301546040516125a59796959493929190614d71565b60405180910390a26126b1565b60008160000160059054906101000a900460030b60030b0361267e57848160000160056101000a81548163ffffffff021916908360030b63ffffffff1602179055508787604051612604929190614238565b60405180910390207fe097bf610f5827ffcdd36eb07b790e6ee02dd498f911ab45664208cfad9323b08989898560000160019054906101000a900460030b8660000160059054906101000a900460030b604051612665959493929190614ddb565b60405180910390a261267988888689611ad5565b6126b0565b6040517fd56be5db00000000000000000000000000000000000000000000000000000000815260040160405180910390fd5b5b5050505050505050565b600660009054906101000a900473ffffffffffffffffffffffffffffffffffffffff1681565b6126e9612ded565b60648160ff161115612730576040517f08c379a000000000000000000000000000000000000000000000000000000000815260040161272790614e9b565b60405180910390fd5b80600460026101000a81548160ff021916908360ff16021790555050565b600160009054906101000a900473ffffffffffffffffffffffffffffffffffffffff1681565b61277c612ded565b60648160ff1611156127c3576040517f08c379a00000000000000000000000000000000000000000000000000000000081526004016127ba90614f07565b60405180910390fd5b80600460006101000a81548160ff021916908360ff16021790555050565b6127e9612ded565b80600160006101000a81548173ffffffffffffffffffffffffffffffffffffffff021916908373ffffffffffffffffffffffffffffffffffffffff16021790555050565b612835612ded565b6001600660146101000a81548160ff021916908315150217905550604051806020016040528060008152506007908161286e91906150d3565b507f762f260439bb4be3ef6e4dc2786e2e7bd187d3d80b79057d7a424fe98563e33560405160405180910390a1565b600160009054906101000a900473ffffffffffffffffffffffffffffffffffffffff1673ffffffffffffffffffffffffffffffffffffffff163373ffffffffffffffffffffffffffffffffffffffff1614806129465750600260009054906101000a900473ffffffffffffffffffffffffffffffffffffffff1673ffffffffffffffffffffffffffffffffffffffff163373ffffffffffffffffffffffffffffffffffffffff16145b612985576040517f08c379a000000000000000000000000000000000000000000000000000000000815260040161297c90614a7a565b60405180910390fd5b600160038686604051612999929190614238565b908152602001604051809103902060000160006101000a81548160ff02191690831515021790555082600386866040516129d4929190614238565b90815260200160405180910390206001018190555081600386866040516129fc929190614238565b9081526020016040518091039020600201819055508060038686604051612a24929190614238565b9081526020016040518091039020600301819055505050505050565b612a48612ded565b6000600660146101000a81548160ff021916908315150217905550818160079182612a749291906151b0565b507fbbed56c796999ec9481de9169e54d6f193c57a335189c8b82053d80e263fdbd68282604051612aa6929190615280565b60405180910390a15050565b612aba612ded565b600073ffffffffffffffffffffffffffffffffffffffff168173ffffffffffffffffffffffffffffffffffffffff1603612b2c5760006040517f1e4fbdf7000000000000000000000000000000000000000000000000000000008152600401612b2391906135e3565b60405180910390fd5b612b3581612e74565b50565b612b40612ded565b80600260006101000a81548173ffffffffffffffffffffffffffffffffffffffff021916908373ffffffffffffffffffffffffffffffffffffffff16021790555050565b60008273ffffffffffffffffffffffffffffffffffffffff1682604051612baa906152ca565b60006040518083038185875af1925050503d8060008114612be7576040519150601f19603f3d011682016040523d82523d6000602084013e612bec565b606091505b5050905080612c30576040517f08c379a0000000000000000000000000000000000000000000000000000000008152600401612c279061532b565b60405180910390fd5b505050565b60003273ffffffffffffffffffffffffffffffffffffffff168273ffffffffffffffffffffffffffffffffffffffff16149050919050565b60008860000188908060018154018082558091505060019003906000526020600020016000909190919091505588600101339080600181540180825580915050600190039060005260206000200160009091909190916101000a81548173ffffffffffffffffffffffffffffffffffffffff021916908373ffffffffffffffffffffffffffffffffffffffff16021790555088600201878790918060018154018082558091505060019003906000526020600020016000909192909192909192909192509182612d3e92919061539c565b5088600301858590918060018154018082558091505060019003906000526020600020016000909192909192909192909192509182612d7e92919061539c565b5088600401838390918060018154018082558091505060019003906000526020600020016000909192909192909192909192509182612dbe92919061539c565b5087896005016000828254612dd39190614280565b925050819055508860050154905098975050505050505050565b612df561343f565b73ffffffffffffffffffffffffffffffffffffffff16612e13611a2c565b73ffffffffffffffffffffffffffffffffffffffff1614612e7257612e3661343f565b6040517f118cdaa7000000000000000000000000000000000000000000000000000000008152600401612e6991906135e3565b60405180910390fd5b565b60008060009054906101000a900473ffffffffffffffffffffffffffffffffffffffff169050816000806101000a81548173ffffffffffffffffffffffffffffffffffffffff021916908373ffffffffffffffffffffffffffffffffffffffff1602179055508173ffffffffffffffffffffffffffffffffffffffff168173ffffffffffffffffffffffffffffffffffffffff167f8be0079c531659141344cd1fd0a4f28419497f9722a3daafe3b4186f6b6457e060405160405180910390a35050565b600082600601548360000180549050612f5191906146e5565b905060008263ffffffff168211612f685781612f70565b8263ffffffff165b90506000818560060154612f849190614280565b90506000856006015490505b818110156130cd57613002866001018281548110612fb157612fb0614af6565b5b9060005260206000200160009054906101000a900473ffffffffffffffffffffffffffffffffffffffff16876000018381548110612ff257612ff1614af6565b5b9060005260206000200154612b84565b7fb9b3cf88e16ddd6b941ffa04b763047af17bafd3cdecef4d26d46f43e64c1205888888600101848154811061303b5761303a614af6565b5b9060005260206000200160009054906101000a900473ffffffffffffffffffffffffffffffffffffffff1689600001858154811061307c5761307b614af6565b5b90600052602060002001548a600401868154811061309d5761309c614af6565b5b906000526020600020016040516130b895949392919061546c565b60405180910390a18080600101915050612f90565b5080856006018190555050505050505050565b600382826040516130f2929190614238565b9081526020016040518091039020600401600080820160006131149190613479565b600182016000613124919061349a565b60028201600061313491906134bb565b60038201600061314491906134bb565b60048201600061315491906134bb565b600582016000905560068201600090556007820160009055505060038282604051613180929190614238565b9081526020016040518091039020600c01600080820160006131a29190613479565b6001820160006131b2919061349a565b6002820160006131c291906134bb565b6003820160006131d291906134bb565b6004820160006131e291906134bb565b60058201600090556006820160009055600782016000905550506003828260405161320e929190614238565b908152602001604051809103902060000160016101000a81549063ffffffff021916905560038282604051613244929190614238565b908152602001604051809103902060000160056101000a81549063ffffffff02191690555050565b6132746134dc565b60006064600460009054906101000a900460ff1660ff168460050154866005015461329f9190614280565b6132a99190614b25565b6132b39190614b96565b905060006064600460019054906101000a900460ff1660ff16836132d79190614b25565b6132e19190614b96565b905060006064600460029054906101000a900460ff1660ff16846133059190614b25565b61330f9190614b96565b90506000818361331f9190614280565b8461332a91906146e5565b905060006064600460009054906101000a900460ff1660ff1688600501546133529190614b25565b61335c9190614b96565b876005015461336b91906146e5565b905060006064600460009054906101000a900460ff1660ff168a600501546133939190614b25565b61339d9190614b96565b89600501546133ac91906146e5565b9050600089600601548a600001805490506133c791906146e5565b90506040518061010001604052806064600460009054906101000a900460ff1660ff168d600501546133f99190614b25565b6134039190614b96565b81526020018881526020018781526020018681526020018481526020018381526020018581526020018281525097505050505050505092915050565b600033905090565b6040518060a00160405280606081526020016060815260200160608152602001600060070b8152602001606081525090565b50805460008255906000526020600020908101906134979190613521565b50565b50805460008255906000526020600020908101906134b89190613521565b50565b50805460008255906000526020600020908101906134d9919061353e565b50565b60405180610100016040528060008152602001600081526020016000815260200160008152602001600081526020016000815260200160008152602001600081525090565b5b8082111561353a576000816000905550600101613522565b5090565b5b8082111561355e57600081816135559190613562565b5060010161353f565b5090565b50805461356e9061496b565b6000825580601f10613580575061359f565b601f01602090049060005260206000209081019061359e9190613521565b5b50565b600073ffffffffffffffffffffffffffffffffffffffff82169050919050565b60006135cd826135a2565b9050919050565b6135dd816135c2565b82525050565b60006020820190506135f860008301846135d4565b92915050565b6000604051905090565b600080fd5b600080fd5b61361b816135c2565b811461362657600080fd5b50565b60008135905061363881613612565b92915050565b6000819050919050565b6136518161363e565b811461365c57600080fd5b50565b60008135905061366e81613648565b92915050565b6000806040838503121561368b5761368a613608565b5b600061369985828601613629565b92505060206136aa8582860161365f565b9150509250929050565b600080fd5b600080fd5b600080fd5b60008083601f8401126136d9576136d86136b4565b5b8235905067ffffffffffffffff8111156136f6576136f56136b9565b5b602083019150836001820283011115613712576137116136be565b5b9250929050565b600080602083850312156137305761372f613608565b5b600083013567ffffffffffffffff81111561374e5761374d61360d565b5b61375a858286016136c3565b92509250509250929050565b60008115159050919050565b61377b81613766565b82525050565b60006020820190506137966000830184613772565b92915050565b600080fd5b600060c082840312156137b7576137b661379c565b5b81905092915050565b6000602082840312156137d6576137d5613608565b5b600082013567ffffffffffffffff8111156137f4576137f361360d565b5b613800848285016137a1565b91505092915050565b600060ff82169050919050565b61381f81613809565b82525050565b600060208201905061383a6000830184613816565b92915050565b60006020828403121561385657613855613608565b5b600061386484828501613629565b91505092915050565b600080fd5b6000601f19601f8301169050919050565b7f4e487b7100000000000000000000000000000000000000000000000000000000600052604160045260246000fd5b6138bb82613872565b810181811067ffffffffffffffff821117156138da576138d9613883565b5b80604052505050565b60006138ed6135fe565b90506138f982826138b2565b919050565b600067ffffffffffffffff82111561391957613918613883565b5b61392282613872565b9050602081019050919050565b82818337600083830152505050565b600061395161394c846138fe565b6138e3565b90508281526020810184848401111561396d5761396c61386d565b5b61397884828561392f565b509392505050565b600082601f830112613995576139946136b4565b5b81356139a584826020860161393e565b91505092915050565b6000602082840312156139c4576139c3613608565b5b600082013567ffffffffffffffff8111156139e2576139e161360d565b5b6139ee84828501613980565b91505092915050565b60008160030b9050919050565b613a0d816139f7565b82525050565b613a1c8161363e565b82525050565b600081519050919050565b600082825260208201905092915050565b6000819050602082019050919050565b613a578161363e565b82525050565b6000613a698383613a4e565b60208301905092915050565b6000602082019050919050565b6000613a8d82613a22565b613a978185613a2d565b9350613aa283613a3e565b8060005b83811015613ad3578151613aba8882613a5d565b9750613ac583613a75565b925050600181019050613aa6565b5085935050505092915050565b600081519050919050565b600082825260208201905092915050565b6000819050602082019050919050565b613b15816135c2565b82525050565b6000613b278383613b0c565b60208301905092915050565b6000602082019050919050565b6000613b4b82613ae0565b613b558185613aeb565b9350613b6083613afc565b8060005b83811015613b91578151613b788882613b1b565b9750613b8383613b33565b925050600181019050613b64565b5085935050505092915050565b600081519050919050565b600082825260208201905092915050565b6000819050602082019050919050565b600081519050919050565b600082825260208201905092915050565b60005b83811015613c04578082015181840152602081019050613be9565b60008484015250505050565b6000613c1b82613bca565b613c258185613bd5565b9350613c35818560208601613be6565b613c3e81613872565b840191505092915050565b6000613c558383613c10565b905092915050565b6000602082019050919050565b6000613c7582613b9e565b613c7f8185613ba9565b935083602082028501613c9185613bba565b8060005b85811015613ccd5784840389528151613cae8582613c49565b9450613cb983613c5d565b925060208a01995050600181019050613c95565b50829750879550505050505092915050565b6000610100830160008301518482036000860152613cfd8282613a82565b91505060208301518482036020860152613d178282613b40565b91505060408301518482036040860152613d318282613c6a565b91505060608301518482036060860152613d4b8282613c6a565b91505060808301518482036080860152613d658282613c6a565b91505060a0830151613d7a60a0860182613a4e565b5060c0830151613d8d60c0860182613a4e565b5060e0830151613da060e0860182613a4e565b508091505092915050565b60008160070b9050919050565b613dc181613dab565b82525050565b600061012082019050613ddd600083018c613772565b613dea602083018b613a04565b613df7604083018a613a04565b613e046060830189613a13565b613e116080830188613a13565b613e1e60a0830187613a13565b81810360c0830152613e308186613cdf565b905081810360e0830152613e448185613cdf565b9050613e54610100830184613db8565b9a9950505050505050505050565b600081519050919050565b600082825260208201905092915050565b6000613e8982613e62565b613e938185613e6d565b9350613ea3818560208601613be6565b613eac81613872565b840191505092915050565b60006020820190508181036000830152613ed18184613e7e565b905092915050565b6000602082019050613eee6000830184613a13565b92915050565b613efd81613809565b8114613f0857600080fd5b50565b600081359050613f1a81613ef4565b92915050565b600060208284031215613f3657613f35613608565b5b6000613f4484828501613f0b565b91505092915050565b600063ffffffff82169050919050565b613f6681613f4d565b8114613f7157600080fd5b50565b600081359050613f8381613f5d565b92915050565b613f9281613dab565b8114613f9d57600080fd5b50565b600081359050613faf81613f89565b92915050565b60008060008060608587031215613fcf57613fce613608565b5b600085013567ffffffffffffffff811115613fed57613fec61360d565b5b613ff9878288016136c3565b9450945050602061400c87828801613f74565b925050604061401d87828801613fa0565b91505092959194509250565b614032816139f7565b811461403d57600080fd5b50565b60008135905061404f81614029565b92915050565b60008060008060006080868803121561407157614070613608565b5b600086013567ffffffffffffffff81111561408f5761408e61360d565b5b61409b888289016136c3565b955095505060206140ae88828901613fa0565b93505060406140bf88828901614040565b92505060606140d088828901613f74565b9150509295509295909350565b6000806000806000608086880312156140f9576140f8613608565b5b600086013567ffffffffffffffff8111156141175761411661360d565b5b614123888289016136c3565b955095505060206141368882890161365f565b93505060406141478882890161365f565b92505060606141588882890161365f565b9150509295509295909350565b600082825260208201905092915050565b7f4e6f7420656e6f7567682062616c616e636520696e2074686520636f6e74726160008201527f6374000000000000000000000000000000000000000000000000000000000000602082015250565b60006141d2602283614165565b91506141dd82614176565b604082019050919050565b60006020820190508181036000830152614201816141c5565b9050919050565b600081905092915050565b600061421f8385614208565b935061422c83858461392f565b82840190509392505050565b6000614245828486614213565b91508190509392505050565b7f4e487b7100000000000000000000000000000000000000000000000000000000600052601160045260246000fd5b600061428b8261363e565b91506142968361363e565b92508282019050808211156142ae576142ad614251565b5b92915050565b600080fd5b600080fd5b600080fd5b600080833560016020038436030381126142e0576142df6142b4565b5b80840192508235915067ffffffffffffffff821115614302576143016142b9565b5b60208301925060018202360383131561431e5761431d6142be565b5b509250929050565b7f5468697320706f6f6c20686173206120726f756e6420696e2070726f6772657360008201527f7300000000000000000000000000000000000000000000000000000000000000602082015250565b6000614382602183614165565b915061438d82614326565b604082019050919050565b600060208201905081810360008301526143b181614375565b9050919050565b7f5468652067616d65206973206e6f742072756e6e696e67000000000000000000600082015250565b60006143ee601783614165565b91506143f9826143b8565b602082019050919050565b6000602082019050818103600083015261441d816143e1565b9050919050565b7f506f6f6c20646f6573206e6f7420657869737400000000000000000000000000600082015250565b600061445a601383614165565b915061446582614424565b602082019050919050565b600060208201905081810360008301526144898161444d565b9050919050565b7f6d75737420626520454f41000000000000000000000000000000000000000000600082015250565b60006144c6600b83614165565b91506144d182614490565b602082019050919050565b600060208201905081810360008301526144f5816144b9565b9050919050565b7f76616c7565206d7573742062652067726561746572207468616e207a65726f00600082015250565b6000614532601f83614165565b915061453d826144fc565b602082019050919050565b6000602082019050818103600083015261456181614525565b9050919050565b7f616d6f756e742073686f756c6420626520686967686572207468616e2074686560008201527f206d696e696d756d000000000000000000000000000000000000000000000000602082015250565b60006145c4602883614165565b91506145cf82614568565b604082019050919050565b600060208201905081810360008301526145f3816145b7565b9050919050565b7f616d6f756e742073686f756c64206265206c6f776572207468616e207468652060008201527f6d6178696d756d00000000000000000000000000000000000000000000000000602082015250565b6000614656602783614165565b9150614661826145fa565b604082019050919050565b6000602082019050818103600083015261468581614649565b9050919050565b61469581613766565b81146146a057600080fd5b50565b6000813590506146b28161468c565b92915050565b6000602082840312156146ce576146cd613608565b5b60006146dc848285016146a3565b91505092915050565b60006146f08261363e565b91506146fb8361363e565b925082820390508181111561471357614712614251565b5b92915050565b7f506f6f6c2069732066756c6c2c207761697420666f72206e65787420726f756e60008201527f6400000000000000000000000000000000000000000000000000000000000000602082015250565b6000614775602183614165565b915061478082614719565b604082019050919050565b600060208201905081810360008301526147a481614768565b9050919050565b600080833560016020038436030381126147c8576147c76142b4565b5b80840192508235915067ffffffffffffffff8211156147ea576147e96142b9565b5b602083019250600182023603831315614806576148056142be565b5b509250929050565b600061481a8385613e6d565b935061482783858461392f565b61483083613872565b840190509392505050565b600061484682613bca565b6148508185614165565b9350614860818560208601613be6565b61486981613872565b840191505092915050565b6000610140820190508181036000830152614890818d8f61480e565b905061489f602083018c6135d4565b6148ac604083018b613a13565b81810360608301526148be818a61483b565b90506148cd6080830189613a13565b81810360a08301526148df818861483b565b905081810360c08301526148f3818761483b565b905061490260e0830186613db8565b818103610100830152614915818561483b565b905081810361012083015261492a818461483b565b90509c9b505050505050505050505050565b7f4e487b7100000000000000000000000000000000000000000000000000000000600052602260045260246000fd5b6000600282049050600182168061498357607f821691505b6020821081036149965761499561493c565b5b50919050565b7f57726f6e67206a61636b706f74206665652070657263656e746167652076616c60008201527f7565000000000000000000000000000000000000000000000000000000000000602082015250565b60006149f8602283614165565b9150614a038261499c565b604082019050919050565b60006020820190508181036000830152614a27816149eb565b9050919050565b7f4f6e6c792067616d6520636f6e74726f6c6c65722063616e20646f2074686973600082015250565b6000614a64602083614165565b9150614a6f82614a2e565b602082019050919050565b60006020820190508181036000830152614a9381614a57565b9050919050565b600060a0820190508181036000830152614ab581888a61480e565b9050614ac46020830187613a13565b614ad16040830186613a13565b614ade6060830185613a13565b614aeb6080830184613db8565b979650505050505050565b7f4e487b7100000000000000000000000000000000000000000000000000000000600052603260045260246000fd5b6000614b308261363e565b9150614b3b8361363e565b9250828202614b498161363e565b91508282048414831517614b6057614b5f614251565b5b5092915050565b7f4e487b7100000000000000000000000000000000000000000000000000000000600052601260045260246000fd5b6000614ba18261363e565b9150614bac8361363e565b925082614bbc57614bbb614b67565b5b828204905092915050565b60008190508160005260206000209050919050565b60008154614be98161496b565b614bf38186614165565b94506001821660008114614c0e5760018114614c2457614c57565b60ff198316865281151560200286019350614c57565b614c2d85614bc7565b60005b83811015614c4f57815481890152600182019150602081019050614c30565b808801955050505b50505092915050565b600060e0820190508181036000830152614c7b818a8c61480e565b9050614c8a60208301896135d4565b614c976040830188613a13565b614ca46060830187613a13565b8181036080830152614cb68186614bdc565b9050614cc560a0830185613816565b614cd260c0830184613816565b9998505050505050505050565b7f5468652067616d65206973206e6f742072756e6e696e672c20726f756e64732060008201527f63616e206f6e6c7920626520656e646564206174207468697320706f696e7400602082015250565b6000614d3b603f83614165565b9150614d4682614cdf565b604082019050919050565b60006020820190508181036000830152614d6a81614d2e565b9050919050565b600060c0820190508181036000830152614d8c81898b61480e565b9050614d9b6020830188613db8565b614da86040830187613a04565b614db56060830186613a13565b614dc26080830185613a13565b614dcf60a0830184613a13565b98975050505050505050565b60006080820190508181036000830152614df681878961480e565b9050614e056020830186613db8565b614e126040830185613a04565b614e1f6060830184613a04565b9695505050505050565b7f57726f6e672053657276696365206665652070657263656e746167652076616c60008201527f7565000000000000000000000000000000000000000000000000000000000000602082015250565b6000614e85602283614165565b9150614e9082614e29565b604082019050919050565b60006020820190508181036000830152614eb481614e78565b9050919050565b7f57726f6e67206665652070657263656e746167652076616c7565000000000000600082015250565b6000614ef1601a83614165565b9150614efc82614ebb565b602082019050919050565b60006020820190508181036000830152614f2081614ee4565b9050919050565b60008190508160005260206000209050919050565b60006020601f8301049050919050565b600082821b905092915050565b600060088302614f897fffffffffffffffffffffffffffffffffffffffffffffffffffffffffffffffff82614f4c565b614f938683614f4c565b95508019841693508086168417925050509392505050565b6000819050919050565b6000614fd0614fcb614fc68461363e565b614fab565b61363e565b9050919050565b6000819050919050565b614fea83614fb5565b614ffe614ff682614fd7565b848454614f59565b825550505050565b600090565b615013615006565b61501e818484614fe1565b505050565b5b818110156150425761503760008261500b565b600181019050615024565b5050565b601f8211156150875761505881614f27565b61506184614f3c565b81016020851015615070578190505b61508461507c85614f3c565b830182615023565b50505b505050565b600082821c905092915050565b60006150aa6000198460080261508c565b1980831691505092915050565b60006150c38383615099565b9150826002028217905092915050565b6150dc82613bca565b67ffffffffffffffff8111156150f5576150f4613883565b5b6150ff825461496b565b61510a828285615046565b600060209050601f83116001811461513d576000841561512b578287015190505b61513585826150b7565b86555061519d565b601f19841661514b86614f27565b60005b828110156151735784890151825560018201915060208501945060208101905061514e565b86831015615190578489015161518c601f891682615099565b8355505b6001600288020188555050505b505050505050565b600082905092915050565b6151ba83836151a5565b67ffffffffffffffff8111156151d3576151d2613883565b5b6151dd825461496b565b6151e8828285615046565b6000601f8311600181146152175760008415615205578287013590505b61520f85826150b7565b865550615277565b601f19841661522586614f27565b60005b8281101561524d57848901358255600182019150602085019450602081019050615228565b8683101561526a5784890135615266601f891682615099565b8355505b6001600288020188555050505b50505050505050565b6000602082019050818103600083015261529b81848661480e565b90509392505050565b50565b60006152b4600083614208565b91506152bf826152a4565b600082019050919050565b60006152d5826152a7565b9150819050919050565b7f436f756c646e27742073656e6420657468657200000000000000000000000000600082015250565b6000615315601383614165565b9150615320826152df565b602082019050919050565b6000602082019050818103600083015261534481615308565b9050919050565b600082905092915050565b601f8211156153975761536881614bc7565b61537184614f3c565b81016020851015615380578190505b61539461538c85614f3c565b830182615023565b50505b505050565b6153a6838361534b565b67ffffffffffffffff8111156153bf576153be613883565b5b6153c9825461496b565b6153d4828285615356565b6000601f83116001811461540357600084156153f1578287013590505b6153fb85826150b7565b865550615463565b601f19841661541186614bc7565b60005b8281101561543957848901358255600182019150602085019450602081019050615414565b868310156154565784890135615452601f891682615099565b8355505b6001600288020188555050505b50505050505050565b6000608082019050818103600083015261548781878961480e565b905061549660208301866135d4565b6154a36040830185613a13565b81810360608301526154b58184614bdc565b9050969550505050505056fea2646970667358221220239aa6c0dac1f9c784be3c9bd3e274cfb7a920af3df22b4d2c19986c77010ece64736f6c63430008180033","opcodes":"PUSH1 0x80 PUSH1 0x40 MSTORE PUSH1 0xB PUSH1 0x4 PUSH1 0x0 PUSH2 0x100 EXP DUP2 SLOAD DUP2 PUSH1 0xFF MUL NOT AND SWAP1 DUP4 PUSH1 0xFF AND MUL OR SWAP1 SSTORE POP PUSH1 0x1 PUSH1 0x4 PUSH1 0x1 PUSH2 0x100 EXP DUP2 SLOAD DUP2 PUSH1 0xFF MUL NOT AND SWAP1 DUP4 PUSH1 0xFF AND MUL OR SWAP1 SSTORE POP PUSH1 0x1 PUSH1 0x4 PUSH1 0x2 PUSH2 0x100 EXP DUP2 SLOAD DUP2 PUSH1 0xFF MUL NOT AND SWAP1 DUP4 PUSH1 0xFF AND MUL OR SWAP1 SSTORE POP CALLER PUSH1 0x4 PUSH1 0x3 PUSH2 0x100 EXP DUP2 SLOAD DUP2 PUSH20 0xFFFFFFFFFFFFFFFFFFFFFFFFFFFFFFFFFFFFFFFF MUL NOT AND SWAP1 DUP4 PUSH20 0xFFFFFFFFFFFFFFFFFFFFFFFFFFFFFFFFFFFFFFFF AND MUL OR SWAP1 SSTORE POP CALLER PUSH1 0x5 PUSH1 0x0 PUSH2 0x100 EXP DUP2 SLOAD DUP2 PUSH20 0xFFFFFFFFFFFFFFFFFFFFFFFFFFFFFFFFFFFFFFFF MUL NOT AND SWAP1 DUP4 PUSH20 0xFFFFFFFFFFFFFFFFFFFFFFFFFFFFFFFFFFFFFFFF AND MUL OR SWAP1 SSTORE POP CALLER PUSH1 0x6 PUSH1 0x0 PUSH2 0x100 EXP DUP2 SLOAD DUP2 PUSH20 0xFFFFFFFFFFFFFFFFFFFFFFFFFFFFFFFFFFFFFFFF MUL NOT AND SWAP1 DUP4 PUSH20 0xFFFFFFFFFFFFFFFFFFFFFFFFFFFFFFFFFFFFFFFF AND MUL OR SWAP1 SSTORE POP CALLVALUE DUP1 ISZERO PUSH3 0x128 JUMPI PUSH1 0x0 DUP1 REVERT JUMPDEST POP PUSH1 0x40 MLOAD PUSH3 0x590A CODESIZE SUB DUP1 PUSH3 0x590A DUP4 CODECOPY DUP2 DUP2 ADD PUSH1 0x40 MSTORE DUP2 ADD SWAP1 PUSH3 0x14E SWAP2 SWAP1 PUSH3 0x38E JUMP JUMPDEST DUP2 PUSH1 0x0 PUSH20 0xFFFFFFFFFFFFFFFFFFFFFFFFFFFFFFFFFFFFFFFF AND DUP2 PUSH20 0xFFFFFFFFFFFFFFFFFFFFFFFFFFFFFFFFFFFFFFFF AND SUB PUSH3 0x1C4 JUMPI PUSH1 0x0 PUSH1 0x40 MLOAD PUSH32 0x1E4FBDF700000000000000000000000000000000000000000000000000000000 DUP2 MSTORE PUSH1 0x4 ADD PUSH3 0x1BB SWAP2 SWAP1 PUSH3 0x3E6 JUMP JUMPDEST PUSH1 0x40 MLOAD DUP1 SWAP2 SUB SWAP1 REVERT JUMPDEST PUSH3 0x1D5 DUP2 PUSH3 0x260 PUSH1 0x20 SHL PUSH1 0x20 SHR JUMP JUMPDEST POP DUP2 PUSH1 0x1 PUSH1 0x0 PUSH2 0x100 EXP DUP2 SLOAD DUP2 PUSH20 0xFFFFFFFFFFFFFFFFFFFFFFFFFFFFFFFFFFFFFFFF MUL NOT AND SWAP1 DUP4 PUSH20 0xFFFFFFFFFFFFFFFFFFFFFFFFFFFFFFFFFFFFFFFF AND MUL OR SWAP1 SSTORE POP DUP1 PUSH1 0x2 PUSH1 0x0 PUSH2 0x100 EXP DUP2 SLOAD DUP2 PUSH20 0xFFFFFFFFFFFFFFFFFFFFFFFFFFFFFFFFFFFFFFFF MUL NOT AND SWAP1 DUP4 PUSH20 0xFFFFFFFFFFFFFFFFFFFFFFFFFFFFFFFFFFFFFFFF AND MUL OR SWAP1 SSTORE POP POP POP PUSH3 0x403 JUMP JUMPDEST PUSH1 0x0 DUP1 PUSH1 0x0 SWAP1 SLOAD SWAP1 PUSH2 0x100 EXP SWAP1 DIV PUSH20 0xFFFFFFFFFFFFFFFFFFFFFFFFFFFFFFFFFFFFFFFF AND SWAP1 POP DUP2 PUSH1 0x0 DUP1 PUSH2 0x100 EXP DUP2 SLOAD DUP2 PUSH20 0xFFFFFFFFFFFFFFFFFFFFFFFFFFFFFFFFFFFFFFFF MUL NOT AND SWAP1 DUP4 PUSH20 0xFFFFFFFFFFFFFFFFFFFFFFFFFFFFFFFFFFFFFFFF AND MUL OR SWAP1 SSTORE POP DUP2 PUSH20 0xFFFFFFFFFFFFFFFFFFFFFFFFFFFFFFFFFFFFFFFF AND DUP2 PUSH20 0xFFFFFFFFFFFFFFFFFFFFFFFFFFFFFFFFFFFFFFFF AND PUSH32 0x8BE0079C531659141344CD1FD0A4F28419497F9722A3DAAFE3B4186F6B6457E0 PUSH1 0x40 MLOAD PUSH1 0x40 MLOAD DUP1 SWAP2 SUB SWAP1 LOG3 POP POP JUMP JUMPDEST PUSH1 0x0 DUP1 REVERT JUMPDEST PUSH1 0x0 PUSH20 0xFFFFFFFFFFFFFFFFFFFFFFFFFFFFFFFFFFFFFFFF DUP3 AND SWAP1 POP SWAP2 SWAP1 POP JUMP JUMPDEST PUSH1 0x0 PUSH3 0x356 DUP3 PUSH3 0x329 JUMP JUMPDEST SWAP1 POP SWAP2 SWAP1 POP JUMP JUMPDEST PUSH3 0x368 DUP2 PUSH3 0x349 JUMP JUMPDEST DUP2 EQ PUSH3 0x374 JUMPI PUSH1 0x0 DUP1 REVERT JUMPDEST POP JUMP JUMPDEST PUSH1 0x0 DUP2 MLOAD SWAP1 POP PUSH3 0x388 DUP2 PUSH3 0x35D JUMP JUMPDEST SWAP3 SWAP2 POP POP JUMP JUMPDEST PUSH1 0x0 DUP1 PUSH1 0x40 DUP4 DUP6 SUB SLT ISZERO PUSH3 0x3A8 JUMPI PUSH3 0x3A7 PUSH3 0x324 JUMP JUMPDEST JUMPDEST PUSH1 0x0 PUSH3 0x3B8 DUP6 DUP3 DUP7 ADD PUSH3 0x377 JUMP JUMPDEST SWAP3 POP POP PUSH1 0x20 PUSH3 0x3CB DUP6 DUP3 DUP7 ADD PUSH3 0x377 JUMP JUMPDEST SWAP2 POP POP SWAP3 POP SWAP3 SWAP1 POP JUMP JUMPDEST PUSH3 0x3E0 DUP2 PUSH3 0x349 JUMP JUMPDEST DUP3 MSTORE POP POP JUMP JUMPDEST PUSH1 0x0 PUSH1 0x20 DUP3 ADD SWAP1 POP PUSH3 0x3FD PUSH1 0x0 DUP4 ADD DUP5 PUSH3 0x3D5 JUMP JUMPDEST SWAP3 SWAP2 POP POP JUMP JUMPDEST PUSH2 0x54F7 DUP1 PUSH3 0x413 PUSH1 0x0 CODECOPY PUSH1 0x0 RETURN INVALID PUSH1 0x80 PUSH1 0x40 MSTORE PUSH1 0x4 CALLDATASIZE LT PUSH2 0x1E3 JUMPI PUSH1 0x0 CALLDATALOAD PUSH1 0xE0 SHR DUP1 PUSH4 0x715018A6 GT PUSH2 0x102 JUMPI DUP1 PUSH4 0xB91429A8 GT PUSH2 0x95 JUMPI DUP1 PUSH4 0xE4709969 GT PUSH2 0x64 JUMPI DUP1 PUSH4 0xE4709969 EQ PUSH2 0x682 JUMPI DUP1 PUSH4 0xEAB79B7D EQ PUSH2 0x6AB JUMPI DUP1 PUSH4 0xF2FDE38B EQ PUSH2 0x6D4 JUMPI DUP1 PUSH4 0xF901B0C3 EQ PUSH2 0x6FD JUMPI PUSH2 0x1E3 JUMP JUMPDEST DUP1 PUSH4 0xB91429A8 EQ PUSH2 0x5EE JUMPI DUP1 PUSH4 0xD4C770CF EQ PUSH2 0x619 JUMPI DUP1 PUSH4 0xD5AC395A EQ PUSH2 0x642 JUMPI DUP1 PUSH4 0xD65AB5F2 EQ PUSH2 0x66B JUMPI PUSH2 0x1E3 JUMP JUMPDEST DUP1 PUSH4 0xA7C3324D GT PUSH2 0xD1 JUMPI DUP1 PUSH4 0xA7C3324D EQ PUSH2 0x548 JUMPI DUP1 PUSH4 0xA9B99AF5 EQ PUSH2 0x571 JUMPI DUP1 PUSH4 0xAE38A8B9 EQ PUSH2 0x59A JUMPI DUP1 PUSH4 0xAFAD745A EQ PUSH2 0x5C5 JUMPI PUSH2 0x1E3 JUMP JUMPDEST DUP1 PUSH4 0x715018A6 EQ PUSH2 0x4B2 JUMPI DUP1 PUSH4 0x8DA5CB5B EQ PUSH2 0x4C9 JUMPI DUP1 PUSH4 0x900B7B3F EQ PUSH2 0x4F4 JUMPI DUP1 PUSH4 0xA001ECDD EQ PUSH2 0x51D JUMPI PUSH2 0x1E3 JUMP JUMPDEST DUP1 PUSH4 0x3B9FE1EE GT PUSH2 0x17A JUMPI DUP1 PUSH4 0x595DC897 GT PUSH2 0x149 JUMPI DUP1 PUSH4 0x595DC897 EQ PUSH2 0x408 JUMPI DUP1 PUSH4 0x603EF649 EQ PUSH2 0x431 JUMPI DUP1 PUSH4 0x6518A0A9 EQ PUSH2 0x45C JUMPI DUP1 PUSH4 0x6F9FB98A EQ PUSH2 0x487 JUMPI PUSH2 0x1E3 JUMP JUMPDEST DUP1 PUSH4 0x3B9FE1EE EQ PUSH2 0x344 JUMPI DUP1 PUSH4 0x3FAFAC92 EQ PUSH2 0x36F JUMPI DUP1 PUSH4 0x41275358 EQ PUSH2 0x3B4 JUMPI DUP1 PUSH4 0x41581768 EQ PUSH2 0x3DF JUMPI PUSH2 0x1E3 JUMP JUMPDEST DUP1 PUSH4 0x159DC634 GT PUSH2 0x1B6 JUMPI DUP1 PUSH4 0x159DC634 EQ PUSH2 0x288 JUMPI DUP1 PUSH4 0x1C2DB192 EQ PUSH2 0x2B3 JUMPI DUP1 PUSH4 0x2014E5D1 EQ PUSH2 0x2DC JUMPI DUP1 PUSH4 0x30EFABD4 EQ PUSH2 0x307 JUMPI PUSH2 0x1E3 JUMP JUMPDEST DUP1 PUSH4 0x4C15B58 EQ PUSH2 0x1E8 JUMPI DUP1 PUSH4 0x5B1137B EQ PUSH2 0x213 JUMPI DUP1 PUSH4 0xC2F915E EQ PUSH2 0x22F JUMPI DUP1 PUSH4 0xD62D031 EQ PUSH2 0x26C JUMPI JUMPDEST PUSH1 0x0 DUP1 REVERT JUMPDEST CALLVALUE DUP1 ISZERO PUSH2 0x1F4 JUMPI PUSH1 0x0 DUP1 REVERT JUMPDEST POP PUSH2 0x1FD PUSH2 0x726 JUMP JUMPDEST PUSH1 0x40 MLOAD PUSH2 0x20A SWAP2 SWAP1 PUSH2 0x35E3 JUMP JUMPDEST PUSH1 0x40 MLOAD DUP1 SWAP2 SUB SWAP1 RETURN JUMPDEST PUSH2 0x22D PUSH1 0x4 DUP1 CALLDATASIZE SUB DUP2 ADD SWAP1 PUSH2 0x228 SWAP2 SWAP1 PUSH2 0x3674 JUMP JUMPDEST PUSH2 0x74C JUMP JUMPDEST STOP JUMPDEST CALLVALUE DUP1 ISZERO PUSH2 0x23B JUMPI PUSH1 0x0 DUP1 REVERT JUMPDEST POP PUSH2 0x256 PUSH1 0x4 DUP1 CALLDATASIZE SUB DUP2 ADD SWAP1 PUSH2 0x251 SWAP2 SWAP1 PUSH2 0x3719 JUMP JUMPDEST PUSH2 0x79D JUMP JUMPDEST PUSH1 0x40 MLOAD PUSH2 0x263 SWAP2 SWAP1 PUSH2 0x3781 JUMP JUMPDEST PUSH1 0x40 MLOAD DUP1 SWAP2 SUB SWAP1 RETURN JUMPDEST PUSH2 0x286 PUSH1 0x4 DUP1 CALLDATASIZE SUB DUP2 ADD SWAP1 PUSH2 0x281 SWAP2 SWAP1 PUSH2 0x37C0 JUMP JUMPDEST PUSH2 0x807 JUMP JUMPDEST STOP JUMPDEST CALLVALUE DUP1 ISZERO PUSH2 0x294 JUMPI PUSH1 0x0 DUP1 REVERT JUMPDEST POP PUSH2 0x29D PUSH2 0x1007 JUMP JUMPDEST PUSH1 0x40 MLOAD PUSH2 0x2AA SWAP2 SWAP1 PUSH2 0x3825 JUMP JUMPDEST PUSH1 0x40 MLOAD DUP1 SWAP2 SUB SWAP1 RETURN JUMPDEST CALLVALUE DUP1 ISZERO PUSH2 0x2BF JUMPI PUSH1 0x0 DUP1 REVERT JUMPDEST POP PUSH2 0x2DA PUSH1 0x4 DUP1 CALLDATASIZE SUB DUP2 ADD SWAP1 PUSH2 0x2D5 SWAP2 SWAP1 PUSH2 0x3840 JUMP JUMPDEST PUSH2 0x101A JUMP JUMPDEST STOP JUMPDEST CALLVALUE DUP1 ISZERO PUSH2 0x2E8 JUMPI PUSH1 0x0 DUP1 REVERT JUMPDEST POP PUSH2 0x2F1 PUSH2 0x1066 JUMP JUMPDEST PUSH1 0x40 MLOAD PUSH2 0x2FE SWAP2 SWAP1 PUSH2 0x3781 JUMP JUMPDEST PUSH1 0x40 MLOAD DUP1 SWAP2 SUB SWAP1 RETURN JUMPDEST CALLVALUE DUP1 ISZERO PUSH2 0x313 JUMPI PUSH1 0x0 DUP1 REVERT JUMPDEST POP PUSH2 0x32E PUSH1 0x4 DUP1 CALLDATASIZE SUB DUP2 ADD SWAP1 PUSH2 0x329 SWAP2 SWAP1 PUSH2 0x3719 JUMP JUMPDEST PUSH2 0x1079 JUMP JUMPDEST PUSH1 0x40 MLOAD PUSH2 0x33B SWAP2 SWAP1 PUSH2 0x3781 JUMP JUMPDEST PUSH1 0x40 MLOAD DUP1 SWAP2 SUB SWAP1 RETURN JUMPDEST CALLVALUE DUP1 ISZERO PUSH2 0x350 JUMPI PUSH1 0x0 DUP1 REVERT JUMPDEST POP PUSH2 0x359 PUSH2 0x10BF JUMP JUMPDEST PUSH1 0x40 MLOAD PUSH2 0x366 SWAP2 SWAP1 PUSH2 0x35E3 JUMP JUMPDEST PUSH1 0x40 MLOAD DUP1 SWAP2 SUB SWAP1 RETURN JUMPDEST CALLVALUE DUP1 ISZERO PUSH2 0x37B JUMPI PUSH1 0x0 DUP1 REVERT JUMPDEST POP PUSH2 0x396 PUSH1 0x4 DUP1 CALLDATASIZE SUB DUP2 ADD SWAP1 PUSH2 0x391 SWAP2 SWAP1 PUSH2 0x39AE JUMP JUMPDEST PUSH2 0x10E5 JUMP JUMPDEST PUSH1 0x40 MLOAD PUSH2 0x3AB SWAP10 SWAP9 SWAP8 SWAP7 SWAP6 SWAP5 SWAP4 SWAP3 SWAP2 SWAP1 PUSH2 0x3DC7 JUMP JUMPDEST PUSH1 0x40 MLOAD DUP1 SWAP2 SUB SWAP1 RETURN JUMPDEST CALLVALUE DUP1 ISZERO PUSH2 0x3C0 JUMPI PUSH1 0x0 DUP1 REVERT JUMPDEST POP PUSH2 0x3C9 PUSH2 0x18B1 JUMP JUMPDEST PUSH1 0x40 MLOAD PUSH2 0x3D6 SWAP2 SWAP1 PUSH2 0x35E3 JUMP JUMPDEST PUSH1 0x40 MLOAD DUP1 SWAP2 SUB SWAP1 RETURN JUMPDEST CALLVALUE DUP1 ISZERO PUSH2 0x3EB JUMPI PUSH1 0x0 DUP1 REVERT JUMPDEST POP PUSH2 0x406 PUSH1 0x4 DUP1 CALLDATASIZE SUB DUP2 ADD SWAP1 PUSH2 0x401 SWAP2 SWAP1 PUSH2 0x3840 JUMP JUMPDEST PUSH2 0x18D7 JUMP JUMPDEST STOP JUMPDEST CALLVALUE DUP1 ISZERO PUSH2 0x414 JUMPI PUSH1 0x0 DUP1 REVERT JUMPDEST POP PUSH2 0x42F PUSH1 0x4 DUP1 CALLDATASIZE SUB DUP2 ADD SWAP1 PUSH2 0x42A SWAP2 SWAP1 PUSH2 0x3840 JUMP JUMPDEST PUSH2 0x1923 JUMP JUMPDEST STOP JUMPDEST CALLVALUE DUP1 ISZERO PUSH2 0x43D JUMPI PUSH1 0x0 DUP1 REVERT JUMPDEST POP PUSH2 0x446 PUSH2 0x196F JUMP JUMPDEST PUSH1 0x40 MLOAD PUSH2 0x453 SWAP2 SWAP1 PUSH2 0x3825 JUMP JUMPDEST PUSH1 0x40 MLOAD DUP1 SWAP2 SUB SWAP1 RETURN JUMPDEST CALLVALUE DUP1 ISZERO PUSH2 0x468 JUMPI PUSH1 0x0 DUP1 REVERT JUMPDEST POP PUSH2 0x471 PUSH2 0x1982 JUMP JUMPDEST PUSH1 0x40 MLOAD PUSH2 0x47E SWAP2 SWAP1 PUSH2 0x3EB7 JUMP JUMPDEST PUSH1 0x40 MLOAD DUP1 SWAP2 SUB SWAP1 RETURN JUMPDEST CALLVALUE DUP1 ISZERO PUSH2 0x493 JUMPI PUSH1 0x0 DUP1 REVERT JUMPDEST POP PUSH2 0x49C PUSH2 0x1A10 JUMP JUMPDEST PUSH1 0x40 MLOAD PUSH2 0x4A9 SWAP2 SWAP1 PUSH2 0x3ED9 JUMP JUMPDEST PUSH1 0x40 MLOAD DUP1 SWAP2 SUB SWAP1 RETURN JUMPDEST CALLVALUE DUP1 ISZERO PUSH2 0x4BE JUMPI PUSH1 0x0 DUP1 REVERT JUMPDEST POP PUSH2 0x4C7 PUSH2 0x1A18 JUMP JUMPDEST STOP JUMPDEST CALLVALUE DUP1 ISZERO PUSH2 0x4D5 JUMPI PUSH1 0x0 DUP1 REVERT JUMPDEST POP PUSH2 0x4DE PUSH2 0x1A2C JUMP JUMPDEST PUSH1 0x40 MLOAD PUSH2 0x4EB SWAP2 SWAP1 PUSH2 0x35E3 JUMP JUMPDEST PUSH1 0x40 MLOAD DUP1 SWAP2 SUB SWAP1 RETURN JUMPDEST CALLVALUE DUP1 ISZERO PUSH2 0x500 JUMPI PUSH1 0x0 DUP1 REVERT JUMPDEST POP PUSH2 0x51B PUSH1 0x4 DUP1 CALLDATASIZE SUB DUP2 ADD SWAP1 PUSH2 0x516 SWAP2 SWAP1 PUSH2 0x3F20 JUMP JUMPDEST PUSH2 0x1A55 JUMP JUMPDEST STOP JUMPDEST CALLVALUE DUP1 ISZERO PUSH2 0x529 JUMPI PUSH1 0x0 DUP1 REVERT JUMPDEST POP PUSH2 0x532 PUSH2 0x1AC2 JUMP JUMPDEST PUSH1 0x40 MLOAD PUSH2 0x53F SWAP2 SWAP1 PUSH2 0x3825 JUMP JUMPDEST PUSH1 0x40 MLOAD DUP1 SWAP2 SUB SWAP1 RETURN JUMPDEST CALLVALUE DUP1 ISZERO PUSH2 0x554 JUMPI PUSH1 0x0 DUP1 REVERT JUMPDEST POP PUSH2 0x56F PUSH1 0x4 DUP1 CALLDATASIZE SUB DUP2 ADD SWAP1 PUSH2 0x56A SWAP2 SWAP1 PUSH2 0x3FB5 JUMP JUMPDEST PUSH2 0x1AD5 JUMP JUMPDEST STOP JUMPDEST CALLVALUE DUP1 ISZERO PUSH2 0x57D JUMPI PUSH1 0x0 DUP1 REVERT JUMPDEST POP PUSH2 0x598 PUSH1 0x4 DUP1 CALLDATASIZE SUB DUP2 ADD SWAP1 PUSH2 0x593 SWAP2 SWAP1 PUSH2 0x4055 JUMP JUMPDEST PUSH2 0x2305 JUMP JUMPDEST STOP JUMPDEST CALLVALUE DUP1 ISZERO PUSH2 0x5A6 JUMPI PUSH1 0x0 DUP1 REVERT JUMPDEST POP PUSH2 0x5AF PUSH2 0x26BB JUMP JUMPDEST PUSH1 0x40 MLOAD PUSH2 0x5BC SWAP2 SWAP1 PUSH2 0x35E3 JUMP JUMPDEST PUSH1 0x40 MLOAD DUP1 SWAP2 SUB SWAP1 RETURN JUMPDEST CALLVALUE DUP1 ISZERO PUSH2 0x5D1 JUMPI PUSH1 0x0 DUP1 REVERT JUMPDEST POP PUSH2 0x5EC PUSH1 0x4 DUP1 CALLDATASIZE SUB DUP2 ADD SWAP1 PUSH2 0x5E7 SWAP2 SWAP1 PUSH2 0x3F20 JUMP JUMPDEST PUSH2 0x26E1 JUMP JUMPDEST STOP JUMPDEST CALLVALUE DUP1 ISZERO PUSH2 0x5FA JUMPI PUSH1 0x0 DUP1 REVERT JUMPDEST POP PUSH2 0x603 PUSH2 0x274E JUMP JUMPDEST PUSH1 0x40 MLOAD PUSH2 0x610 SWAP2 SWAP1 PUSH2 0x35E3 JUMP JUMPDEST PUSH1 0x40 MLOAD DUP1 SWAP2 SUB SWAP1 RETURN JUMPDEST CALLVALUE DUP1 ISZERO PUSH2 0x625 JUMPI PUSH1 0x0 DUP1 REVERT JUMPDEST POP PUSH2 0x640 PUSH1 0x4 DUP1 CALLDATASIZE SUB DUP2 ADD SWAP1 PUSH2 0x63B SWAP2 SWAP1 PUSH2 0x3F20 JUMP JUMPDEST PUSH2 0x2774 JUMP JUMPDEST STOP JUMPDEST CALLVALUE DUP1 ISZERO PUSH2 0x64E JUMPI PUSH1 0x0 DUP1 REVERT JUMPDEST POP PUSH2 0x669 PUSH1 0x4 DUP1 CALLDATASIZE SUB DUP2 ADD SWAP1 PUSH2 0x664 SWAP2 SWAP1 PUSH2 0x3840 JUMP JUMPDEST PUSH2 0x27E1 JUMP JUMPDEST STOP JUMPDEST CALLVALUE DUP1 ISZERO PUSH2 0x677 JUMPI PUSH1 0x0 DUP1 REVERT JUMPDEST POP PUSH2 0x680 PUSH2 0x282D JUMP JUMPDEST STOP JUMPDEST CALLVALUE DUP1 ISZERO PUSH2 0x68E JUMPI PUSH1 0x0 DUP1 REVERT JUMPDEST POP PUSH2 0x6A9 PUSH1 0x4 DUP1 CALLDATASIZE SUB DUP2 ADD SWAP1 PUSH2 0x6A4 SWAP2 SWAP1 PUSH2 0x40DD JUMP JUMPDEST PUSH2 0x289D JUMP JUMPDEST STOP JUMPDEST CALLVALUE DUP1 ISZERO PUSH2 0x6B7 JUMPI PUSH1 0x0 DUP1 REVERT JUMPDEST POP PUSH2 0x6D2 PUSH1 0x4 DUP1 CALLDATASIZE SUB DUP2 ADD SWAP1 PUSH2 0x6CD SWAP2 SWAP1 PUSH2 0x3719 JUMP JUMPDEST PUSH2 0x2A40 JUMP JUMPDEST STOP JUMPDEST CALLVALUE DUP1 ISZERO PUSH2 0x6E0 JUMPI PUSH1 0x0 DUP1 REVERT JUMPDEST POP PUSH2 0x6FB PUSH1 0x4 DUP1 CALLDATASIZE SUB DUP2 ADD SWAP1 PUSH2 0x6F6 SWAP2 SWAP1 PUSH2 0x3840 JUMP JUMPDEST PUSH2 0x2AB2 JUMP JUMPDEST STOP JUMPDEST CALLVALUE DUP1 ISZERO PUSH2 0x709 JUMPI PUSH1 0x0 DUP1 REVERT JUMPDEST POP PUSH2 0x724 PUSH1 0x4 DUP1 CALLDATASIZE SUB DUP2 ADD SWAP1 PUSH2 0x71F SWAP2 SWAP1 PUSH2 0x3840 JUMP JUMPDEST PUSH2 0x2B38 JUMP JUMPDEST STOP JUMPDEST PUSH1 0x2 PUSH1 0x0 SWAP1 SLOAD SWAP1 PUSH2 0x100 EXP SWAP1 DIV PUSH20 0xFFFFFFFFFFFFFFFFFFFFFFFFFFFFFFFFFFFFFFFF AND DUP2 JUMP JUMPDEST SELFBALANCE DUP2 GT ISZERO PUSH2 0x78F JUMPI PUSH1 0x40 MLOAD PUSH32 0x8C379A000000000000000000000000000000000000000000000000000000000 DUP2 MSTORE PUSH1 0x4 ADD PUSH2 0x786 SWAP1 PUSH2 0x41E8 JUMP JUMPDEST PUSH1 0x40 MLOAD DUP1 SWAP2 SUB SWAP1 REVERT JUMPDEST PUSH2 0x799 DUP3 DUP3 PUSH2 0x2B84 JUMP JUMPDEST POP POP JUMP JUMPDEST PUSH1 0x0 DUP1 PUSH1 0x3 DUP5 DUP5 PUSH1 0x40 MLOAD PUSH2 0x7B2 SWAP3 SWAP2 SWAP1 PUSH2 0x4238 JUMP JUMPDEST SWAP1 DUP2 MSTORE PUSH1 0x20 ADD PUSH1 0x40 MLOAD DUP1 SWAP2 SUB SWAP1 KECCAK256 PUSH1 0xC ADD PUSH1 0x0 ADD DUP1 SLOAD SWAP1 POP PUSH1 0x3 DUP6 DUP6 PUSH1 0x40 MLOAD PUSH2 0x7DC SWAP3 SWAP2 SWAP1 PUSH2 0x4238 JUMP JUMPDEST SWAP1 DUP2 MSTORE PUSH1 0x20 ADD PUSH1 0x40 MLOAD DUP1 SWAP2 SUB SWAP1 KECCAK256 PUSH1 0x4 ADD PUSH1 0x0 ADD DUP1 SLOAD SWAP1 POP PUSH2 0x7FE SWAP2 SWAP1 PUSH2 0x4280 JUMP JUMPDEST GT SWAP1 POP SWAP3 SWAP2 POP POP JUMP JUMPDEST DUP1 DUP1 PUSH1 0x0 ADD SWAP1 PUSH2 0x817 SWAP2 SWAP1 PUSH2 0x42C3 JUMP JUMPDEST PUSH2 0x821 DUP3 DUP3 PUSH2 0x1079 JUMP JUMPDEST PUSH2 0x860 JUMPI PUSH1 0x40 MLOAD PUSH32 0x8C379A000000000000000000000000000000000000000000000000000000000 DUP2 MSTORE PUSH1 0x4 ADD PUSH2 0x857 SWAP1 PUSH2 0x4398 JUMP JUMPDEST PUSH1 0x40 MLOAD DUP1 SWAP2 SUB SWAP1 REVERT JUMPDEST PUSH1 0x6 PUSH1 0x14 SWAP1 SLOAD SWAP1 PUSH2 0x100 EXP SWAP1 DIV PUSH1 0xFF AND PUSH2 0x8AF JUMPI PUSH1 0x40 MLOAD PUSH32 0x8C379A000000000000000000000000000000000000000000000000000000000 DUP2 MSTORE PUSH1 0x4 ADD PUSH2 0x8A6 SWAP1 PUSH2 0x4404 JUMP JUMPDEST PUSH1 0x40 MLOAD DUP1 SWAP2 SUB SWAP1 REVERT JUMPDEST DUP3 DUP1 PUSH1 0x0 ADD SWAP1 PUSH2 0x8BF SWAP2 SWAP1 PUSH2 0x42C3 JUMP JUMPDEST PUSH1 0x3 DUP3 DUP3 PUSH1 0x40 MLOAD PUSH2 0x8D1 SWAP3 SWAP2 SWAP1 PUSH2 0x4238 JUMP JUMPDEST SWAP1 DUP2 MSTORE PUSH1 0x20 ADD PUSH1 0x40 MLOAD DUP1 SWAP2 SUB SWAP1 KECCAK256 PUSH1 0x0 ADD PUSH1 0x0 SWAP1 SLOAD SWAP1 PUSH2 0x100 EXP SWAP1 DIV PUSH1 0xFF AND PUSH2 0x92F JUMPI PUSH1 0x40 MLOAD PUSH32 0x8C379A000000000000000000000000000000000000000000000000000000000 DUP2 MSTORE PUSH1 0x4 ADD PUSH2 0x926 SWAP1 PUSH2 0x4470 JUMP JUMPDEST PUSH1 0x40 MLOAD DUP1 SWAP2 SUB SWAP1 REVERT JUMPDEST PUSH2 0x938 CALLER PUSH2 0x2C35 JUMP JUMPDEST PUSH2 0x977 JUMPI PUSH1 0x40 MLOAD PUSH32 0x8C379A000000000000000000000000000000000000000000000000000000000 DUP2 MSTORE PUSH1 0x4 ADD PUSH2 0x96E SWAP1 PUSH2 0x44DC JUMP JUMPDEST PUSH1 0x40 MLOAD DUP1 SWAP2 SUB SWAP1 REVERT JUMPDEST PUSH1 0x0 CALLVALUE GT PUSH2 0x9BA JUMPI PUSH1 0x40 MLOAD PUSH32 0x8C379A000000000000000000000000000000000000000000000000000000000 DUP2 MSTORE PUSH1 0x4 ADD PUSH2 0x9B1 SWAP1 PUSH2 0x4548 JUMP JUMPDEST PUSH1 0x40 MLOAD DUP1 SWAP2 SUB SWAP1 REVERT JUMPDEST PUSH1 0x3 DUP6 DUP1 PUSH1 0x0 ADD SWAP1 PUSH2 0x9CC SWAP2 SWAP1 PUSH2 0x42C3 JUMP JUMPDEST PUSH1 0x40 MLOAD PUSH2 0x9DA SWAP3 SWAP2 SWAP1 PUSH2 0x4238 JUMP JUMPDEST SWAP1 DUP2 MSTORE PUSH1 0x20 ADD PUSH1 0x40 MLOAD DUP1 SWAP2 SUB SWAP1 KECCAK256 PUSH1 0x1 ADD SLOAD CALLVALUE LT ISZERO PUSH2 0xA2E JUMPI PUSH1 0x40 MLOAD PUSH32 0x8C379A000000000000000000000000000000000000000000000000000000000 DUP2 MSTORE PUSH1 0x4 ADD PUSH2 0xA25 SWAP1 PUSH2 0x45DA JUMP JUMPDEST PUSH1 0x40 MLOAD DUP1 SWAP2 SUB SWAP1 REVERT JUMPDEST PUSH1 0x3 DUP6 DUP1 PUSH1 0x0 ADD SWAP1 PUSH2 0xA40 SWAP2 SWAP1 PUSH2 0x42C3 JUMP JUMPDEST PUSH1 0x40 MLOAD PUSH2 0xA4E SWAP3 SWAP2 SWAP1 PUSH2 0x4238 JUMP JUMPDEST SWAP1 DUP2 MSTORE PUSH1 0x20 ADD PUSH1 0x40 MLOAD DUP1 SWAP2 SUB SWAP1 KECCAK256 PUSH1 0x2 ADD SLOAD CALLVALUE GT ISZERO PUSH2 0xAA2 JUMPI PUSH1 0x40 MLOAD PUSH32 0x8C379A000000000000000000000000000000000000000000000000000000000 DUP2 MSTORE PUSH1 0x4 ADD PUSH2 0xA99 SWAP1 PUSH2 0x466C JUMP JUMPDEST PUSH1 0x40 MLOAD DUP1 SWAP2 SUB SWAP1 REVERT JUMPDEST PUSH1 0x0 DUP6 PUSH1 0x60 ADD PUSH1 0x20 DUP2 ADD SWAP1 PUSH2 0xAB7 SWAP2 SWAP1 PUSH2 0x46B8 JUMP JUMPDEST ISZERO PUSH2 0xBE4 JUMPI PUSH1 0x1 PUSH1 0x3 DUP8 DUP1 PUSH1 0x0 ADD SWAP1 PUSH2 0xAD0 SWAP2 SWAP1 PUSH2 0x42C3 JUMP JUMPDEST PUSH1 0x40 MLOAD PUSH2 0xADE SWAP3 SWAP2 SWAP1 PUSH2 0x4238 JUMP JUMPDEST SWAP1 DUP2 MSTORE PUSH1 0x20 ADD PUSH1 0x40 MLOAD DUP1 SWAP2 SUB SWAP1 KECCAK256 PUSH1 0x3 ADD SLOAD PUSH2 0xAFA SWAP2 SWAP1 PUSH2 0x46E5 JUMP JUMPDEST PUSH1 0x3 DUP8 DUP1 PUSH1 0x0 ADD SWAP1 PUSH2 0xB0C SWAP2 SWAP1 PUSH2 0x42C3 JUMP JUMPDEST PUSH1 0x40 MLOAD PUSH2 0xB1A SWAP3 SWAP2 SWAP1 PUSH2 0x4238 JUMP JUMPDEST SWAP1 DUP2 MSTORE PUSH1 0x20 ADD PUSH1 0x40 MLOAD DUP1 SWAP2 SUB SWAP1 KECCAK256 PUSH1 0x4 ADD PUSH1 0x0 ADD DUP1 SLOAD SWAP1 POP GT ISZERO PUSH2 0xB73 JUMPI PUSH1 0x40 MLOAD PUSH32 0x8C379A000000000000000000000000000000000000000000000000000000000 DUP2 MSTORE PUSH1 0x4 ADD PUSH2 0xB6A SWAP1 PUSH2 0x478B JUMP JUMPDEST PUSH1 0x40 MLOAD DUP1 SWAP2 SUB SWAP1 REVERT JUMPDEST PUSH2 0xBDD PUSH1 0x3 DUP8 DUP1 PUSH1 0x0 ADD SWAP1 PUSH2 0xB88 SWAP2 SWAP1 PUSH2 0x42C3 JUMP JUMPDEST PUSH1 0x40 MLOAD PUSH2 0xB96 SWAP3 SWAP2 SWAP1 PUSH2 0x4238 JUMP JUMPDEST SWAP1 DUP2 MSTORE PUSH1 0x20 ADD PUSH1 0x40 MLOAD DUP1 SWAP2 SUB SWAP1 KECCAK256 PUSH1 0x4 ADD CALLVALUE DUP9 DUP1 PUSH1 0x20 ADD SWAP1 PUSH2 0xBB8 SWAP2 SWAP1 PUSH2 0x47AB JUMP JUMPDEST DUP11 DUP1 PUSH1 0x40 ADD SWAP1 PUSH2 0xBC8 SWAP2 SWAP1 PUSH2 0x47AB JUMP JUMPDEST DUP13 DUP1 PUSH1 0x80 ADD SWAP1 PUSH2 0xBD8 SWAP2 SWAP1 PUSH2 0x47AB JUMP JUMPDEST PUSH2 0x2C6D JUMP JUMPDEST SWAP1 POP PUSH2 0xD08 JUMP JUMPDEST PUSH1 0x1 PUSH1 0x3 DUP8 DUP1 PUSH1 0x0 ADD SWAP1 PUSH2 0xBF8 SWAP2 SWAP1 PUSH2 0x42C3 JUMP JUMPDEST PUSH1 0x40 MLOAD PUSH2 0xC06 SWAP3 SWAP2 SWAP1 PUSH2 0x4238 JUMP JUMPDEST SWAP1 DUP2 MSTORE PUSH1 0x20 ADD PUSH1 0x40 MLOAD DUP1 SWAP2 SUB SWAP1 KECCAK256 PUSH1 0x3 ADD SLOAD PUSH2 0xC22 SWAP2 SWAP1 PUSH2 0x46E5 JUMP JUMPDEST PUSH1 0x3 DUP8 DUP1 PUSH1 0x0 ADD SWAP1 PUSH2 0xC34 SWAP2 SWAP1 PUSH2 0x42C3 JUMP JUMPDEST PUSH1 0x40 MLOAD PUSH2 0xC42 SWAP3 SWAP2 SWAP1 PUSH2 0x4238 JUMP JUMPDEST SWAP1 DUP2 MSTORE PUSH1 0x20 ADD PUSH1 0x40 MLOAD DUP1 SWAP2 SUB SWAP1 KECCAK256 PUSH1 0xC ADD PUSH1 0x0 ADD DUP1 SLOAD SWAP1 POP GT ISZERO PUSH2 0xC9B JUMPI PUSH1 0x40 MLOAD PUSH32 0x8C379A000000000000000000000000000000000000000000000000000000000 DUP2 MSTORE PUSH1 0x4 ADD PUSH2 0xC92 SWAP1 PUSH2 0x478B JUMP JUMPDEST PUSH1 0x40 MLOAD DUP1 SWAP2 SUB SWAP1 REVERT JUMPDEST PUSH2 0xD05 PUSH1 0x3 DUP8 DUP1 PUSH1 0x0 ADD SWAP1 PUSH2 0xCB0 SWAP2 SWAP1 PUSH2 0x42C3 JUMP JUMPDEST PUSH1 0x40 MLOAD PUSH2 0xCBE SWAP3 SWAP2 SWAP1 PUSH2 0x4238 JUMP JUMPDEST SWAP1 DUP2 MSTORE PUSH1 0x20 ADD PUSH1 0x40 MLOAD DUP1 SWAP2 SUB SWAP1 KECCAK256 PUSH1 0xC ADD CALLVALUE DUP9 DUP1 PUSH1 0x20 ADD SWAP1 PUSH2 0xCE0 SWAP2 SWAP1 PUSH2 0x47AB JUMP JUMPDEST DUP11 DUP1 PUSH1 0x40 ADD SWAP1 PUSH2 0xCF0 SWAP2 SWAP1 PUSH2 0x47AB JUMP JUMPDEST DUP13 DUP1 PUSH1 0x80 ADD SWAP1 PUSH2 0xD00 SWAP2 SWAP1 PUSH2 0x47AB JUMP JUMPDEST PUSH2 0x2C6D JUMP JUMPDEST SWAP1 POP JUMPDEST PUSH2 0xD10 PUSH2 0x3447 JUMP JUMPDEST DUP7 DUP1 PUSH1 0x20 ADD SWAP1 PUSH2 0xD20 SWAP2 SWAP1 PUSH2 0x47AB JUMP JUMPDEST DUP1 DUP1 PUSH1 0x1F ADD PUSH1 0x20 DUP1 SWAP2 DIV MUL PUSH1 0x20 ADD PUSH1 0x40 MLOAD SWAP1 DUP2 ADD PUSH1 0x40 MSTORE DUP1 SWAP4 SWAP3 SWAP2 SWAP1 DUP2 DUP2 MSTORE PUSH1 0x20 ADD DUP4 DUP4 DUP1 DUP3 DUP5 CALLDATACOPY PUSH1 0x0 DUP2 DUP5 ADD MSTORE PUSH1 0x1F NOT PUSH1 0x1F DUP3 ADD AND SWAP1 POP DUP1 DUP4 ADD SWAP3 POP POP POP POP POP POP POP DUP2 PUSH1 0x0 ADD DUP2 SWAP1 MSTORE POP DUP7 DUP1 PUSH1 0x40 ADD SWAP1 PUSH2 0xD7B SWAP2 SWAP1 PUSH2 0x47AB JUMP JUMPDEST DUP1 DUP1 PUSH1 0x1F ADD PUSH1 0x20 DUP1 SWAP2 DIV MUL PUSH1 0x20 ADD PUSH1 0x40 MLOAD SWAP1 DUP2 ADD PUSH1 0x40 MSTORE DUP1 SWAP4 SWAP3 SWAP2 SWAP1 DUP2 DUP2 MSTORE PUSH1 0x20 ADD DUP4 DUP4 DUP1 DUP3 DUP5 CALLDATACOPY PUSH1 0x0 DUP2 DUP5 ADD MSTORE PUSH1 0x1F NOT PUSH1 0x1F DUP3 ADD AND SWAP1 POP DUP1 DUP4 ADD SWAP3 POP POP POP POP POP POP POP DUP2 PUSH1 0x20 ADD DUP2 SWAP1 MSTORE POP DUP7 DUP1 PUSH1 0x80 ADD SWAP1 PUSH2 0xDD6 SWAP2 SWAP1 PUSH2 0x47AB JUMP JUMPDEST DUP1 DUP1 PUSH1 0x1F ADD PUSH1 0x20 DUP1 SWAP2 DIV MUL PUSH1 0x20 ADD PUSH1 0x40 MLOAD SWAP1 DUP2 ADD PUSH1 0x40 MSTORE DUP1 SWAP4 SWAP3 SWAP2 SWAP1 DUP2 DUP2 MSTORE PUSH1 0x20 ADD DUP4 DUP4 DUP1 DUP3 DUP5 CALLDATACOPY PUSH1 0x0 DUP2 DUP5 ADD MSTORE PUSH1 0x1F NOT PUSH1 0x1F DUP3 ADD AND SWAP1 POP DUP1 DUP4 ADD SWAP3 POP POP POP POP POP POP POP DUP2 PUSH1 0x40 ADD DUP2 SWAP1 MSTORE POP PUSH1 0x3 DUP8 DUP1 PUSH1 0x0 ADD SWAP1 PUSH2 0xE33 SWAP2 SWAP1 PUSH2 0x42C3 JUMP JUMPDEST PUSH1 0x40 MLOAD PUSH2 0xE41 SWAP3 SWAP2 SWAP1 PUSH2 0x4238 JUMP JUMPDEST SWAP1 DUP2 MSTORE PUSH1 0x20 ADD PUSH1 0x40 MLOAD DUP1 SWAP2 SUB SWAP1 KECCAK256 PUSH1 0x14 ADD PUSH1 0x0 SWAP1 SLOAD SWAP1 PUSH2 0x100 EXP SWAP1 DIV PUSH1 0x7 SIGNEXTEND DUP2 PUSH1 0x60 ADD SWAP1 PUSH1 0x7 SIGNEXTEND SWAP1 DUP2 PUSH1 0x7 SIGNEXTEND DUP2 MSTORE POP POP DUP7 DUP1 PUSH1 0xA0 ADD SWAP1 PUSH2 0xE81 SWAP2 SWAP1 PUSH2 0x47AB JUMP JUMPDEST DUP1 DUP1 PUSH1 0x1F ADD PUSH1 0x20 DUP1 SWAP2 DIV MUL PUSH1 0x20 ADD PUSH1 0x40 MLOAD SWAP1 DUP2 ADD PUSH1 0x40 MSTORE DUP1 SWAP4 SWAP3 SWAP2 SWAP1 DUP2 DUP2 MSTORE PUSH1 0x20 ADD DUP4 DUP4 DUP1 DUP3 DUP5 CALLDATACOPY PUSH1 0x0 DUP2 DUP5 ADD MSTORE PUSH1 0x1F NOT PUSH1 0x1F DUP3 ADD AND SWAP1 POP DUP1 DUP4 ADD SWAP3 POP POP POP POP POP POP POP DUP2 PUSH1 0x80 ADD DUP2 SWAP1 MSTORE POP CALLER PUSH20 0xFFFFFFFFFFFFFFFFFFFFFFFFFFFFFFFFFFFFFFFF AND DUP8 DUP1 PUSH1 0x0 ADD SWAP1 PUSH2 0xEF3 SWAP2 SWAP1 PUSH2 0x42C3 JUMP JUMPDEST PUSH1 0x40 MLOAD PUSH2 0xF01 SWAP3 SWAP2 SWAP1 PUSH2 0x4238 JUMP JUMPDEST PUSH1 0x40 MLOAD DUP1 SWAP2 SUB SWAP1 KECCAK256 PUSH32 0x1BA68E8DF7AE1E0DD153767B3BDAD5FC9E7469AE2210B7C067EF0A4477848DBC DUP10 DUP1 PUSH1 0x0 ADD SWAP1 PUSH2 0xF3A SWAP2 SWAP1 PUSH2 0x42C3 JUMP JUMPDEST CALLER CALLVALUE DUP14 PUSH1 0x60 ADD PUSH1 0x20 DUP2 ADD SWAP1 PUSH2 0xF4F SWAP2 SWAP1 PUSH2 0x46B8 JUMP JUMPDEST PUSH2 0xF8E JUMPI PUSH1 0x40 MLOAD DUP1 PUSH1 0x40 ADD PUSH1 0x40 MSTORE DUP1 PUSH1 0x4 DUP2 MSTORE PUSH1 0x20 ADD PUSH32 0x444F574E00000000000000000000000000000000000000000000000000000000 DUP2 MSTORE POP PUSH2 0xFC5 JUMP JUMPDEST PUSH1 0x40 MLOAD DUP1 PUSH1 0x40 ADD PUSH1 0x40 MSTORE DUP1 PUSH1 0x2 DUP2 MSTORE PUSH1 0x20 ADD PUSH32 0x5550000000000000000000000000000000000000000000000000000000000000 DUP2 MSTORE POP JUMPDEST DUP10 DUP10 PUSH1 0x0 ADD MLOAD DUP11 PUSH1 0x20 ADD MLOAD DUP12 PUSH1 0x60 ADD MLOAD DUP13 PUSH1 0x40 ADD MLOAD DUP14 PUSH1 0x80 ADD MLOAD PUSH1 0x40 MLOAD PUSH2 0xFF6 SWAP12 SWAP11 SWAP10 SWAP9 SWAP8 SWAP7 SWAP6 SWAP5 SWAP4 SWAP3 SWAP2 SWAP1 PUSH2 0x4874 JUMP JUMPDEST PUSH1 0x40 MLOAD DUP1 SWAP2 SUB SWAP1 LOG3 POP POP POP POP POP POP POP JUMP JUMPDEST PUSH1 0x4 PUSH1 0x1 SWAP1 SLOAD SWAP1 PUSH2 0x100 EXP SWAP1 DIV PUSH1 0xFF AND DUP2 JUMP JUMPDEST PUSH2 0x1022 PUSH2 0x2DED JUMP JUMPDEST DUP1 PUSH1 0x5 PUSH1 0x0 PUSH2 0x100 EXP DUP2 SLOAD DUP2 PUSH20 0xFFFFFFFFFFFFFFFFFFFFFFFFFFFFFFFFFFFFFFFF MUL NOT AND SWAP1 DUP4 PUSH20 0xFFFFFFFFFFFFFFFFFFFFFFFFFFFFFFFFFFFFFFFF AND MUL OR SWAP1 SSTORE POP POP JUMP JUMPDEST PUSH1 0x6 PUSH1 0x14 SWAP1 SLOAD SWAP1 PUSH2 0x100 EXP SWAP1 DIV PUSH1 0xFF AND DUP2 JUMP JUMPDEST PUSH1 0x0 DUP1 PUSH1 0x0 PUSH1 0x3 DUP6 DUP6 PUSH1 0x40 MLOAD PUSH2 0x1090 SWAP3 SWAP2 SWAP1 PUSH2 0x4238 JUMP JUMPDEST SWAP1 DUP2 MSTORE PUSH1 0x20 ADD PUSH1 0x40 MLOAD DUP1 SWAP2 SUB SWAP1 KECCAK256 PUSH1 0x0 ADD PUSH1 0x1 SWAP1 SLOAD SWAP1 PUSH2 0x100 EXP SWAP1 DIV PUSH1 0x3 SIGNEXTEND PUSH1 0x3 SIGNEXTEND EQ SWAP1 POP DUP1 SWAP2 POP POP SWAP3 SWAP2 POP POP JUMP JUMPDEST PUSH1 0x5 PUSH1 0x0 SWAP1 SLOAD SWAP1 PUSH2 0x100 EXP SWAP1 DIV PUSH20 0xFFFFFFFFFFFFFFFFFFFFFFFFFFFFFFFFFFFFFFFF AND DUP2 JUMP JUMPDEST PUSH1 0x3 DUP2 DUP1 MLOAD PUSH1 0x20 DUP2 ADD DUP3 ADD DUP1 MLOAD DUP5 DUP3 MSTORE PUSH1 0x20 DUP4 ADD PUSH1 0x20 DUP6 ADD KECCAK256 DUP2 DUP4 MSTORE DUP1 SWAP6 POP POP POP POP POP POP PUSH1 0x0 SWAP2 POP SWAP1 POP DUP1 PUSH1 0x0 ADD PUSH1 0x0 SWAP1 SLOAD SWAP1 PUSH2 0x100 EXP SWAP1 DIV PUSH1 0xFF AND SWAP1 DUP1 PUSH1 0x0 ADD PUSH1 0x1 SWAP1 SLOAD SWAP1 PUSH2 0x100 EXP SWAP1 DIV PUSH1 0x3 SIGNEXTEND SWAP1 DUP1 PUSH1 0x0 ADD PUSH1 0x5 SWAP1 SLOAD SWAP1 PUSH2 0x100 EXP SWAP1 DIV PUSH1 0x3 SIGNEXTEND SWAP1 DUP1 PUSH1 0x1 ADD SLOAD SWAP1 DUP1 PUSH1 0x2 ADD SLOAD SWAP1 DUP1 PUSH1 0x3 ADD SLOAD SWAP1 DUP1 PUSH1 0x4 ADD PUSH1 0x40 MLOAD DUP1 PUSH2 0x100 ADD PUSH1 0x40 MSTORE SWAP1 DUP2 PUSH1 0x0 DUP3 ADD DUP1 SLOAD DUP1 PUSH1 0x20 MUL PUSH1 0x20 ADD PUSH1 0x40 MLOAD SWAP1 DUP2 ADD PUSH1 0x40 MSTORE DUP1 SWAP3 SWAP2 SWAP1 DUP2 DUP2 MSTORE PUSH1 0x20 ADD DUP3 DUP1 SLOAD DUP1 ISZERO PUSH2 0x11B9 JUMPI PUSH1 0x20 MUL DUP3 ADD SWAP2 SWAP1 PUSH1 0x0 MSTORE PUSH1 0x20 PUSH1 0x0 KECCAK256 SWAP1 JUMPDEST DUP2 SLOAD DUP2 MSTORE PUSH1 0x20 ADD SWAP1 PUSH1 0x1 ADD SWAP1 DUP1 DUP4 GT PUSH2 0x11A5 JUMPI JUMPDEST POP POP POP POP POP DUP2 MSTORE PUSH1 0x20 ADD PUSH1 0x1 DUP3 ADD DUP1 SLOAD DUP1 PUSH1 0x20 MUL PUSH1 0x20 ADD PUSH1 0x40 MLOAD SWAP1 DUP2 ADD PUSH1 0x40 MSTORE DUP1 SWAP3 SWAP2 SWAP1 DUP2 DUP2 MSTORE PUSH1 0x20 ADD DUP3 DUP1 SLOAD DUP1 ISZERO PUSH2 0x1247 JUMPI PUSH1 0x20 MUL DUP3 ADD SWAP2 SWAP1 PUSH1 0x0 MSTORE PUSH1 0x20 PUSH1 0x0 KECCAK256 SWAP1 JUMPDEST DUP2 PUSH1 0x0 SWAP1 SLOAD SWAP1 PUSH2 0x100 EXP SWAP1 DIV PUSH20 0xFFFFFFFFFFFFFFFFFFFFFFFFFFFFFFFFFFFFFFFF AND PUSH20 0xFFFFFFFFFFFFFFFFFFFFFFFFFFFFFFFFFFFFFFFF AND DUP2 MSTORE PUSH1 0x20 ADD SWAP1 PUSH1 0x1 ADD SWAP1 DUP1 DUP4 GT PUSH2 0x11FD JUMPI JUMPDEST POP POP POP POP POP DUP2 MSTORE PUSH1 0x20 ADD PUSH1 0x2 DUP3 ADD DUP1 SLOAD DUP1 PUSH1 0x20 MUL PUSH1 0x20 ADD PUSH1 0x40 MLOAD SWAP1 DUP2 ADD PUSH1 0x40 MSTORE DUP1 SWAP3 SWAP2 SWAP1 DUP2 DUP2 MSTORE PUSH1 0x20 ADD PUSH1 0x0 SWAP1 JUMPDEST DUP3 DUP3 LT ISZERO PUSH2 0x1321 JUMPI DUP4 DUP3 SWAP1 PUSH1 0x0 MSTORE PUSH1 0x20 PUSH1 0x0 KECCAK256 ADD DUP1 SLOAD PUSH2 0x1294 SWAP1 PUSH2 0x496B JUMP JUMPDEST DUP1 PUSH1 0x1F ADD PUSH1 0x20 DUP1 SWAP2 DIV MUL PUSH1 0x20 ADD PUSH1 0x40 MLOAD SWAP1 DUP2 ADD PUSH1 0x40 MSTORE DUP1 SWAP3 SWAP2 SWAP1 DUP2 DUP2 MSTORE PUSH1 0x20 ADD DUP3 DUP1 SLOAD PUSH2 0x12C0 SWAP1 PUSH2 0x496B JUMP JUMPDEST DUP1 ISZERO PUSH2 0x130D JUMPI DUP1 PUSH1 0x1F LT PUSH2 0x12E2 JUMPI PUSH2 0x100 DUP1 DUP4 SLOAD DIV MUL DUP4 MSTORE SWAP2 PUSH1 0x20 ADD SWAP2 PUSH2 0x130D JUMP JUMPDEST DUP3 ADD SWAP2 SWAP1 PUSH1 0x0 MSTORE PUSH1 0x20 PUSH1 0x0 KECCAK256 SWAP1 JUMPDEST DUP2 SLOAD DUP2 MSTORE SWAP1 PUSH1 0x1 ADD SWAP1 PUSH1 0x20 ADD DUP1 DUP4 GT PUSH2 0x12F0 JUMPI DUP3 SWAP1 SUB PUSH1 0x1F AND DUP3 ADD SWAP2 JUMPDEST POP POP POP POP POP DUP2 MSTORE PUSH1 0x20 ADD SWAP1 PUSH1 0x1 ADD SWAP1 PUSH2 0x1275 JUMP JUMPDEST POP POP POP POP DUP2 MSTORE PUSH1 0x20 ADD PUSH1 0x3 DUP3 ADD DUP1 SLOAD DUP1 PUSH1 0x20 MUL PUSH1 0x20 ADD PUSH1 0x40 MLOAD SWAP1 DUP2 ADD PUSH1 0x40 MSTORE DUP1 SWAP3 SWAP2 SWAP1 DUP2 DUP2 MSTORE PUSH1 0x20 ADD PUSH1 0x0 SWAP1 JUMPDEST DUP3 DUP3 LT ISZERO PUSH2 0x13FA JUMPI DUP4 DUP3 SWAP1 PUSH1 0x0 MSTORE PUSH1 0x20 PUSH1 0x0 KECCAK256 ADD DUP1 SLOAD PUSH2 0x136D SWAP1 PUSH2 0x496B JUMP JUMPDEST DUP1 PUSH1 0x1F ADD PUSH1 0x20 DUP1 SWAP2 DIV MUL PUSH1 0x20 ADD PUSH1 0x40 MLOAD SWAP1 DUP2 ADD PUSH1 0x40 MSTORE DUP1 SWAP3 SWAP2 SWAP1 DUP2 DUP2 MSTORE PUSH1 0x20 ADD DUP3 DUP1 SLOAD PUSH2 0x1399 SWAP1 PUSH2 0x496B JUMP JUMPDEST DUP1 ISZERO PUSH2 0x13E6 JUMPI DUP1 PUSH1 0x1F LT PUSH2 0x13BB JUMPI PUSH2 0x100 DUP1 DUP4 SLOAD DIV MUL DUP4 MSTORE SWAP2 PUSH1 0x20 ADD SWAP2 PUSH2 0x13E6 JUMP JUMPDEST DUP3 ADD SWAP2 SWAP1 PUSH1 0x0 MSTORE PUSH1 0x20 PUSH1 0x0 KECCAK256 SWAP1 JUMPDEST DUP2 SLOAD DUP2 MSTORE SWAP1 PUSH1 0x1 ADD SWAP1 PUSH1 0x20 ADD DUP1 DUP4 GT PUSH2 0x13C9 JUMPI DUP3 SWAP1 SUB PUSH1 0x1F AND DUP3 ADD SWAP2 JUMPDEST POP POP POP POP POP DUP2 MSTORE PUSH1 0x20 ADD SWAP1 PUSH1 0x1 ADD SWAP1 PUSH2 0x134E JUMP JUMPDEST POP POP POP POP DUP2 MSTORE PUSH1 0x20 ADD PUSH1 0x4 DUP3 ADD DUP1 SLOAD DUP1 PUSH1 0x20 MUL PUSH1 0x20 ADD PUSH1 0x40 MLOAD SWAP1 DUP2 ADD PUSH1 0x40 MSTORE DUP1 SWAP3 SWAP2 SWAP1 DUP2 DUP2 MSTORE PUSH1 0x20 ADD PUSH1 0x0 SWAP1 JUMPDEST DUP3 DUP3 LT ISZERO PUSH2 0x14D3 JUMPI DUP4 DUP3 SWAP1 PUSH1 0x0 MSTORE PUSH1 0x20 PUSH1 0x0 KECCAK256 ADD DUP1 SLOAD PUSH2 0x1446 SWAP1 PUSH2 0x496B JUMP JUMPDEST DUP1 PUSH1 0x1F ADD PUSH1 0x20 DUP1 SWAP2 DIV MUL PUSH1 0x20 ADD PUSH1 0x40 MLOAD SWAP1 DUP2 ADD PUSH1 0x40 MSTORE DUP1 SWAP3 SWAP2 SWAP1 DUP2 DUP2 MSTORE PUSH1 0x20 ADD DUP3 DUP1 SLOAD PUSH2 0x1472 SWAP1 PUSH2 0x496B JUMP JUMPDEST DUP1 ISZERO PUSH2 0x14BF JUMPI DUP1 PUSH1 0x1F LT PUSH2 0x1494 JUMPI PUSH2 0x100 DUP1 DUP4 SLOAD DIV MUL DUP4 MSTORE SWAP2 PUSH1 0x20 ADD SWAP2 PUSH2 0x14BF JUMP JUMPDEST DUP3 ADD SWAP2 SWAP1 PUSH1 0x0 MSTORE PUSH1 0x20 PUSH1 0x0 KECCAK256 SWAP1 JUMPDEST DUP2 SLOAD DUP2 MSTORE SWAP1 PUSH1 0x1 ADD SWAP1 PUSH1 0x20 ADD DUP1 DUP4 GT PUSH2 0x14A2 JUMPI DUP3 SWAP1 SUB PUSH1 0x1F AND DUP3 ADD SWAP2 JUMPDEST POP POP POP POP POP DUP2 MSTORE PUSH1 0x20 ADD SWAP1 PUSH1 0x1 ADD SWAP1 PUSH2 0x1427 JUMP JUMPDEST POP POP POP POP DUP2 MSTORE PUSH1 0x20 ADD PUSH1 0x5 DUP3 ADD SLOAD DUP2 MSTORE PUSH1 0x20 ADD PUSH1 0x6 DUP3 ADD SLOAD DUP2 MSTORE PUSH1 0x20 ADD PUSH1 0x7 DUP3 ADD SLOAD DUP2 MSTORE POP POP SWAP1 DUP1 PUSH1 0xC ADD PUSH1 0x40 MLOAD DUP1 PUSH2 0x100 ADD PUSH1 0x40 MSTORE SWAP1 DUP2 PUSH1 0x0 DUP3 ADD DUP1 SLOAD DUP1 PUSH1 0x20 MUL PUSH1 0x20 ADD PUSH1 0x40 MLOAD SWAP1 DUP2 ADD PUSH1 0x40 MSTORE DUP1 SWAP3 SWAP2 SWAP1 DUP2 DUP2 MSTORE PUSH1 0x20 ADD DUP3 DUP1 SLOAD DUP1 ISZERO PUSH2 0x1559 JUMPI PUSH1 0x20 MUL DUP3 ADD SWAP2 SWAP1 PUSH1 0x0 MSTORE PUSH1 0x20 PUSH1 0x0 KECCAK256 SWAP1 JUMPDEST DUP2 SLOAD DUP2 MSTORE PUSH1 0x20 ADD SWAP1 PUSH1 0x1 ADD SWAP1 DUP1 DUP4 GT PUSH2 0x1545 JUMPI JUMPDEST POP POP POP POP POP DUP2 MSTORE PUSH1 0x20 ADD PUSH1 0x1 DUP3 ADD DUP1 SLOAD DUP1 PUSH1 0x20 MUL PUSH1 0x20 ADD PUSH1 0x40 MLOAD SWAP1 DUP2 ADD PUSH1 0x40 MSTORE DUP1 SWAP3 SWAP2 SWAP1 DUP2 DUP2 MSTORE PUSH1 0x20 ADD DUP3 DUP1 SLOAD DUP1 ISZERO PUSH2 0x15E7 JUMPI PUSH1 0x20 MUL DUP3 ADD SWAP2 SWAP1 PUSH1 0x0 MSTORE PUSH1 0x20 PUSH1 0x0 KECCAK256 SWAP1 JUMPDEST DUP2 PUSH1 0x0 SWAP1 SLOAD SWAP1 PUSH2 0x100 EXP SWAP1 DIV PUSH20 0xFFFFFFFFFFFFFFFFFFFFFFFFFFFFFFFFFFFFFFFF AND PUSH20 0xFFFFFFFFFFFFFFFFFFFFFFFFFFFFFFFFFFFFFFFF AND DUP2 MSTORE PUSH1 0x20 ADD SWAP1 PUSH1 0x1 ADD SWAP1 DUP1 DUP4 GT PUSH2 0x159D JUMPI JUMPDEST POP POP POP POP POP DUP2 MSTORE PUSH1 0x20 ADD PUSH1 0x2 DUP3 ADD DUP1 SLOAD DUP1 PUSH1 0x20 MUL PUSH1 0x20 ADD PUSH1 0x40 MLOAD SWAP1 DUP2 ADD PUSH1 0x40 MSTORE DUP1 SWAP3 SWAP2 SWAP1 DUP2 DUP2 MSTORE PUSH1 0x20 ADD PUSH1 0x0 SWAP1 JUMPDEST DUP3 DUP3 LT ISZERO PUSH2 0x16C1 JUMPI DUP4 DUP3 SWAP1 PUSH1 0x0 MSTORE PUSH1 0x20 PUSH1 0x0 KECCAK256 ADD DUP1 SLOAD PUSH2 0x1634 SWAP1 PUSH2 0x496B JUMP JUMPDEST DUP1 PUSH1 0x1F ADD PUSH1 0x20 DUP1 SWAP2 DIV MUL PUSH1 0x20 ADD PUSH1 0x40 MLOAD SWAP1 DUP2 ADD PUSH1 0x40 MSTORE DUP1 SWAP3 SWAP2 SWAP1 DUP2 DUP2 MSTORE PUSH1 0x20 ADD DUP3 DUP1 SLOAD PUSH2 0x1660 SWAP1 PUSH2 0x496B JUMP JUMPDEST DUP1 ISZERO PUSH2 0x16AD JUMPI DUP1 PUSH1 0x1F LT PUSH2 0x1682 JUMPI PUSH2 0x100 DUP1 DUP4 SLOAD DIV MUL DUP4 MSTORE SWAP2 PUSH1 0x20 ADD SWAP2 PUSH2 0x16AD JUMP JUMPDEST DUP3 ADD SWAP2 SWAP1 PUSH1 0x0 MSTORE PUSH1 0x20 PUSH1 0x0 KECCAK256 SWAP1 JUMPDEST DUP2 SLOAD DUP2 MSTORE SWAP1 PUSH1 0x1 ADD SWAP1 PUSH1 0x20 ADD DUP1 DUP4 GT PUSH2 0x1690 JUMPI DUP3 SWAP1 SUB PUSH1 0x1F AND DUP3 ADD SWAP2 JUMPDEST POP POP POP POP POP DUP2 MSTORE PUSH1 0x20 ADD SWAP1 PUSH1 0x1 ADD SWAP1 PUSH2 0x1615 JUMP JUMPDEST POP POP POP POP DUP2 MSTORE PUSH1 0x20 ADD PUSH1 0x3 DUP3 ADD DUP1 SLOAD DUP1 PUSH1 0x20 MUL PUSH1 0x20 ADD PUSH1 0x40 MLOAD SWAP1 DUP2 ADD PUSH1 0x40 MSTORE DUP1 SWAP3 SWAP2 SWAP1 DUP2 DUP2 MSTORE PUSH1 0x20 ADD PUSH1 0x0 SWAP1 JUMPDEST DUP3 DUP3 LT ISZERO PUSH2 0x179A JUMPI DUP4 DUP3 SWAP1 PUSH1 0x0 MSTORE PUSH1 0x20 PUSH1 0x0 KECCAK256 ADD DUP1 SLOAD PUSH2 0x170D SWAP1 PUSH2 0x496B JUMP JUMPDEST DUP1 PUSH1 0x1F ADD PUSH1 0x20 DUP1 SWAP2 DIV MUL PUSH1 0x20 ADD PUSH1 0x40 MLOAD SWAP1 DUP2 ADD PUSH1 0x40 MSTORE DUP1 SWAP3 SWAP2 SWAP1 DUP2 DUP2 MSTORE PUSH1 0x20 ADD DUP3 DUP1 SLOAD PUSH2 0x1739 SWAP1 PUSH2 0x496B JUMP JUMPDEST DUP1 ISZERO PUSH2 0x1786 JUMPI DUP1 PUSH1 0x1F LT PUSH2 0x175B JUMPI PUSH2 0x100 DUP1 DUP4 SLOAD DIV MUL DUP4 MSTORE SWAP2 PUSH1 0x20 ADD SWAP2 PUSH2 0x1786 JUMP JUMPDEST DUP3 ADD SWAP2 SWAP1 PUSH1 0x0 MSTORE PUSH1 0x20 PUSH1 0x0 KECCAK256 SWAP1 JUMPDEST DUP2 SLOAD DUP2 MSTORE SWAP1 PUSH1 0x1 ADD SWAP1 PUSH1 0x20 ADD DUP1 DUP4 GT PUSH2 0x1769 JUMPI DUP3 SWAP1 SUB PUSH1 0x1F AND DUP3 ADD SWAP2 JUMPDEST POP POP POP POP POP DUP2 MSTORE PUSH1 0x20 ADD SWAP1 PUSH1 0x1 ADD SWAP1 PUSH2 0x16EE JUMP JUMPDEST POP POP POP POP DUP2 MSTORE PUSH1 0x20 ADD PUSH1 0x4 DUP3 ADD DUP1 SLOAD DUP1 PUSH1 0x20 MUL PUSH1 0x20 ADD PUSH1 0x40 MLOAD SWAP1 DUP2 ADD PUSH1 0x40 MSTORE DUP1 SWAP3 SWAP2 SWAP1 DUP2 DUP2 MSTORE PUSH1 0x20 ADD PUSH1 0x0 SWAP1 JUMPDEST DUP3 DUP3 LT ISZERO PUSH2 0x1873 JUMPI DUP4 DUP3 SWAP1 PUSH1 0x0 MSTORE PUSH1 0x20 PUSH1 0x0 KECCAK256 ADD DUP1 SLOAD PUSH2 0x17E6 SWAP1 PUSH2 0x496B JUMP JUMPDEST DUP1 PUSH1 0x1F ADD PUSH1 0x20 DUP1 SWAP2 DIV MUL PUSH1 0x20 ADD PUSH1 0x40 MLOAD SWAP1 DUP2 ADD PUSH1 0x40 MSTORE DUP1 SWAP3 SWAP2 SWAP1 DUP2 DUP2 MSTORE PUSH1 0x20 ADD DUP3 DUP1 SLOAD PUSH2 0x1812 SWAP1 PUSH2 0x496B JUMP JUMPDEST DUP1 ISZERO PUSH2 0x185F JUMPI DUP1 PUSH1 0x1F LT PUSH2 0x1834 JUMPI PUSH2 0x100 DUP1 DUP4 SLOAD DIV MUL DUP4 MSTORE SWAP2 PUSH1 0x20 ADD SWAP2 PUSH2 0x185F JUMP JUMPDEST DUP3 ADD SWAP2 SWAP1 PUSH1 0x0 MSTORE PUSH1 0x20 PUSH1 0x0 KECCAK256 SWAP1 JUMPDEST DUP2 SLOAD DUP2 MSTORE SWAP1 PUSH1 0x1 ADD SWAP1 PUSH1 0x20 ADD DUP1 DUP4 GT PUSH2 0x1842 JUMPI DUP3 SWAP1 SUB PUSH1 0x1F AND DUP3 ADD SWAP2 JUMPDEST POP POP POP POP POP DUP2 MSTORE PUSH1 0x20 ADD SWAP1 PUSH1 0x1 ADD SWAP1 PUSH2 0x17C7 JUMP JUMPDEST POP POP POP POP DUP2 MSTORE PUSH1 0x20 ADD PUSH1 0x5 DUP3 ADD SLOAD DUP2 MSTORE PUSH1 0x20 ADD PUSH1 0x6 DUP3 ADD SLOAD DUP2 MSTORE PUSH1 0x20 ADD PUSH1 0x7 DUP3 ADD SLOAD DUP2 MSTORE POP POP SWAP1 DUP1 PUSH1 0x14 ADD PUSH1 0x0 SWAP1 SLOAD SWAP1 PUSH2 0x100 EXP SWAP1 DIV PUSH1 0x7 SIGNEXTEND SWAP1 POP DUP10 JUMP JUMPDEST PUSH1 0x4 PUSH1 0x3 SWAP1 SLOAD SWAP1 PUSH2 0x100 EXP SWAP1 DIV PUSH20 0xFFFFFFFFFFFFFFFFFFFFFFFFFFFFFFFFFFFFFFFF AND DUP2 JUMP JUMPDEST PUSH2 0x18DF PUSH2 0x2DED JUMP JUMPDEST DUP1 PUSH1 0x6 PUSH1 0x0 PUSH2 0x100 EXP DUP2 SLOAD DUP2 PUSH20 0xFFFFFFFFFFFFFFFFFFFFFFFFFFFFFFFFFFFFFFFF MUL NOT AND SWAP1 DUP4 PUSH20 0xFFFFFFFFFFFFFFFFFFFFFFFFFFFFFFFFFFFFFFFF AND MUL OR SWAP1 SSTORE POP POP JUMP JUMPDEST PUSH2 0x192B PUSH2 0x2DED JUMP JUMPDEST DUP1 PUSH1 0x4 PUSH1 0x3 PUSH2 0x100 EXP DUP2 SLOAD DUP2 PUSH20 0xFFFFFFFFFFFFFFFFFFFFFFFFFFFFFFFFFFFFFFFF MUL NOT AND SWAP1 DUP4 PUSH20 0xFFFFFFFFFFFFFFFFFFFFFFFFFFFFFFFFFFFFFFFF AND MUL OR SWAP1 SSTORE POP POP JUMP JUMPDEST PUSH1 0x4 PUSH1 0x2 SWAP1 SLOAD SWAP1 PUSH2 0x100 EXP SWAP1 DIV PUSH1 0xFF AND DUP2 JUMP JUMPDEST PUSH1 0x7 DUP1 SLOAD PUSH2 0x198F SWAP1 PUSH2 0x496B JUMP JUMPDEST DUP1 PUSH1 0x1F ADD PUSH1 0x20 DUP1 SWAP2 DIV MUL PUSH1 0x20 ADD PUSH1 0x40 MLOAD SWAP1 DUP2 ADD PUSH1 0x40 MSTORE DUP1 SWAP3 SWAP2 SWAP1 DUP2 DUP2 MSTORE PUSH1 0x20 ADD DUP3 DUP1 SLOAD PUSH2 0x19BB SWAP1 PUSH2 0x496B JUMP JUMPDEST DUP1 ISZERO PUSH2 0x1A08 JUMPI DUP1 PUSH1 0x1F LT PUSH2 0x19DD JUMPI PUSH2 0x100 DUP1 DUP4 SLOAD DIV MUL DUP4 MSTORE SWAP2 PUSH1 0x20 ADD SWAP2 PUSH2 0x1A08 JUMP JUMPDEST DUP3 ADD SWAP2 SWAP1 PUSH1 0x0 MSTORE PUSH1 0x20 PUSH1 0x0 KECCAK256 SWAP1 JUMPDEST DUP2 SLOAD DUP2 MSTORE SWAP1 PUSH1 0x1 ADD SWAP1 PUSH1 0x20 ADD DUP1 DUP4 GT PUSH2 0x19EB JUMPI DUP3 SWAP1 SUB PUSH1 0x1F AND DUP3 ADD SWAP2 JUMPDEST POP POP POP POP POP DUP2 JUMP JUMPDEST PUSH1 0x0 SELFBALANCE SWAP1 POP SWAP1 JUMP JUMPDEST PUSH2 0x1A20 PUSH2 0x2DED JUMP JUMPDEST PUSH2 0x1A2A PUSH1 0x0 PUSH2 0x2E74 JUMP JUMPDEST JUMP JUMPDEST PUSH1 0x0 DUP1 PUSH1 0x0 SWAP1 SLOAD SWAP1 PUSH2 0x100 EXP SWAP1 DIV PUSH20 0xFFFFFFFFFFFFFFFFFFFFFFFFFFFFFFFFFFFFFFFF AND SWAP1 POP SWAP1 JUMP JUMPDEST PUSH2 0x1A5D PUSH2 0x2DED JUMP JUMPDEST PUSH1 0x64 DUP2 PUSH1 0xFF AND GT ISZERO PUSH2 0x1AA4 JUMPI PUSH1 0x40 MLOAD PUSH32 0x8C379A000000000000000000000000000000000000000000000000000000000 DUP2 MSTORE PUSH1 0x4 ADD PUSH2 0x1A9B SWAP1 PUSH2 0x4A0E JUMP JUMPDEST PUSH1 0x40 MLOAD DUP1 SWAP2 SUB SWAP1 REVERT JUMPDEST DUP1 PUSH1 0x4 PUSH1 0x1 PUSH2 0x100 EXP DUP2 SLOAD DUP2 PUSH1 0xFF MUL NOT AND SWAP1 DUP4 PUSH1 0xFF AND MUL OR SWAP1 SSTORE POP POP JUMP JUMPDEST PUSH1 0x4 PUSH1 0x0 SWAP1 SLOAD SWAP1 PUSH2 0x100 EXP SWAP1 DIV PUSH1 0xFF AND DUP2 JUMP JUMPDEST PUSH1 0x1 PUSH1 0x0 SWAP1 SLOAD SWAP1 PUSH2 0x100 EXP SWAP1 DIV PUSH20 0xFFFFFFFFFFFFFFFFFFFFFFFFFFFFFFFFFFFFFFFF AND PUSH20 0xFFFFFFFFFFFFFFFFFFFFFFFFFFFFFFFFFFFFFFFF AND CALLER PUSH20 0xFFFFFFFFFFFFFFFFFFFFFFFFFFFFFFFFFFFFFFFF AND EQ DUP1 PUSH2 0x1B7E JUMPI POP PUSH1 0x2 PUSH1 0x0 SWAP1 SLOAD SWAP1 PUSH2 0x100 EXP SWAP1 DIV PUSH20 0xFFFFFFFFFFFFFFFFFFFFFFFFFFFFFFFFFFFFFFFF AND PUSH20 0xFFFFFFFFFFFFFFFFFFFFFFFFFFFFFFFFFFFFFFFF AND CALLER PUSH20 0xFFFFFFFFFFFFFFFFFFFFFFFFFFFFFFFFFFFFFFFF AND EQ JUMPDEST PUSH2 0x1BBD JUMPI PUSH1 0x40 MLOAD PUSH32 0x8C379A000000000000000000000000000000000000000000000000000000000 DUP2 MSTORE PUSH1 0x4 ADD PUSH2 0x1BB4 SWAP1 PUSH2 0x4A7A JUMP JUMPDEST PUSH1 0x40 MLOAD DUP1 SWAP2 SUB SWAP1 REVERT JUMPDEST DUP4 DUP4 PUSH1 0x3 DUP3 DUP3 PUSH1 0x40 MLOAD PUSH2 0x1BD1 SWAP3 SWAP2 SWAP1 PUSH2 0x4238 JUMP JUMPDEST SWAP1 DUP2 MSTORE PUSH1 0x20 ADD PUSH1 0x40 MLOAD DUP1 SWAP2 SUB SWAP1 KECCAK256 PUSH1 0x0 ADD PUSH1 0x0 SWAP1 SLOAD SWAP1 PUSH2 0x100 EXP SWAP1 DIV PUSH1 0xFF AND PUSH2 0x1C2F JUMPI PUSH1 0x40 MLOAD PUSH32 0x8C379A000000000000000000000000000000000000000000000000000000000 DUP2 MSTORE PUSH1 0x4 ADD PUSH2 0x1C26 SWAP1 PUSH2 0x4470 JUMP JUMPDEST PUSH1 0x40 MLOAD DUP1 SWAP2 SUB SWAP1 REVERT JUMPDEST PUSH1 0x0 PUSH1 0x3 DUP8 DUP8 PUSH1 0x40 MLOAD PUSH2 0x1C43 SWAP3 SWAP2 SWAP1 PUSH2 0x4238 JUMP JUMPDEST SWAP1 DUP2 MSTORE PUSH1 0x20 ADD PUSH1 0x40 MLOAD DUP1 SWAP2 SUB SWAP1 KECCAK256 SWAP1 POP PUSH1 0x0 DUP2 PUSH1 0x4 ADD PUSH1 0x0 ADD DUP1 SLOAD SWAP1 POP EQ DUP1 PUSH2 0x1C76 JUMPI POP PUSH1 0x0 DUP2 PUSH1 0xC ADD PUSH1 0x0 ADD DUP1 SLOAD SWAP1 POP EQ JUMPDEST DUP1 PUSH2 0x1CA8 JUMPI POP DUP1 PUSH1 0x0 ADD PUSH1 0x5 SWAP1 SLOAD SWAP1 PUSH2 0x100 EXP SWAP1 DIV PUSH1 0x3 SIGNEXTEND PUSH1 0x3 SIGNEXTEND DUP2 PUSH1 0x0 ADD PUSH1 0x1 SWAP1 SLOAD SWAP1 PUSH2 0x100 EXP SWAP1 DIV PUSH1 0x3 SIGNEXTEND PUSH1 0x3 SIGNEXTEND EQ JUMPDEST ISZERO PUSH2 0x1E95 JUMPI DUP1 PUSH1 0x0 ADD PUSH1 0x5 SWAP1 SLOAD SWAP1 PUSH2 0x100 EXP SWAP1 DIV PUSH1 0x3 SIGNEXTEND PUSH1 0x3 SIGNEXTEND DUP2 PUSH1 0x0 ADD PUSH1 0x1 SWAP1 SLOAD SWAP1 PUSH2 0x100 EXP SWAP1 DIV PUSH1 0x3 SIGNEXTEND PUSH1 0x3 SIGNEXTEND SUB PUSH2 0x1DEB JUMPI PUSH1 0x0 DUP2 PUSH1 0x4 ADD SWAP1 POP PUSH1 0x0 DUP3 PUSH1 0xC ADD SWAP1 POP PUSH1 0x0 DUP3 PUSH1 0x6 ADD SLOAD SWAP1 POP PUSH1 0x0 DUP3 PUSH1 0x6 ADD SLOAD SWAP1 POP PUSH2 0x1D0A DUP12 DUP12 DUP7 DUP13 PUSH2 0x2F38 JUMP JUMPDEST PUSH2 0x1D16 DUP12 DUP12 DUP6 DUP13 PUSH2 0x2F38 JUMP JUMPDEST PUSH32 0xD86802201C3BF5D79EF71027C49CDFDEE99FA298848917618BA148D098F15F74 DUP12 DUP12 DUP7 PUSH1 0x0 ADD DUP1 SLOAD SWAP1 POP DUP6 DUP9 PUSH1 0x6 ADD SLOAD DUP14 PUSH1 0x40 MLOAD PUSH2 0x1D5A SWAP7 SWAP6 SWAP5 SWAP4 SWAP3 SWAP2 SWAP1 PUSH2 0x4A9A JUMP JUMPDEST PUSH1 0x40 MLOAD DUP1 SWAP2 SUB SWAP1 LOG1 PUSH32 0xD86802201C3BF5D79EF71027C49CDFDEE99FA298848917618BA148D098F15F74 DUP12 DUP12 DUP6 PUSH1 0x0 ADD DUP1 SLOAD SWAP1 POP DUP5 DUP8 PUSH1 0x6 ADD SLOAD DUP14 PUSH1 0x40 MLOAD PUSH2 0x1DA6 SWAP7 SWAP6 SWAP5 SWAP4 SWAP3 SWAP2 SWAP1 PUSH2 0x4A9A JUMP JUMPDEST PUSH1 0x40 MLOAD DUP1 SWAP2 SUB SWAP1 LOG1 DUP4 PUSH1 0x0 ADD DUP1 SLOAD SWAP1 POP DUP5 PUSH1 0x6 ADD SLOAD EQ DUP1 ISZERO PUSH2 0x1DD2 JUMPI POP DUP3 PUSH1 0x0 ADD DUP1 SLOAD SWAP1 POP DUP4 PUSH1 0x6 ADD SLOAD EQ JUMPDEST ISZERO PUSH2 0x1DE2 JUMPI PUSH2 0x1DE1 DUP12 DUP12 PUSH2 0x30E0 JUMP JUMPDEST JUMPDEST POP POP POP POP PUSH2 0x1E8F JUMP JUMPDEST PUSH1 0x0 DUP1 DUP3 PUSH1 0xC ADD PUSH1 0x0 ADD DUP1 SLOAD SWAP1 POP EQ PUSH2 0x1E07 JUMPI DUP2 PUSH1 0xC ADD PUSH2 0x1E0C JUMP JUMPDEST DUP2 PUSH1 0x4 ADD JUMPDEST SWAP1 POP PUSH1 0x0 DUP2 PUSH1 0x6 ADD SLOAD SWAP1 POP PUSH2 0x1E23 DUP10 DUP10 DUP5 DUP11 PUSH2 0x2F38 JUMP JUMPDEST PUSH32 0xD86802201C3BF5D79EF71027C49CDFDEE99FA298848917618BA148D098F15F74 DUP10 DUP10 DUP5 PUSH1 0x0 ADD DUP1 SLOAD SWAP1 POP DUP5 DUP7 PUSH1 0x6 ADD SLOAD DUP12 PUSH1 0x40 MLOAD PUSH2 0x1E67 SWAP7 SWAP6 SWAP5 SWAP4 SWAP3 SWAP2 SWAP1 PUSH2 0x4A9A JUMP JUMPDEST PUSH1 0x40 MLOAD DUP1 SWAP2 SUB SWAP1 LOG1 DUP2 PUSH1 0x0 ADD DUP1 SLOAD SWAP1 POP DUP3 PUSH1 0x6 ADD SLOAD SUB PUSH2 0x1E8C JUMPI PUSH2 0x1E8B DUP10 DUP10 PUSH2 0x30E0 JUMP JUMPDEST JUMPDEST POP POP JUMPDEST POP PUSH2 0x22FD JUMP JUMPDEST PUSH1 0x0 DUP2 PUSH1 0xC ADD SWAP1 POP PUSH1 0x0 DUP3 PUSH1 0x4 ADD SWAP1 POP DUP3 PUSH1 0x0 ADD PUSH1 0x5 SWAP1 SLOAD SWAP1 PUSH2 0x100 EXP SWAP1 DIV PUSH1 0x3 SIGNEXTEND PUSH1 0x3 SIGNEXTEND DUP4 PUSH1 0x0 ADD PUSH1 0x1 SWAP1 SLOAD SWAP1 PUSH2 0x100 EXP SWAP1 DIV PUSH1 0x3 SIGNEXTEND PUSH1 0x3 SIGNEXTEND SLT ISZERO PUSH2 0x1EE2 JUMPI DUP3 PUSH1 0x4 ADD SWAP2 POP DUP3 PUSH1 0xC ADD SWAP1 POP JUMPDEST PUSH1 0x0 PUSH2 0x1EEE DUP4 DUP4 PUSH2 0x326C JUMP JUMPDEST SWAP1 POP PUSH1 0x0 DUP9 PUSH4 0xFFFFFFFF AND DUP3 PUSH1 0xE0 ADD MLOAD GT PUSH2 0x1F0D JUMPI DUP2 PUSH1 0xE0 ADD MLOAD PUSH2 0x1F15 JUMP JUMPDEST DUP9 PUSH4 0xFFFFFFFF AND JUMPDEST SWAP1 POP PUSH1 0x0 DUP2 DUP6 PUSH1 0x6 ADD SLOAD PUSH2 0x1F29 SWAP2 SWAP1 PUSH2 0x4280 JUMP JUMPDEST SWAP1 POP PUSH1 0x0 DUP6 PUSH1 0x6 ADD SLOAD SWAP1 POP JUMPDEST DUP2 DUP2 LT ISZERO PUSH2 0x21C0 JUMPI PUSH1 0x0 PUSH1 0x64 DUP8 PUSH1 0x5 ADD SLOAD PUSH1 0x64 DUP8 PUSH1 0x80 ADD MLOAD DUP11 PUSH1 0x0 ADD DUP7 DUP2 SLOAD DUP2 LT PUSH2 0x1F63 JUMPI PUSH2 0x1F62 PUSH2 0x4AF6 JUMP JUMPDEST JUMPDEST SWAP1 PUSH1 0x0 MSTORE PUSH1 0x20 PUSH1 0x0 KECCAK256 ADD SLOAD PUSH2 0x1F78 SWAP2 SWAP1 PUSH2 0x4B25 JUMP JUMPDEST PUSH2 0x1F82 SWAP2 SWAP1 PUSH2 0x4B25 JUMP JUMPDEST PUSH2 0x1F8C SWAP2 SWAP1 PUSH2 0x4B96 JUMP JUMPDEST PUSH2 0x1F96 SWAP2 SWAP1 PUSH2 0x4B96 JUMP JUMPDEST SWAP1 POP PUSH2 0x2061 DUP8 PUSH1 0x1 ADD DUP4 DUP2 SLOAD DUP2 LT PUSH2 0x1FB1 JUMPI PUSH2 0x1FB0 PUSH2 0x4AF6 JUMP JUMPDEST JUMPDEST SWAP1 PUSH1 0x0 MSTORE PUSH1 0x20 PUSH1 0x0 KECCAK256 ADD PUSH1 0x0 SWAP1 SLOAD SWAP1 PUSH2 0x100 EXP SWAP1 DIV PUSH20 0xFFFFFFFFFFFFFFFFFFFFFFFFFFFFFFFFFFFFFFFF AND PUSH1 0x64 PUSH1 0x4 PUSH1 0x0 SWAP1 SLOAD SWAP1 PUSH2 0x100 EXP SWAP1 DIV PUSH1 0xFF AND PUSH1 0xFF AND DUP11 PUSH1 0x0 ADD DUP7 DUP2 SLOAD DUP2 LT PUSH2 0x2007 JUMPI PUSH2 0x2006 PUSH2 0x4AF6 JUMP JUMPDEST JUMPDEST SWAP1 PUSH1 0x0 MSTORE PUSH1 0x20 PUSH1 0x0 KECCAK256 ADD SLOAD PUSH2 0x201C SWAP2 SWAP1 PUSH2 0x4B25 JUMP JUMPDEST PUSH2 0x2026 SWAP2 SWAP1 PUSH2 0x4B96 JUMP JUMPDEST DUP10 PUSH1 0x0 ADD DUP6 DUP2 SLOAD DUP2 LT PUSH2 0x203C JUMPI PUSH2 0x203B PUSH2 0x4AF6 JUMP JUMPDEST JUMPDEST SWAP1 PUSH1 0x0 MSTORE PUSH1 0x20 PUSH1 0x0 KECCAK256 ADD SLOAD PUSH2 0x2051 SWAP2 SWAP1 PUSH2 0x46E5 JUMP JUMPDEST DUP4 PUSH2 0x205C SWAP2 SWAP1 PUSH2 0x4280 JUMP JUMPDEST PUSH2 0x2B84 JUMP JUMPDEST DUP7 PUSH1 0x1 ADD DUP3 DUP2 SLOAD DUP2 LT PUSH2 0x2077 JUMPI PUSH2 0x2076 PUSH2 0x4AF6 JUMP JUMPDEST JUMPDEST SWAP1 PUSH1 0x0 MSTORE PUSH1 0x20 PUSH1 0x0 KECCAK256 ADD PUSH1 0x0 SWAP1 SLOAD SWAP1 PUSH2 0x100 EXP SWAP1 DIV PUSH20 0xFFFFFFFFFFFFFFFFFFFFFFFFFFFFFFFFFFFFFFFF AND PUSH20 0xFFFFFFFFFFFFFFFFFFFFFFFFFFFFFFFFFFFFFFFF AND PUSH32 0xC6F8D1369EF8A4D7D8373CD5079D27245FF35D49ABA7FF57DE55FBAF8D53813B DUP16 DUP16 DUP11 PUSH1 0x1 ADD DUP7 DUP2 SLOAD DUP2 LT PUSH2 0x20F1 JUMPI PUSH2 0x20F0 PUSH2 0x4AF6 JUMP JUMPDEST JUMPDEST SWAP1 PUSH1 0x0 MSTORE PUSH1 0x20 PUSH1 0x0 KECCAK256 ADD PUSH1 0x0 SWAP1 SLOAD SWAP1 PUSH2 0x100 EXP SWAP1 DIV PUSH20 0xFFFFFFFFFFFFFFFFFFFFFFFFFFFFFFFFFFFFFFFF AND DUP12 PUSH1 0x0 ADD DUP8 DUP2 SLOAD DUP2 LT PUSH2 0x2132 JUMPI PUSH2 0x2131 PUSH2 0x4AF6 JUMP JUMPDEST JUMPDEST SWAP1 PUSH1 0x0 MSTORE PUSH1 0x20 PUSH1 0x0 KECCAK256 ADD SLOAD DUP7 DUP14 PUSH1 0x4 ADD DUP10 DUP2 SLOAD DUP2 LT PUSH2 0x2154 JUMPI PUSH2 0x2153 PUSH2 0x4AF6 JUMP JUMPDEST JUMPDEST SWAP1 PUSH1 0x0 MSTORE PUSH1 0x20 PUSH1 0x0 KECCAK256 ADD PUSH1 0x4 PUSH1 0x0 SWAP1 SLOAD SWAP1 PUSH2 0x100 EXP SWAP1 DIV PUSH1 0xFF AND PUSH1 0x4 PUSH1 0x1 SWAP1 SLOAD SWAP1 PUSH2 0x100 EXP SWAP1 DIV PUSH1 0xFF AND PUSH1 0x40 MLOAD PUSH2 0x2192 SWAP9 SWAP8 SWAP7 SWAP6 SWAP5 SWAP4 SWAP3 SWAP2 SWAP1 PUSH2 0x4C60 JUMP JUMPDEST PUSH1 0x40 MLOAD DUP1 SWAP2 SUB SWAP1 LOG2 DUP1 DUP8 PUSH1 0x7 ADD SLOAD PUSH2 0x21AA SWAP2 SWAP1 PUSH2 0x4280 JUMP JUMPDEST DUP8 PUSH1 0x7 ADD DUP2 SWAP1 SSTORE POP POP DUP1 DUP1 PUSH1 0x1 ADD SWAP2 POP POP PUSH2 0x1F35 JUMP JUMPDEST POP PUSH32 0xD86802201C3BF5D79EF71027C49CDFDEE99FA298848917618BA148D098F15F74 DUP13 DUP13 DUP8 PUSH1 0x0 ADD DUP1 SLOAD SWAP1 POP DUP9 PUSH1 0x6 ADD SLOAD DUP6 DUP15 PUSH1 0x40 MLOAD PUSH2 0x2205 SWAP7 SWAP6 SWAP5 SWAP4 SWAP3 SWAP2 SWAP1 PUSH2 0x4A9A JUMP JUMPDEST PUSH1 0x40 MLOAD DUP1 SWAP2 SUB SWAP1 LOG1 DUP1 DUP6 PUSH1 0x6 ADD DUP2 SWAP1 SSTORE POP DUP5 PUSH1 0x0 ADD DUP1 SLOAD SWAP1 POP DUP6 PUSH1 0x6 ADD SLOAD SUB PUSH2 0x22F6 JUMPI PUSH2 0x2258 PUSH1 0x4 PUSH1 0x3 SWAP1 SLOAD SWAP1 PUSH2 0x100 EXP SWAP1 DIV PUSH20 0xFFFFFFFFFFFFFFFFFFFFFFFFFFFFFFFFFFFFFFFF AND DUP5 PUSH1 0xC0 ADD MLOAD PUSH2 0x2B84 JUMP JUMPDEST PUSH2 0x2288 PUSH1 0x5 PUSH1 0x0 SWAP1 SLOAD SWAP1 PUSH2 0x100 EXP SWAP1 DIV PUSH20 0xFFFFFFFFFFFFFFFFFFFFFFFFFFFFFFFFFFFFFFFF AND DUP5 PUSH1 0x40 ADD MLOAD PUSH2 0x2B84 JUMP JUMPDEST PUSH2 0x22B8 PUSH1 0x6 PUSH1 0x0 SWAP1 SLOAD SWAP1 PUSH2 0x100 EXP SWAP1 DIV PUSH20 0xFFFFFFFFFFFFFFFFFFFFFFFFFFFFFFFFFFFFFFFF AND DUP5 PUSH1 0x60 ADD MLOAD PUSH2 0x2B84 JUMP JUMPDEST PUSH2 0x22EB PUSH1 0x4 PUSH1 0x3 SWAP1 SLOAD SWAP1 PUSH2 0x100 EXP SWAP1 DIV PUSH20 0xFFFFFFFFFFFFFFFFFFFFFFFFFFFFFFFFFFFFFFFF AND PUSH2 0x22E6 PUSH2 0x1A10 JUMP JUMPDEST PUSH2 0x2B84 JUMP JUMPDEST PUSH2 0x22F5 DUP13 DUP13 PUSH2 0x30E0 JUMP JUMPDEST JUMPDEST POP POP POP POP POP POP JUMPDEST POP POP POP POP POP POP JUMP JUMPDEST PUSH1 0x1 PUSH1 0x0 SWAP1 SLOAD SWAP1 PUSH2 0x100 EXP SWAP1 DIV PUSH20 0xFFFFFFFFFFFFFFFFFFFFFFFFFFFFFFFFFFFFFFFF AND PUSH20 0xFFFFFFFFFFFFFFFFFFFFFFFFFFFFFFFFFFFFFFFF AND CALLER PUSH20 0xFFFFFFFFFFFFFFFFFFFFFFFFFFFFFFFFFFFFFFFF AND EQ DUP1 PUSH2 0x23AE JUMPI POP PUSH1 0x2 PUSH1 0x0 SWAP1 SLOAD SWAP1 PUSH2 0x100 EXP SWAP1 DIV PUSH20 0xFFFFFFFFFFFFFFFFFFFFFFFFFFFFFFFFFFFFFFFF AND PUSH20 0xFFFFFFFFFFFFFFFFFFFFFFFFFFFFFFFFFFFFFFFF AND CALLER PUSH20 0xFFFFFFFFFFFFFFFFFFFFFFFFFFFFFFFFFFFFFFFF AND EQ JUMPDEST PUSH2 0x23ED JUMPI PUSH1 0x40 MLOAD PUSH32 0x8C379A000000000000000000000000000000000000000000000000000000000 DUP2 MSTORE PUSH1 0x4 ADD PUSH2 0x23E4 SWAP1 PUSH2 0x4A7A JUMP JUMPDEST PUSH1 0x40 MLOAD DUP1 SWAP2 SUB SWAP1 REVERT JUMPDEST DUP5 DUP5 PUSH1 0x3 DUP3 DUP3 PUSH1 0x40 MLOAD PUSH2 0x2401 SWAP3 SWAP2 SWAP1 PUSH2 0x4238 JUMP JUMPDEST SWAP1 DUP2 MSTORE PUSH1 0x20 ADD PUSH1 0x40 MLOAD DUP1 SWAP2 SUB SWAP1 KECCAK256 PUSH1 0x0 ADD PUSH1 0x0 SWAP1 SLOAD SWAP1 PUSH2 0x100 EXP SWAP1 DIV PUSH1 0xFF AND PUSH2 0x245F JUMPI PUSH1 0x40 MLOAD PUSH32 0x8C379A000000000000000000000000000000000000000000000000000000000 DUP2 MSTORE PUSH1 0x4 ADD PUSH2 0x2456 SWAP1 PUSH2 0x4470 JUMP JUMPDEST PUSH1 0x40 MLOAD DUP1 SWAP2 SUB SWAP1 REVERT JUMPDEST PUSH1 0x0 PUSH1 0x3 DUP9 DUP9 PUSH1 0x40 MLOAD PUSH2 0x2473 SWAP3 SWAP2 SWAP1 PUSH2 0x4238 JUMP JUMPDEST SWAP1 DUP2 MSTORE PUSH1 0x20 ADD PUSH1 0x40 MLOAD DUP1 SWAP2 SUB SWAP1 KECCAK256 SWAP1 POP PUSH2 0x248D DUP9 DUP9 PUSH2 0x1079 JUMP JUMPDEST ISZERO PUSH2 0x25B2 JUMPI PUSH1 0x6 PUSH1 0x14 SWAP1 SLOAD SWAP1 PUSH2 0x100 EXP SWAP1 DIV PUSH1 0xFF AND PUSH2 0x24E1 JUMPI PUSH1 0x40 MLOAD PUSH32 0x8C379A000000000000000000000000000000000000000000000000000000000 DUP2 MSTORE PUSH1 0x4 ADD PUSH2 0x24D8 SWAP1 PUSH2 0x4D51 JUMP JUMPDEST PUSH1 0x40 MLOAD DUP1 SWAP2 SUB SWAP1 REVERT JUMPDEST DUP5 DUP2 PUSH1 0x0 ADD PUSH1 0x1 PUSH2 0x100 EXP DUP2 SLOAD DUP2 PUSH4 0xFFFFFFFF MUL NOT AND SWAP1 DUP4 PUSH1 0x3 SIGNEXTEND PUSH4 0xFFFFFFFF AND MUL OR SWAP1 SSTORE POP DUP6 DUP2 PUSH1 0x14 ADD PUSH1 0x0 PUSH2 0x100 EXP DUP2 SLOAD DUP2 PUSH8 0xFFFFFFFFFFFFFFFF MUL NOT AND SWAP1 DUP4 PUSH1 0x7 SIGNEXTEND PUSH8 0xFFFFFFFFFFFFFFFF AND MUL OR SWAP1 SSTORE POP DUP8 DUP8 PUSH1 0x40 MLOAD PUSH2 0x2545 SWAP3 SWAP2 SWAP1 PUSH2 0x4238 JUMP JUMPDEST PUSH1 0x40 MLOAD DUP1 SWAP2 SUB SWAP1 KECCAK256 PUSH32 0x977F157300BB4D69D09B3E083FB55A17A0C02F978E5B220C08173C63DE9665AA DUP10 DUP10 DUP10 DUP6 PUSH1 0x0 ADD PUSH1 0x1 SWAP1 SLOAD SWAP1 PUSH2 0x100 EXP SWAP1 DIV PUSH1 0x3 SIGNEXTEND DUP7 PUSH1 0x1 ADD SLOAD DUP8 PUSH1 0x2 ADD SLOAD DUP9 PUSH1 0x3 ADD SLOAD PUSH1 0x40 MLOAD PUSH2 0x25A5 SWAP8 SWAP7 SWAP6 SWAP5 SWAP4 SWAP3 SWAP2 SWAP1 PUSH2 0x4D71 JUMP JUMPDEST PUSH1 0x40 MLOAD DUP1 SWAP2 SUB SWAP1 LOG2 PUSH2 0x26B1 JUMP JUMPDEST PUSH1 0x0 DUP2 PUSH1 0x0 ADD PUSH1 0x5 SWAP1 SLOAD SWAP1 PUSH2 0x100 EXP SWAP1 DIV PUSH1 0x3 SIGNEXTEND PUSH1 0x3 SIGNEXTEND SUB PUSH2 0x267E JUMPI DUP5 DUP2 PUSH1 0x0 ADD PUSH1 0x5 PUSH2 0x100 EXP DUP2 SLOAD DUP2 PUSH4 0xFFFFFFFF MUL NOT AND SWAP1 DUP4 PUSH1 0x3 SIGNEXTEND PUSH4 0xFFFFFFFF AND MUL OR SWAP1 SSTORE POP DUP8 DUP8 PUSH1 0x40 MLOAD PUSH2 0x2604 SWAP3 SWAP2 SWAP1 PUSH2 0x4238 JUMP JUMPDEST PUSH1 0x40 MLOAD DUP1 SWAP2 SUB SWAP1 KECCAK256 PUSH32 0xE097BF610F5827FFCDD36EB07B790E6EE02DD498F911AB45664208CFAD9323B0 DUP10 DUP10 DUP10 DUP6 PUSH1 0x0 ADD PUSH1 0x1 SWAP1 SLOAD SWAP1 PUSH2 0x100 EXP SWAP1 DIV PUSH1 0x3 SIGNEXTEND DUP7 PUSH1 0x0 ADD PUSH1 0x5 SWAP1 SLOAD SWAP1 PUSH2 0x100 EXP SWAP1 DIV PUSH1 0x3 SIGNEXTEND PUSH1 0x40 MLOAD PUSH2 0x2665 SWAP6 SWAP5 SWAP4 SWAP3 SWAP2 SWAP1 PUSH2 0x4DDB JUMP JUMPDEST PUSH1 0x40 MLOAD DUP1 SWAP2 SUB SWAP1 LOG2 PUSH2 0x2679 DUP9 DUP9 DUP7 DUP10 PUSH2 0x1AD5 JUMP JUMPDEST PUSH2 0x26B0 JUMP JUMPDEST PUSH1 0x40 MLOAD PUSH32 0xD56BE5DB00000000000000000000000000000000000000000000000000000000 DUP2 MSTORE PUSH1 0x4 ADD PUSH1 0x40 MLOAD DUP1 SWAP2 SUB SWAP1 REVERT JUMPDEST JUMPDEST POP POP POP POP POP POP POP POP JUMP JUMPDEST PUSH1 0x6 PUSH1 0x0 SWAP1 SLOAD SWAP1 PUSH2 0x100 EXP SWAP1 DIV PUSH20 0xFFFFFFFFFFFFFFFFFFFFFFFFFFFFFFFFFFFFFFFF AND DUP2 JUMP JUMPDEST PUSH2 0x26E9 PUSH2 0x2DED JUMP JUMPDEST PUSH1 0x64 DUP2 PUSH1 0xFF AND GT ISZERO PUSH2 0x2730 JUMPI PUSH1 0x40 MLOAD PUSH32 0x8C379A000000000000000000000000000000000000000000000000000000000 DUP2 MSTORE PUSH1 0x4 ADD PUSH2 0x2727 SWAP1 PUSH2 0x4E9B JUMP JUMPDEST PUSH1 0x40 MLOAD DUP1 SWAP2 SUB SWAP1 REVERT JUMPDEST DUP1 PUSH1 0x4 PUSH1 0x2 PUSH2 0x100 EXP DUP2 SLOAD DUP2 PUSH1 0xFF MUL NOT AND SWAP1 DUP4 PUSH1 0xFF AND MUL OR SWAP1 SSTORE POP POP JUMP JUMPDEST PUSH1 0x1 PUSH1 0x0 SWAP1 SLOAD SWAP1 PUSH2 0x100 EXP SWAP1 DIV PUSH20 0xFFFFFFFFFFFFFFFFFFFFFFFFFFFFFFFFFFFFFFFF AND DUP2 JUMP JUMPDEST PUSH2 0x277C PUSH2 0x2DED JUMP JUMPDEST PUSH1 0x64 DUP2 PUSH1 0xFF AND GT ISZERO PUSH2 0x27C3 JUMPI PUSH1 0x40 MLOAD PUSH32 0x8C379A000000000000000000000000000000000000000000000000000000000 DUP2 MSTORE PUSH1 0x4 ADD PUSH2 0x27BA SWAP1 PUSH2 0x4F07 JUMP JUMPDEST PUSH1 0x40 MLOAD DUP1 SWAP2 SUB SWAP1 REVERT JUMPDEST DUP1 PUSH1 0x4 PUSH1 0x0 PUSH2 0x100 EXP DUP2 SLOAD DUP2 PUSH1 0xFF MUL NOT AND SWAP1 DUP4 PUSH1 0xFF AND MUL OR SWAP1 SSTORE POP POP JUMP JUMPDEST PUSH2 0x27E9 PUSH2 0x2DED JUMP JUMPDEST DUP1 PUSH1 0x1 PUSH1 0x0 PUSH2 0x100 EXP DUP2 SLOAD DUP2 PUSH20 0xFFFFFFFFFFFFFFFFFFFFFFFFFFFFFFFFFFFFFFFF MUL NOT AND SWAP1 DUP4 PUSH20 0xFFFFFFFFFFFFFFFFFFFFFFFFFFFFFFFFFFFFFFFF AND MUL OR SWAP1 SSTORE POP POP JUMP JUMPDEST PUSH2 0x2835 PUSH2 0x2DED JUMP JUMPDEST PUSH1 0x1 PUSH1 0x6 PUSH1 0x14 PUSH2 0x100 EXP DUP2 SLOAD DUP2 PUSH1 0xFF MUL NOT AND SWAP1 DUP4 ISZERO ISZERO MUL OR SWAP1 SSTORE POP PUSH1 0x40 MLOAD DUP1 PUSH1 0x20 ADD PUSH1 0x40 MSTORE DUP1 PUSH1 0x0 DUP2 MSTORE POP PUSH1 0x7 SWAP1 DUP2 PUSH2 0x286E SWAP2 SWAP1 PUSH2 0x50D3 JUMP JUMPDEST POP PUSH32 0x762F260439BB4BE3EF6E4DC2786E2E7BD187D3D80B79057D7A424FE98563E335 PUSH1 0x40 MLOAD PUSH1 0x40 MLOAD DUP1 SWAP2 SUB SWAP1 LOG1 JUMP JUMPDEST PUSH1 0x1 PUSH1 0x0 SWAP1 SLOAD SWAP1 PUSH2 0x100 EXP SWAP1 DIV PUSH20 0xFFFFFFFFFFFFFFFFFFFFFFFFFFFFFFFFFFFFFFFF AND PUSH20 0xFFFFFFFFFFFFFFFFFFFFFFFFFFFFFFFFFFFFFFFF AND CALLER PUSH20 0xFFFFFFFFFFFFFFFFFFFFFFFFFFFFFFFFFFFFFFFF AND EQ DUP1 PUSH2 0x2946 JUMPI POP PUSH1 0x2 PUSH1 0x0 SWAP1 SLOAD SWAP1 PUSH2 0x100 EXP SWAP1 DIV PUSH20 0xFFFFFFFFFFFFFFFFFFFFFFFFFFFFFFFFFFFFFFFF AND PUSH20 0xFFFFFFFFFFFFFFFFFFFFFFFFFFFFFFFFFFFFFFFF AND CALLER PUSH20 0xFFFFFFFFFFFFFFFFFFFFFFFFFFFFFFFFFFFFFFFF AND EQ JUMPDEST PUSH2 0x2985 JUMPI PUSH1 0x40 MLOAD PUSH32 0x8C379A000000000000000000000000000000000000000000000000000000000 DUP2 MSTORE PUSH1 0x4 ADD PUSH2 0x297C SWAP1 PUSH2 0x4A7A JUMP JUMPDEST PUSH1 0x40 MLOAD DUP1 SWAP2 SUB SWAP1 REVERT JUMPDEST PUSH1 0x1 PUSH1 0x3 DUP7 DUP7 PUSH1 0x40 MLOAD PUSH2 0x2999 SWAP3 SWAP2 SWAP1 PUSH2 0x4238 JUMP JUMPDEST SWAP1 DUP2 MSTORE PUSH1 0x20 ADD PUSH1 0x40 MLOAD DUP1 SWAP2 SUB SWAP1 KECCAK256 PUSH1 0x0 ADD PUSH1 0x0 PUSH2 0x100 EXP DUP2 SLOAD DUP2 PUSH1 0xFF MUL NOT AND SWAP1 DUP4 ISZERO ISZERO MUL OR SWAP1 SSTORE POP DUP3 PUSH1 0x3 DUP7 DUP7 PUSH1 0x40 MLOAD PUSH2 0x29D4 SWAP3 SWAP2 SWAP1 PUSH2 0x4238 JUMP JUMPDEST SWAP1 DUP2 MSTORE PUSH1 0x20 ADD PUSH1 0x40 MLOAD DUP1 SWAP2 SUB SWAP1 KECCAK256 PUSH1 0x1 ADD DUP2 SWAP1 SSTORE POP DUP2 PUSH1 0x3 DUP7 DUP7 PUSH1 0x40 MLOAD PUSH2 0x29FC SWAP3 SWAP2 SWAP1 PUSH2 0x4238 JUMP JUMPDEST SWAP1 DUP2 MSTORE PUSH1 0x20 ADD PUSH1 0x40 MLOAD DUP1 SWAP2 SUB SWAP1 KECCAK256 PUSH1 0x2 ADD DUP2 SWAP1 SSTORE POP DUP1 PUSH1 0x3 DUP7 DUP7 PUSH1 0x40 MLOAD PUSH2 0x2A24 SWAP3 SWAP2 SWAP1 PUSH2 0x4238 JUMP JUMPDEST SWAP1 DUP2 MSTORE PUSH1 0x20 ADD PUSH1 0x40 MLOAD DUP1 SWAP2 SUB SWAP1 KECCAK256 PUSH1 0x3 ADD DUP2 SWAP1 SSTORE POP POP POP POP POP POP JUMP JUMPDEST PUSH2 0x2A48 PUSH2 0x2DED JUMP JUMPDEST PUSH1 0x0 PUSH1 0x6 PUSH1 0x14 PUSH2 0x100 EXP DUP2 SLOAD DUP2 PUSH1 0xFF MUL NOT AND SWAP1 DUP4 ISZERO ISZERO MUL OR SWAP1 SSTORE POP DUP2 DUP2 PUSH1 0x7 SWAP2 DUP3 PUSH2 0x2A74 SWAP3 SWAP2 SWAP1 PUSH2 0x51B0 JUMP JUMPDEST POP PUSH32 0xBBED56C796999EC9481DE9169E54D6F193C57A335189C8B82053D80E263FDBD6 DUP3 DUP3 PUSH1 0x40 MLOAD PUSH2 0x2AA6 SWAP3 SWAP2 SWAP1 PUSH2 0x5280 JUMP JUMPDEST PUSH1 0x40 MLOAD DUP1 SWAP2 SUB SWAP1 LOG1 POP POP JUMP JUMPDEST PUSH2 0x2ABA PUSH2 0x2DED JUMP JUMPDEST PUSH1 0x0 PUSH20 0xFFFFFFFFFFFFFFFFFFFFFFFFFFFFFFFFFFFFFFFF AND DUP2 PUSH20 0xFFFFFFFFFFFFFFFFFFFFFFFFFFFFFFFFFFFFFFFF AND SUB PUSH2 0x2B2C JUMPI PUSH1 0x0 PUSH1 0x40 MLOAD PUSH32 0x1E4FBDF700000000000000000000000000000000000000000000000000000000 DUP2 MSTORE PUSH1 0x4 ADD PUSH2 0x2B23 SWAP2 SWAP1 PUSH2 0x35E3 JUMP JUMPDEST PUSH1 0x40 MLOAD DUP1 SWAP2 SUB SWAP1 REVERT JUMPDEST PUSH2 0x2B35 DUP2 PUSH2 0x2E74 JUMP JUMPDEST POP JUMP JUMPDEST PUSH2 0x2B40 PUSH2 0x2DED JUMP JUMPDEST DUP1 PUSH1 0x2 PUSH1 0x0 PUSH2 0x100 EXP DUP2 SLOAD DUP2 PUSH20 0xFFFFFFFFFFFFFFFFFFFFFFFFFFFFFFFFFFFFFFFF MUL NOT AND SWAP1 DUP4 PUSH20 0xFFFFFFFFFFFFFFFFFFFFFFFFFFFFFFFFFFFFFFFF AND MUL OR SWAP1 SSTORE POP POP JUMP JUMPDEST PUSH1 0x0 DUP3 PUSH20 0xFFFFFFFFFFFFFFFFFFFFFFFFFFFFFFFFFFFFFFFF AND DUP3 PUSH1 0x40 MLOAD PUSH2 0x2BAA SWAP1 PUSH2 0x52CA JUMP JUMPDEST PUSH1 0x0 PUSH1 0x40 MLOAD DUP1 DUP4 SUB DUP2 DUP6 DUP8 GAS CALL SWAP3 POP POP POP RETURNDATASIZE DUP1 PUSH1 0x0 DUP2 EQ PUSH2 0x2BE7 JUMPI PUSH1 0x40 MLOAD SWAP2 POP PUSH1 0x1F NOT PUSH1 0x3F RETURNDATASIZE ADD AND DUP3 ADD PUSH1 0x40 MSTORE RETURNDATASIZE DUP3 MSTORE RETURNDATASIZE PUSH1 0x0 PUSH1 0x20 DUP5 ADD RETURNDATACOPY PUSH2 0x2BEC JUMP JUMPDEST PUSH1 0x60 SWAP2 POP JUMPDEST POP POP SWAP1 POP DUP1 PUSH2 0x2C30 JUMPI PUSH1 0x40 MLOAD PUSH32 0x8C379A000000000000000000000000000000000000000000000000000000000 DUP2 MSTORE PUSH1 0x4 ADD PUSH2 0x2C27 SWAP1 PUSH2 0x532B JUMP JUMPDEST PUSH1 0x40 MLOAD DUP1 SWAP2 SUB SWAP1 REVERT JUMPDEST POP POP POP JUMP JUMPDEST PUSH1 0x0 ORIGIN PUSH20 0xFFFFFFFFFFFFFFFFFFFFFFFFFFFFFFFFFFFFFFFF AND DUP3 PUSH20 0xFFFFFFFFFFFFFFFFFFFFFFFFFFFFFFFFFFFFFFFF AND EQ SWAP1 POP SWAP2 SWAP1 POP JUMP JUMPDEST PUSH1 0x0 DUP9 PUSH1 0x0 ADD DUP9 SWAP1 DUP1 PUSH1 0x1 DUP2 SLOAD ADD DUP1 DUP3 SSTORE DUP1 SWAP2 POP POP PUSH1 0x1 SWAP1 SUB SWAP1 PUSH1 0x0 MSTORE PUSH1 0x20 PUSH1 0x0 KECCAK256 ADD PUSH1 0x0 SWAP1 SWAP2 SWAP1 SWAP2 SWAP1 SWAP2 POP SSTORE DUP9 PUSH1 0x1 ADD CALLER SWAP1 DUP1 PUSH1 0x1 DUP2 SLOAD ADD DUP1 DUP3 SSTORE DUP1 SWAP2 POP POP PUSH1 0x1 SWAP1 SUB SWAP1 PUSH1 0x0 MSTORE PUSH1 0x20 PUSH1 0x0 KECCAK256 ADD PUSH1 0x0 SWAP1 SWAP2 SWAP1 SWAP2 SWAP1 SWAP2 PUSH2 0x100 EXP DUP2 SLOAD DUP2 PUSH20 0xFFFFFFFFFFFFFFFFFFFFFFFFFFFFFFFFFFFFFFFF MUL NOT AND SWAP1 DUP4 PUSH20 0xFFFFFFFFFFFFFFFFFFFFFFFFFFFFFFFFFFFFFFFF AND MUL OR SWAP1 SSTORE POP DUP9 PUSH1 0x2 ADD DUP8 DUP8 SWAP1 SWAP2 DUP1 PUSH1 0x1 DUP2 SLOAD ADD DUP1 DUP3 SSTORE DUP1 SWAP2 POP POP PUSH1 0x1 SWAP1 SUB SWAP1 PUSH1 0x0 MSTORE PUSH1 0x20 PUSH1 0x0 KECCAK256 ADD PUSH1 0x0 SWAP1 SWAP2 SWAP3 SWAP1 SWAP2 SWAP3 SWAP1 SWAP2 SWAP3 SWAP1 SWAP2 SWAP3 POP SWAP2 DUP3 PUSH2 0x2D3E SWAP3 SWAP2 SWAP1 PUSH2 0x539C JUMP JUMPDEST POP DUP9 PUSH1 0x3 ADD DUP6 DUP6 SWAP1 SWAP2 DUP1 PUSH1 0x1 DUP2 SLOAD ADD DUP1 DUP3 SSTORE DUP1 SWAP2 POP POP PUSH1 0x1 SWAP1 SUB SWAP1 PUSH1 0x0 MSTORE PUSH1 0x20 PUSH1 0x0 KECCAK256 ADD PUSH1 0x0 SWAP1 SWAP2 SWAP3 SWAP1 SWAP2 SWAP3 SWAP1 SWAP2 SWAP3 SWAP1 SWAP2 SWAP3 POP SWAP2 DUP3 PUSH2 0x2D7E SWAP3 SWAP2 SWAP1 PUSH2 0x539C JUMP JUMPDEST POP DUP9 PUSH1 0x4 ADD DUP4 DUP4 SWAP1 SWAP2 DUP1 PUSH1 0x1 DUP2 SLOAD ADD DUP1 DUP3 SSTORE DUP1 SWAP2 POP POP PUSH1 0x1 SWAP1 SUB SWAP1 PUSH1 0x0 MSTORE PUSH1 0x20 PUSH1 0x0 KECCAK256 ADD PUSH1 0x0 SWAP1 SWAP2 SWAP3 SWAP1 SWAP2 SWAP3 SWAP1 SWAP2 SWAP3 SWAP1 SWAP2 SWAP3 POP SWAP2 DUP3 PUSH2 0x2DBE SWAP3 SWAP2 SWAP1 PUSH2 0x539C JUMP JUMPDEST POP DUP8 DUP10 PUSH1 0x5 ADD PUSH1 0x0 DUP3 DUP3 SLOAD PUSH2 0x2DD3 SWAP2 SWAP1 PUSH2 0x4280 JUMP JUMPDEST SWAP3 POP POP DUP2 SWAP1 SSTORE POP DUP9 PUSH1 0x5 ADD SLOAD SWAP1 POP SWAP9 SWAP8 POP POP POP POP POP POP POP POP JUMP JUMPDEST PUSH2 0x2DF5 PUSH2 0x343F JUMP JUMPDEST PUSH20 0xFFFFFFFFFFFFFFFFFFFFFFFFFFFFFFFFFFFFFFFF AND PUSH2 0x2E13 PUSH2 0x1A2C JUMP JUMPDEST PUSH20 0xFFFFFFFFFFFFFFFFFFFFFFFFFFFFFFFFFFFFFFFF AND EQ PUSH2 0x2E72 JUMPI PUSH2 0x2E36 PUSH2 0x343F JUMP JUMPDEST PUSH1 0x40 MLOAD PUSH32 0x118CDAA700000000000000000000000000000000000000000000000000000000 DUP2 MSTORE PUSH1 0x4 ADD PUSH2 0x2E69 SWAP2 SWAP1 PUSH2 0x35E3 JUMP JUMPDEST PUSH1 0x40 MLOAD DUP1 SWAP2 SUB SWAP1 REVERT JUMPDEST JUMP JUMPDEST PUSH1 0x0 DUP1 PUSH1 0x0 SWAP1 SLOAD SWAP1 PUSH2 0x100 EXP SWAP1 DIV PUSH20 0xFFFFFFFFFFFFFFFFFFFFFFFFFFFFFFFFFFFFFFFF AND SWAP1 POP DUP2 PUSH1 0x0 DUP1 PUSH2 0x100 EXP DUP2 SLOAD DUP2 PUSH20 0xFFFFFFFFFFFFFFFFFFFFFFFFFFFFFFFFFFFFFFFF MUL NOT AND SWAP1 DUP4 PUSH20 0xFFFFFFFFFFFFFFFFFFFFFFFFFFFFFFFFFFFFFFFF AND MUL OR SWAP1 SSTORE POP DUP2 PUSH20 0xFFFFFFFFFFFFFFFFFFFFFFFFFFFFFFFFFFFFFFFF AND DUP2 PUSH20 0xFFFFFFFFFFFFFFFFFFFFFFFFFFFFFFFFFFFFFFFF AND PUSH32 0x8BE0079C531659141344CD1FD0A4F28419497F9722A3DAAFE3B4186F6B6457E0 PUSH1 0x40 MLOAD PUSH1 0x40 MLOAD DUP1 SWAP2 SUB SWAP1 LOG3 POP POP JUMP JUMPDEST PUSH1 0x0 DUP3 PUSH1 0x6 ADD SLOAD DUP4 PUSH1 0x0 ADD DUP1 SLOAD SWAP1 POP PUSH2 0x2F51 SWAP2 SWAP1 PUSH2 0x46E5 JUMP JUMPDEST SWAP1 POP PUSH1 0x0 DUP3 PUSH4 0xFFFFFFFF AND DUP3 GT PUSH2 0x2F68 JUMPI DUP2 PUSH2 0x2F70 JUMP JUMPDEST DUP3 PUSH4 0xFFFFFFFF AND JUMPDEST SWAP1 POP PUSH1 0x0 DUP2 DUP6 PUSH1 0x6 ADD SLOAD PUSH2 0x2F84 SWAP2 SWAP1 PUSH2 0x4280 JUMP JUMPDEST SWAP1 POP PUSH1 0x0 DUP6 PUSH1 0x6 ADD SLOAD SWAP1 POP JUMPDEST DUP2 DUP2 LT ISZERO PUSH2 0x30CD JUMPI PUSH2 0x3002 DUP7 PUSH1 0x1 ADD DUP3 DUP2 SLOAD DUP2 LT PUSH2 0x2FB1 JUMPI PUSH2 0x2FB0 PUSH2 0x4AF6 JUMP JUMPDEST JUMPDEST SWAP1 PUSH1 0x0 MSTORE PUSH1 0x20 PUSH1 0x0 KECCAK256 ADD PUSH1 0x0 SWAP1 SLOAD SWAP1 PUSH2 0x100 EXP SWAP1 DIV PUSH20 0xFFFFFFFFFFFFFFFFFFFFFFFFFFFFFFFFFFFFFFFF AND DUP8 PUSH1 0x0 ADD DUP4 DUP2 SLOAD DUP2 LT PUSH2 0x2FF2 JUMPI PUSH2 0x2FF1 PUSH2 0x4AF6 JUMP JUMPDEST JUMPDEST SWAP1 PUSH1 0x0 MSTORE PUSH1 0x20 PUSH1 0x0 KECCAK256 ADD SLOAD PUSH2 0x2B84 JUMP JUMPDEST PUSH32 0xB9B3CF88E16DDD6B941FFA04B763047AF17BAFD3CDECEF4D26D46F43E64C1205 DUP9 DUP9 DUP9 PUSH1 0x1 ADD DUP5 DUP2 SLOAD DUP2 LT PUSH2 0x303B JUMPI PUSH2 0x303A PUSH2 0x4AF6 JUMP JUMPDEST JUMPDEST SWAP1 PUSH1 0x0 MSTORE PUSH1 0x20 PUSH1 0x0 KECCAK256 ADD PUSH1 0x0 SWAP1 SLOAD SWAP1 PUSH2 0x100 EXP SWAP1 DIV PUSH20 0xFFFFFFFFFFFFFFFFFFFFFFFFFFFFFFFFFFFFFFFF AND DUP10 PUSH1 0x0 ADD DUP6 DUP2 SLOAD DUP2 LT PUSH2 0x307C JUMPI PUSH2 0x307B PUSH2 0x4AF6 JUMP JUMPDEST JUMPDEST SWAP1 PUSH1 0x0 MSTORE PUSH1 0x20 PUSH1 0x0 KECCAK256 ADD SLOAD DUP11 PUSH1 0x4 ADD DUP7 DUP2 SLOAD DUP2 LT PUSH2 0x309D JUMPI PUSH2 0x309C PUSH2 0x4AF6 JUMP JUMPDEST JUMPDEST SWAP1 PUSH1 0x0 MSTORE PUSH1 0x20 PUSH1 0x0 KECCAK256 ADD PUSH1 0x40 MLOAD PUSH2 0x30B8 SWAP6 SWAP5 SWAP4 SWAP3 SWAP2 SWAP1 PUSH2 0x546C JUMP JUMPDEST PUSH1 0x40 MLOAD DUP1 SWAP2 SUB SWAP1 LOG1 DUP1 DUP1 PUSH1 0x1 ADD SWAP2 POP POP PUSH2 0x2F90 JUMP JUMPDEST POP DUP1 DUP6 PUSH1 0x6 ADD DUP2 SWAP1 SSTORE POP POP POP POP POP POP POP POP JUMP JUMPDEST PUSH1 0x3 DUP3 DUP3 PUSH1 0x40 MLOAD PUSH2 0x30F2 SWAP3 SWAP2 SWAP1 PUSH2 0x4238 JUMP JUMPDEST SWAP1 DUP2 MSTORE PUSH1 0x20 ADD PUSH1 0x40 MLOAD DUP1 SWAP2 SUB SWAP1 KECCAK256 PUSH1 0x4 ADD PUSH1 0x0 DUP1 DUP3 ADD PUSH1 0x0 PUSH2 0x3114 SWAP2 SWAP1 PUSH2 0x3479 JUMP JUMPDEST PUSH1 0x1 DUP3 ADD PUSH1 0x0 PUSH2 0x3124 SWAP2 SWAP1 PUSH2 0x349A JUMP JUMPDEST PUSH1 0x2 DUP3 ADD PUSH1 0x0 PUSH2 0x3134 SWAP2 SWAP1 PUSH2 0x34BB JUMP JUMPDEST PUSH1 0x3 DUP3 ADD PUSH1 0x0 PUSH2 0x3144 SWAP2 SWAP1 PUSH2 0x34BB JUMP JUMPDEST PUSH1 0x4 DUP3 ADD PUSH1 0x0 PUSH2 0x3154 SWAP2 SWAP1 PUSH2 0x34BB JUMP JUMPDEST PUSH1 0x5 DUP3 ADD PUSH1 0x0 SWAP1 SSTORE PUSH1 0x6 DUP3 ADD PUSH1 0x0 SWAP1 SSTORE PUSH1 0x7 DUP3 ADD PUSH1 0x0 SWAP1 SSTORE POP POP PUSH1 0x3 DUP3 DUP3 PUSH1 0x40 MLOAD PUSH2 0x3180 SWAP3 SWAP2 SWAP1 PUSH2 0x4238 JUMP JUMPDEST SWAP1 DUP2 MSTORE PUSH1 0x20 ADD PUSH1 0x40 MLOAD DUP1 SWAP2 SUB SWAP1 KECCAK256 PUSH1 0xC ADD PUSH1 0x0 DUP1 DUP3 ADD PUSH1 0x0 PUSH2 0x31A2 SWAP2 SWAP1 PUSH2 0x3479 JUMP JUMPDEST PUSH1 0x1 DUP3 ADD PUSH1 0x0 PUSH2 0x31B2 SWAP2 SWAP1 PUSH2 0x349A JUMP JUMPDEST PUSH1 0x2 DUP3 ADD PUSH1 0x0 PUSH2 0x31C2 SWAP2 SWAP1 PUSH2 0x34BB JUMP JUMPDEST PUSH1 0x3 DUP3 ADD PUSH1 0x0 PUSH2 0x31D2 SWAP2 SWAP1 PUSH2 0x34BB JUMP JUMPDEST PUSH1 0x4 DUP3 ADD PUSH1 0x0 PUSH2 0x31E2 SWAP2 SWAP1 PUSH2 0x34BB JUMP JUMPDEST PUSH1 0x5 DUP3 ADD PUSH1 0x0 SWAP1 SSTORE PUSH1 0x6 DUP3 ADD PUSH1 0x0 SWAP1 SSTORE PUSH1 0x7 DUP3 ADD PUSH1 0x0 SWAP1 SSTORE POP POP PUSH1 0x3 DUP3 DUP3 PUSH1 0x40 MLOAD PUSH2 0x320E SWAP3 SWAP2 SWAP1 PUSH2 0x4238 JUMP JUMPDEST SWAP1 DUP2 MSTORE PUSH1 0x20 ADD PUSH1 0x40 MLOAD DUP1 SWAP2 SUB SWAP1 KECCAK256 PUSH1 0x0 ADD PUSH1 0x1 PUSH2 0x100 EXP DUP2 SLOAD SWAP1 PUSH4 0xFFFFFFFF MUL NOT AND SWAP1 SSTORE PUSH1 0x3 DUP3 DUP3 PUSH1 0x40 MLOAD PUSH2 0x3244 SWAP3 SWAP2 SWAP1 PUSH2 0x4238 JUMP JUMPDEST SWAP1 DUP2 MSTORE PUSH1 0x20 ADD PUSH1 0x40 MLOAD DUP1 SWAP2 SUB SWAP1 KECCAK256 PUSH1 0x0 ADD PUSH1 0x5 PUSH2 0x100 EXP DUP2 SLOAD SWAP1 PUSH4 0xFFFFFFFF MUL NOT AND SWAP1 SSTORE POP POP JUMP JUMPDEST PUSH2 0x3274 PUSH2 0x34DC JUMP JUMPDEST PUSH1 0x0 PUSH1 0x64 PUSH1 0x4 PUSH1 0x0 SWAP1 SLOAD SWAP1 PUSH2 0x100 EXP SWAP1 DIV PUSH1 0xFF AND PUSH1 0xFF AND DUP5 PUSH1 0x5 ADD SLOAD DUP7 PUSH1 0x5 ADD SLOAD PUSH2 0x329F SWAP2 SWAP1 PUSH2 0x4280 JUMP JUMPDEST PUSH2 0x32A9 SWAP2 SWAP1 PUSH2 0x4B25 JUMP JUMPDEST PUSH2 0x32B3 SWAP2 SWAP1 PUSH2 0x4B96 JUMP JUMPDEST SWAP1 POP PUSH1 0x0 PUSH1 0x64 PUSH1 0x4 PUSH1 0x1 SWAP1 SLOAD SWAP1 PUSH2 0x100 EXP SWAP1 DIV PUSH1 0xFF AND PUSH1 0xFF AND DUP4 PUSH2 0x32D7 SWAP2 SWAP1 PUSH2 0x4B25 JUMP JUMPDEST PUSH2 0x32E1 SWAP2 SWAP1 PUSH2 0x4B96 JUMP JUMPDEST SWAP1 POP PUSH1 0x0 PUSH1 0x64 PUSH1 0x4 PUSH1 0x2 SWAP1 SLOAD SWAP1 PUSH2 0x100 EXP SWAP1 DIV PUSH1 0xFF AND PUSH1 0xFF AND DUP5 PUSH2 0x3305 SWAP2 SWAP1 PUSH2 0x4B25 JUMP JUMPDEST PUSH2 0x330F SWAP2 SWAP1 PUSH2 0x4B96 JUMP JUMPDEST SWAP1 POP PUSH1 0x0 DUP2 DUP4 PUSH2 0x331F SWAP2 SWAP1 PUSH2 0x4280 JUMP JUMPDEST DUP5 PUSH2 0x332A SWAP2 SWAP1 PUSH2 0x46E5 JUMP JUMPDEST SWAP1 POP PUSH1 0x0 PUSH1 0x64 PUSH1 0x4 PUSH1 0x0 SWAP1 SLOAD SWAP1 PUSH2 0x100 EXP SWAP1 DIV PUSH1 0xFF AND PUSH1 0xFF AND DUP9 PUSH1 0x5 ADD SLOAD PUSH2 0x3352 SWAP2 SWAP1 PUSH2 0x4B25 JUMP JUMPDEST PUSH2 0x335C SWAP2 SWAP1 PUSH2 0x4B96 JUMP JUMPDEST DUP8 PUSH1 0x5 ADD SLOAD PUSH2 0x336B SWAP2 SWAP1 PUSH2 0x46E5 JUMP JUMPDEST SWAP1 POP PUSH1 0x0 PUSH1 0x64 PUSH1 0x4 PUSH1 0x0 SWAP1 SLOAD SWAP1 PUSH2 0x100 EXP SWAP1 DIV PUSH1 0xFF AND PUSH1 0xFF AND DUP11 PUSH1 0x5 ADD SLOAD PUSH2 0x3393 SWAP2 SWAP1 PUSH2 0x4B25 JUMP JUMPDEST PUSH2 0x339D SWAP2 SWAP1 PUSH2 0x4B96 JUMP JUMPDEST DUP10 PUSH1 0x5 ADD SLOAD PUSH2 0x33AC SWAP2 SWAP1 PUSH2 0x46E5 JUMP JUMPDEST SWAP1 POP PUSH1 0x0 DUP10 PUSH1 0x6 ADD SLOAD DUP11 PUSH1 0x0 ADD DUP1 SLOAD SWAP1 POP PUSH2 0x33C7 SWAP2 SWAP1 PUSH2 0x46E5 JUMP JUMPDEST SWAP1 POP PUSH1 0x40 MLOAD DUP1 PUSH2 0x100 ADD PUSH1 0x40 MSTORE DUP1 PUSH1 0x64 PUSH1 0x4 PUSH1 0x0 SWAP1 SLOAD SWAP1 PUSH2 0x100 EXP SWAP1 DIV PUSH1 0xFF AND PUSH1 0xFF AND DUP14 PUSH1 0x5 ADD SLOAD PUSH2 0x33F9 SWAP2 SWAP1 PUSH2 0x4B25 JUMP JUMPDEST PUSH2 0x3403 SWAP2 SWAP1 PUSH2 0x4B96 JUMP JUMPDEST DUP2 MSTORE PUSH1 0x20 ADD DUP9 DUP2 MSTORE PUSH1 0x20 ADD DUP8 DUP2 MSTORE PUSH1 0x20 ADD DUP7 DUP2 MSTORE PUSH1 0x20 ADD DUP5 DUP2 MSTORE PUSH1 0x20 ADD DUP4 DUP2 MSTORE PUSH1 0x20 ADD DUP6 DUP2 MSTORE PUSH1 0x20 ADD DUP3 DUP2 MSTORE POP SWAP8 POP POP POP POP POP POP POP POP SWAP3 SWAP2 POP POP JUMP JUMPDEST PUSH1 0x0 CALLER SWAP1 POP SWAP1 JUMP JUMPDEST PUSH1 0x40 MLOAD DUP1 PUSH1 0xA0 ADD PUSH1 0x40 MSTORE DUP1 PUSH1 0x60 DUP2 MSTORE PUSH1 0x20 ADD PUSH1 0x60 DUP2 MSTORE PUSH1 0x20 ADD PUSH1 0x60 DUP2 MSTORE PUSH1 0x20 ADD PUSH1 0x0 PUSH1 0x7 SIGNEXTEND DUP2 MSTORE PUSH1 0x20 ADD PUSH1 0x60 DUP2 MSTORE POP SWAP1 JUMP JUMPDEST POP DUP1 SLOAD PUSH1 0x0 DUP3 SSTORE SWAP1 PUSH1 0x0 MSTORE PUSH1 0x20 PUSH1 0x0 KECCAK256 SWAP1 DUP2 ADD SWAP1 PUSH2 0x3497 SWAP2 SWAP1 PUSH2 0x3521 JUMP JUMPDEST POP JUMP JUMPDEST POP DUP1 SLOAD PUSH1 0x0 DUP3 SSTORE SWAP1 PUSH1 0x0 MSTORE PUSH1 0x20 PUSH1 0x0 KECCAK256 SWAP1 DUP2 ADD SWAP1 PUSH2 0x34B8 SWAP2 SWAP1 PUSH2 0x3521 JUMP JUMPDEST POP JUMP JUMPDEST POP DUP1 SLOAD PUSH1 0x0 DUP3 SSTORE SWAP1 PUSH1 0x0 MSTORE PUSH1 0x20 PUSH1 0x0 KECCAK256 SWAP1 DUP2 ADD SWAP1 PUSH2 0x34D9 SWAP2 SWAP1 PUSH2 0x353E JUMP JUMPDEST POP JUMP JUMPDEST PUSH1 0x40 MLOAD DUP1 PUSH2 0x100 ADD PUSH1 0x40 MSTORE DUP1 PUSH1 0x0 DUP2 MSTORE PUSH1 0x20 ADD PUSH1 0x0 DUP2 MSTORE PUSH1 0x20 ADD PUSH1 0x0 DUP2 MSTORE PUSH1 0x20 ADD PUSH1 0x0 DUP2 MSTORE PUSH1 0x20 ADD PUSH1 0x0 DUP2 MSTORE PUSH1 0x20 ADD PUSH1 0x0 DUP2 MSTORE PUSH1 0x20 ADD PUSH1 0x0 DUP2 MSTORE PUSH1 0x20 ADD PUSH1 0x0 DUP2 MSTORE POP SWAP1 JUMP JUMPDEST JUMPDEST DUP1 DUP3 GT ISZERO PUSH2 0x353A JUMPI PUSH1 0x0 DUP2 PUSH1 0x0 SWAP1 SSTORE POP PUSH1 0x1 ADD PUSH2 0x3522 JUMP JUMPDEST POP SWAP1 JUMP JUMPDEST JUMPDEST DUP1 DUP3 GT ISZERO PUSH2 0x355E JUMPI PUSH1 0x0 DUP2 DUP2 PUSH2 0x3555 SWAP2 SWAP1 PUSH2 0x3562 JUMP JUMPDEST POP PUSH1 0x1 ADD PUSH2 0x353F JUMP JUMPDEST POP SWAP1 JUMP JUMPDEST POP DUP1 SLOAD PUSH2 0x356E SWAP1 PUSH2 0x496B JUMP JUMPDEST PUSH1 0x0 DUP3 SSTORE DUP1 PUSH1 0x1F LT PUSH2 0x3580 JUMPI POP PUSH2 0x359F JUMP JUMPDEST PUSH1 0x1F ADD PUSH1 0x20 SWAP1 DIV SWAP1 PUSH1 0x0 MSTORE PUSH1 0x20 PUSH1 0x0 KECCAK256 SWAP1 DUP2 ADD SWAP1 PUSH2 0x359E SWAP2 SWAP1 PUSH2 0x3521 JUMP JUMPDEST JUMPDEST POP JUMP JUMPDEST PUSH1 0x0 PUSH20 0xFFFFFFFFFFFFFFFFFFFFFFFFFFFFFFFFFFFFFFFF DUP3 AND SWAP1 POP SWAP2 SWAP1 POP JUMP JUMPDEST PUSH1 0x0 PUSH2 0x35CD DUP3 PUSH2 0x35A2 JUMP JUMPDEST SWAP1 POP SWAP2 SWAP1 POP JUMP JUMPDEST PUSH2 0x35DD DUP2 PUSH2 0x35C2 JUMP JUMPDEST DUP3 MSTORE POP POP JUMP JUMPDEST PUSH1 0x0 PUSH1 0x20 DUP3 ADD SWAP1 POP PUSH2 0x35F8 PUSH1 0x0 DUP4 ADD DUP5 PUSH2 0x35D4 JUMP JUMPDEST SWAP3 SWAP2 POP POP JUMP JUMPDEST PUSH1 0x0 PUSH1 0x40 MLOAD SWAP1 POP SWAP1 JUMP JUMPDEST PUSH1 0x0 DUP1 REVERT JUMPDEST PUSH1 0x0 DUP1 REVERT JUMPDEST PUSH2 0x361B DUP2 PUSH2 0x35C2 JUMP JUMPDEST DUP2 EQ PUSH2 0x3626 JUMPI PUSH1 0x0 DUP1 REVERT JUMPDEST POP JUMP JUMPDEST PUSH1 0x0 DUP2 CALLDATALOAD SWAP1 POP PUSH2 0x3638 DUP2 PUSH2 0x3612 JUMP JUMPDEST SWAP3 SWAP2 POP POP JUMP JUMPDEST PUSH1 0x0 DUP2 SWAP1 POP SWAP2 SWAP1 POP JUMP JUMPDEST PUSH2 0x3651 DUP2 PUSH2 0x363E JUMP JUMPDEST DUP2 EQ PUSH2 0x365C JUMPI PUSH1 0x0 DUP1 REVERT JUMPDEST POP JUMP JUMPDEST PUSH1 0x0 DUP2 CALLDATALOAD SWAP1 POP PUSH2 0x366E DUP2 PUSH2 0x3648 JUMP JUMPDEST SWAP3 SWAP2 POP POP JUMP JUMPDEST PUSH1 0x0 DUP1 PUSH1 0x40 DUP4 DUP6 SUB SLT ISZERO PUSH2 0x368B JUMPI PUSH2 0x368A PUSH2 0x3608 JUMP JUMPDEST JUMPDEST PUSH1 0x0 PUSH2 0x3699 DUP6 DUP3 DUP7 ADD PUSH2 0x3629 JUMP JUMPDEST SWAP3 POP POP PUSH1 0x20 PUSH2 0x36AA DUP6 DUP3 DUP7 ADD PUSH2 0x365F JUMP JUMPDEST SWAP2 POP POP SWAP3 POP SWAP3 SWAP1 POP JUMP JUMPDEST PUSH1 0x0 DUP1 REVERT JUMPDEST PUSH1 0x0 DUP1 REVERT JUMPDEST PUSH1 0x0 DUP1 REVERT JUMPDEST PUSH1 0x0 DUP1 DUP4 PUSH1 0x1F DUP5 ADD SLT PUSH2 0x36D9 JUMPI PUSH2 0x36D8 PUSH2 0x36B4 JUMP JUMPDEST JUMPDEST DUP3 CALLDATALOAD SWAP1 POP PUSH8 0xFFFFFFFFFFFFFFFF DUP2 GT ISZERO PUSH2 0x36F6 JUMPI PUSH2 0x36F5 PUSH2 0x36B9 JUMP JUMPDEST JUMPDEST PUSH1 0x20 DUP4 ADD SWAP2 POP DUP4 PUSH1 0x1 DUP3 MUL DUP4 ADD GT ISZERO PUSH2 0x3712 JUMPI PUSH2 0x3711 PUSH2 0x36BE JUMP JUMPDEST JUMPDEST SWAP3 POP SWAP3 SWAP1 POP JUMP JUMPDEST PUSH1 0x0 DUP1 PUSH1 0x20 DUP4 DUP6 SUB SLT ISZERO PUSH2 0x3730 JUMPI PUSH2 0x372F PUSH2 0x3608 JUMP JUMPDEST JUMPDEST PUSH1 0x0 DUP4 ADD CALLDATALOAD PUSH8 0xFFFFFFFFFFFFFFFF DUP2 GT ISZERO PUSH2 0x374E JUMPI PUSH2 0x374D PUSH2 0x360D JUMP JUMPDEST JUMPDEST PUSH2 0x375A DUP6 DUP3 DUP7 ADD PUSH2 0x36C3 JUMP JUMPDEST SWAP3 POP SWAP3 POP POP SWAP3 POP SWAP3 SWAP1 POP JUMP JUMPDEST PUSH1 0x0 DUP2 ISZERO ISZERO SWAP1 POP SWAP2 SWAP1 POP JUMP JUMPDEST PUSH2 0x377B DUP2 PUSH2 0x3766 JUMP JUMPDEST DUP3 MSTORE POP POP JUMP JUMPDEST PUSH1 0x0 PUSH1 0x20 DUP3 ADD SWAP1 POP PUSH2 0x3796 PUSH1 0x0 DUP4 ADD DUP5 PUSH2 0x3772 JUMP JUMPDEST SWAP3 SWAP2 POP POP JUMP JUMPDEST PUSH1 0x0 DUP1 REVERT JUMPDEST PUSH1 0x0 PUSH1 0xC0 DUP3 DUP5 SUB SLT ISZERO PUSH2 0x37B7 JUMPI PUSH2 0x37B6 PUSH2 0x379C JUMP JUMPDEST JUMPDEST DUP2 SWAP1 POP SWAP3 SWAP2 POP POP JUMP JUMPDEST PUSH1 0x0 PUSH1 0x20 DUP3 DUP5 SUB SLT ISZERO PUSH2 0x37D6 JUMPI PUSH2 0x37D5 PUSH2 0x3608 JUMP JUMPDEST JUMPDEST PUSH1 0x0 DUP3 ADD CALLDATALOAD PUSH8 0xFFFFFFFFFFFFFFFF DUP2 GT ISZERO PUSH2 0x37F4 JUMPI PUSH2 0x37F3 PUSH2 0x360D JUMP JUMPDEST JUMPDEST PUSH2 0x3800 DUP5 DUP3 DUP6 ADD PUSH2 0x37A1 JUMP JUMPDEST SWAP2 POP POP SWAP3 SWAP2 POP POP JUMP JUMPDEST PUSH1 0x0 PUSH1 0xFF DUP3 AND SWAP1 POP SWAP2 SWAP1 POP JUMP JUMPDEST PUSH2 0x381F DUP2 PUSH2 0x3809 JUMP JUMPDEST DUP3 MSTORE POP POP JUMP JUMPDEST PUSH1 0x0 PUSH1 0x20 DUP3 ADD SWAP1 POP PUSH2 0x383A PUSH1 0x0 DUP4 ADD DUP5 PUSH2 0x3816 JUMP JUMPDEST SWAP3 SWAP2 POP POP JUMP JUMPDEST PUSH1 0x0 PUSH1 0x20 DUP3 DUP5 SUB SLT ISZERO PUSH2 0x3856 JUMPI PUSH2 0x3855 PUSH2 0x3608 JUMP JUMPDEST JUMPDEST PUSH1 0x0 PUSH2 0x3864 DUP5 DUP3 DUP6 ADD PUSH2 0x3629 JUMP JUMPDEST SWAP2 POP POP SWAP3 SWAP2 POP POP JUMP JUMPDEST PUSH1 0x0 DUP1 REVERT JUMPDEST PUSH1 0x0 PUSH1 0x1F NOT PUSH1 0x1F DUP4 ADD AND SWAP1 POP SWAP2 SWAP1 POP JUMP JUMPDEST PUSH32 0x4E487B7100000000000000000000000000000000000000000000000000000000 PUSH1 0x0 MSTORE PUSH1 0x41 PUSH1 0x4 MSTORE PUSH1 0x24 PUSH1 0x0 REVERT JUMPDEST PUSH2 0x38BB DUP3 PUSH2 0x3872 JUMP JUMPDEST DUP2 ADD DUP2 DUP2 LT PUSH8 0xFFFFFFFFFFFFFFFF DUP3 GT OR ISZERO PUSH2 0x38DA JUMPI PUSH2 0x38D9 PUSH2 0x3883 JUMP JUMPDEST JUMPDEST DUP1 PUSH1 0x40 MSTORE POP POP POP JUMP JUMPDEST PUSH1 0x0 PUSH2 0x38ED PUSH2 0x35FE JUMP JUMPDEST SWAP1 POP PUSH2 0x38F9 DUP3 DUP3 PUSH2 0x38B2 JUMP JUMPDEST SWAP2 SWAP1 POP JUMP JUMPDEST PUSH1 0x0 PUSH8 0xFFFFFFFFFFFFFFFF DUP3 GT ISZERO PUSH2 0x3919 JUMPI PUSH2 0x3918 PUSH2 0x3883 JUMP JUMPDEST JUMPDEST PUSH2 0x3922 DUP3 PUSH2 0x3872 JUMP JUMPDEST SWAP1 POP PUSH1 0x20 DUP2 ADD SWAP1 POP SWAP2 SWAP1 POP JUMP JUMPDEST DUP3 DUP2 DUP4 CALLDATACOPY PUSH1 0x0 DUP4 DUP4 ADD MSTORE POP POP POP JUMP JUMPDEST PUSH1 0x0 PUSH2 0x3951 PUSH2 0x394C DUP5 PUSH2 0x38FE JUMP JUMPDEST PUSH2 0x38E3 JUMP JUMPDEST SWAP1 POP DUP3 DUP2 MSTORE PUSH1 0x20 DUP2 ADD DUP5 DUP5 DUP5 ADD GT ISZERO PUSH2 0x396D JUMPI PUSH2 0x396C PUSH2 0x386D JUMP JUMPDEST JUMPDEST PUSH2 0x3978 DUP5 DUP3 DUP6 PUSH2 0x392F JUMP JUMPDEST POP SWAP4 SWAP3 POP POP POP JUMP JUMPDEST PUSH1 0x0 DUP3 PUSH1 0x1F DUP4 ADD SLT PUSH2 0x3995 JUMPI PUSH2 0x3994 PUSH2 0x36B4 JUMP JUMPDEST JUMPDEST DUP2 CALLDATALOAD PUSH2 0x39A5 DUP5 DUP3 PUSH1 0x20 DUP7 ADD PUSH2 0x393E JUMP JUMPDEST SWAP2 POP POP SWAP3 SWAP2 POP POP JUMP JUMPDEST PUSH1 0x0 PUSH1 0x20 DUP3 DUP5 SUB SLT ISZERO PUSH2 0x39C4 JUMPI PUSH2 0x39C3 PUSH2 0x3608 JUMP JUMPDEST JUMPDEST PUSH1 0x0 DUP3 ADD CALLDATALOAD PUSH8 0xFFFFFFFFFFFFFFFF DUP2 GT ISZERO PUSH2 0x39E2 JUMPI PUSH2 0x39E1 PUSH2 0x360D JUMP JUMPDEST JUMPDEST PUSH2 0x39EE DUP5 DUP3 DUP6 ADD PUSH2 0x3980 JUMP JUMPDEST SWAP2 POP POP SWAP3 SWAP2 POP POP JUMP JUMPDEST PUSH1 0x0 DUP2 PUSH1 0x3 SIGNEXTEND SWAP1 POP SWAP2 SWAP1 POP JUMP JUMPDEST PUSH2 0x3A0D DUP2 PUSH2 0x39F7 JUMP JUMPDEST DUP3 MSTORE POP POP JUMP JUMPDEST PUSH2 0x3A1C DUP2 PUSH2 0x363E JUMP JUMPDEST DUP3 MSTORE POP POP JUMP JUMPDEST PUSH1 0x0 DUP2 MLOAD SWAP1 POP SWAP2 SWAP1 POP JUMP JUMPDEST PUSH1 0x0 DUP3 DUP3 MSTORE PUSH1 0x20 DUP3 ADD SWAP1 POP SWAP3 SWAP2 POP POP JUMP JUMPDEST PUSH1 0x0 DUP2 SWAP1 POP PUSH1 0x20 DUP3 ADD SWAP1 POP SWAP2 SWAP1 POP JUMP JUMPDEST PUSH2 0x3A57 DUP2 PUSH2 0x363E JUMP JUMPDEST DUP3 MSTORE POP POP JUMP JUMPDEST PUSH1 0x0 PUSH2 0x3A69 DUP4 DUP4 PUSH2 0x3A4E JUMP JUMPDEST PUSH1 0x20 DUP4 ADD SWAP1 POP SWAP3 SWAP2 POP POP JUMP JUMPDEST PUSH1 0x0 PUSH1 0x20 DUP3 ADD SWAP1 POP SWAP2 SWAP1 POP JUMP JUMPDEST PUSH1 0x0 PUSH2 0x3A8D DUP3 PUSH2 0x3A22 JUMP JUMPDEST PUSH2 0x3A97 DUP2 DUP6 PUSH2 0x3A2D JUMP JUMPDEST SWAP4 POP PUSH2 0x3AA2 DUP4 PUSH2 0x3A3E JUMP JUMPDEST DUP1 PUSH1 0x0 JUMPDEST DUP4 DUP2 LT ISZERO PUSH2 0x3AD3 JUMPI DUP2 MLOAD PUSH2 0x3ABA DUP9 DUP3 PUSH2 0x3A5D JUMP JUMPDEST SWAP8 POP PUSH2 0x3AC5 DUP4 PUSH2 0x3A75 JUMP JUMPDEST SWAP3 POP POP PUSH1 0x1 DUP2 ADD SWAP1 POP PUSH2 0x3AA6 JUMP JUMPDEST POP DUP6 SWAP4 POP POP POP POP SWAP3 SWAP2 POP POP JUMP JUMPDEST PUSH1 0x0 DUP2 MLOAD SWAP1 POP SWAP2 SWAP1 POP JUMP JUMPDEST PUSH1 0x0 DUP3 DUP3 MSTORE PUSH1 0x20 DUP3 ADD SWAP1 POP SWAP3 SWAP2 POP POP JUMP JUMPDEST PUSH1 0x0 DUP2 SWAP1 POP PUSH1 0x20 DUP3 ADD SWAP1 POP SWAP2 SWAP1 POP JUMP JUMPDEST PUSH2 0x3B15 DUP2 PUSH2 0x35C2 JUMP JUMPDEST DUP3 MSTORE POP POP JUMP JUMPDEST PUSH1 0x0 PUSH2 0x3B27 DUP4 DUP4 PUSH2 0x3B0C JUMP JUMPDEST PUSH1 0x20 DUP4 ADD SWAP1 POP SWAP3 SWAP2 POP POP JUMP JUMPDEST PUSH1 0x0 PUSH1 0x20 DUP3 ADD SWAP1 POP SWAP2 SWAP1 POP JUMP JUMPDEST PUSH1 0x0 PUSH2 0x3B4B DUP3 PUSH2 0x3AE0 JUMP JUMPDEST PUSH2 0x3B55 DUP2 DUP6 PUSH2 0x3AEB JUMP JUMPDEST SWAP4 POP PUSH2 0x3B60 DUP4 PUSH2 0x3AFC JUMP JUMPDEST DUP1 PUSH1 0x0 JUMPDEST DUP4 DUP2 LT ISZERO PUSH2 0x3B91 JUMPI DUP2 MLOAD PUSH2 0x3B78 DUP9 DUP3 PUSH2 0x3B1B JUMP JUMPDEST SWAP8 POP PUSH2 0x3B83 DUP4 PUSH2 0x3B33 JUMP JUMPDEST SWAP3 POP POP PUSH1 0x1 DUP2 ADD SWAP1 POP PUSH2 0x3B64 JUMP JUMPDEST POP DUP6 SWAP4 POP POP POP POP SWAP3 SWAP2 POP POP JUMP JUMPDEST PUSH1 0x0 DUP2 MLOAD SWAP1 POP SWAP2 SWAP1 POP JUMP JUMPDEST PUSH1 0x0 DUP3 DUP3 MSTORE PUSH1 0x20 DUP3 ADD SWAP1 POP SWAP3 SWAP2 POP POP JUMP JUMPDEST PUSH1 0x0 DUP2 SWAP1 POP PUSH1 0x20 DUP3 ADD SWAP1 POP SWAP2 SWAP1 POP JUMP JUMPDEST PUSH1 0x0 DUP2 MLOAD SWAP1 POP SWAP2 SWAP1 POP JUMP JUMPDEST PUSH1 0x0 DUP3 DUP3 MSTORE PUSH1 0x20 DUP3 ADD SWAP1 POP SWAP3 SWAP2 POP POP JUMP JUMPDEST PUSH1 0x0 JUMPDEST DUP4 DUP2 LT ISZERO PUSH2 0x3C04 JUMPI DUP1 DUP3 ADD MLOAD DUP2 DUP5 ADD MSTORE PUSH1 0x20 DUP2 ADD SWAP1 POP PUSH2 0x3BE9 JUMP JUMPDEST PUSH1 0x0 DUP5 DUP5 ADD MSTORE POP POP POP POP JUMP JUMPDEST PUSH1 0x0 PUSH2 0x3C1B DUP3 PUSH2 0x3BCA JUMP JUMPDEST PUSH2 0x3C25 DUP2 DUP6 PUSH2 0x3BD5 JUMP JUMPDEST SWAP4 POP PUSH2 0x3C35 DUP2 DUP6 PUSH1 0x20 DUP7 ADD PUSH2 0x3BE6 JUMP JUMPDEST PUSH2 0x3C3E DUP2 PUSH2 0x3872 JUMP JUMPDEST DUP5 ADD SWAP2 POP POP SWAP3 SWAP2 POP POP JUMP JUMPDEST PUSH1 0x0 PUSH2 0x3C55 DUP4 DUP4 PUSH2 0x3C10 JUMP JUMPDEST SWAP1 POP SWAP3 SWAP2 POP POP JUMP JUMPDEST PUSH1 0x0 PUSH1 0x20 DUP3 ADD SWAP1 POP SWAP2 SWAP1 POP JUMP JUMPDEST PUSH1 0x0 PUSH2 0x3C75 DUP3 PUSH2 0x3B9E JUMP JUMPDEST PUSH2 0x3C7F DUP2 DUP6 PUSH2 0x3BA9 JUMP JUMPDEST SWAP4 POP DUP4 PUSH1 0x20 DUP3 MUL DUP6 ADD PUSH2 0x3C91 DUP6 PUSH2 0x3BBA JUMP JUMPDEST DUP1 PUSH1 0x0 JUMPDEST DUP6 DUP2 LT ISZERO PUSH2 0x3CCD JUMPI DUP5 DUP5 SUB DUP10 MSTORE DUP2 MLOAD PUSH2 0x3CAE DUP6 DUP3 PUSH2 0x3C49 JUMP JUMPDEST SWAP5 POP PUSH2 0x3CB9 DUP4 PUSH2 0x3C5D JUMP JUMPDEST SWAP3 POP PUSH1 0x20 DUP11 ADD SWAP10 POP POP PUSH1 0x1 DUP2 ADD SWAP1 POP PUSH2 0x3C95 JUMP JUMPDEST POP DUP3 SWAP8 POP DUP8 SWAP6 POP POP POP POP POP POP SWAP3 SWAP2 POP POP JUMP JUMPDEST PUSH1 0x0 PUSH2 0x100 DUP4 ADD PUSH1 0x0 DUP4 ADD MLOAD DUP5 DUP3 SUB PUSH1 0x0 DUP7 ADD MSTORE PUSH2 0x3CFD DUP3 DUP3 PUSH2 0x3A82 JUMP JUMPDEST SWAP2 POP POP PUSH1 0x20 DUP4 ADD MLOAD DUP5 DUP3 SUB PUSH1 0x20 DUP7 ADD MSTORE PUSH2 0x3D17 DUP3 DUP3 PUSH2 0x3B40 JUMP JUMPDEST SWAP2 POP POP PUSH1 0x40 DUP4 ADD MLOAD DUP5 DUP3 SUB PUSH1 0x40 DUP7 ADD MSTORE PUSH2 0x3D31 DUP3 DUP3 PUSH2 0x3C6A JUMP JUMPDEST SWAP2 POP POP PUSH1 0x60 DUP4 ADD MLOAD DUP5 DUP3 SUB PUSH1 0x60 DUP7 ADD MSTORE PUSH2 0x3D4B DUP3 DUP3 PUSH2 0x3C6A JUMP JUMPDEST SWAP2 POP POP PUSH1 0x80 DUP4 ADD MLOAD DUP5 DUP3 SUB PUSH1 0x80 DUP7 ADD MSTORE PUSH2 0x3D65 DUP3 DUP3 PUSH2 0x3C6A JUMP JUMPDEST SWAP2 POP POP PUSH1 0xA0 DUP4 ADD MLOAD PUSH2 0x3D7A PUSH1 0xA0 DUP7 ADD DUP3 PUSH2 0x3A4E JUMP JUMPDEST POP PUSH1 0xC0 DUP4 ADD MLOAD PUSH2 0x3D8D PUSH1 0xC0 DUP7 ADD DUP3 PUSH2 0x3A4E JUMP JUMPDEST POP PUSH1 0xE0 DUP4 ADD MLOAD PUSH2 0x3DA0 PUSH1 0xE0 DUP7 ADD DUP3 PUSH2 0x3A4E JUMP JUMPDEST POP DUP1 SWAP2 POP POP SWAP3 SWAP2 POP POP JUMP JUMPDEST PUSH1 0x0 DUP2 PUSH1 0x7 SIGNEXTEND SWAP1 POP SWAP2 SWAP1 POP JUMP JUMPDEST PUSH2 0x3DC1 DUP2 PUSH2 0x3DAB JUMP JUMPDEST DUP3 MSTORE POP POP JUMP JUMPDEST PUSH1 0x0 PUSH2 0x120 DUP3 ADD SWAP1 POP PUSH2 0x3DDD PUSH1 0x0 DUP4 ADD DUP13 PUSH2 0x3772 JUMP JUMPDEST PUSH2 0x3DEA PUSH1 0x20 DUP4 ADD DUP12 PUSH2 0x3A04 JUMP JUMPDEST PUSH2 0x3DF7 PUSH1 0x40 DUP4 ADD DUP11 PUSH2 0x3A04 JUMP JUMPDEST PUSH2 0x3E04 PUSH1 0x60 DUP4 ADD DUP10 PUSH2 0x3A13 JUMP JUMPDEST PUSH2 0x3E11 PUSH1 0x80 DUP4 ADD DUP9 PUSH2 0x3A13 JUMP JUMPDEST PUSH2 0x3E1E PUSH1 0xA0 DUP4 ADD DUP8 PUSH2 0x3A13 JUMP JUMPDEST DUP2 DUP2 SUB PUSH1 0xC0 DUP4 ADD MSTORE PUSH2 0x3E30 DUP2 DUP7 PUSH2 0x3CDF JUMP JUMPDEST SWAP1 POP DUP2 DUP2 SUB PUSH1 0xE0 DUP4 ADD MSTORE PUSH2 0x3E44 DUP2 DUP6 PUSH2 0x3CDF JUMP JUMPDEST SWAP1 POP PUSH2 0x3E54 PUSH2 0x100 DUP4 ADD DUP5 PUSH2 0x3DB8 JUMP JUMPDEST SWAP11 SWAP10 POP POP POP POP POP POP POP POP POP POP JUMP JUMPDEST PUSH1 0x0 DUP2 MLOAD SWAP1 POP SWAP2 SWAP1 POP JUMP JUMPDEST PUSH1 0x0 DUP3 DUP3 MSTORE PUSH1 0x20 DUP3 ADD SWAP1 POP SWAP3 SWAP2 POP POP JUMP JUMPDEST PUSH1 0x0 PUSH2 0x3E89 DUP3 PUSH2 0x3E62 JUMP JUMPDEST PUSH2 0x3E93 DUP2 DUP6 PUSH2 0x3E6D JUMP JUMPDEST SWAP4 POP PUSH2 0x3EA3 DUP2 DUP6 PUSH1 0x20 DUP7 ADD PUSH2 0x3BE6 JUMP JUMPDEST PUSH2 0x3EAC DUP2 PUSH2 0x3872 JUMP JUMPDEST DUP5 ADD SWAP2 POP POP SWAP3 SWAP2 POP POP JUMP JUMPDEST PUSH1 0x0 PUSH1 0x20 DUP3 ADD SWAP1 POP DUP2 DUP2 SUB PUSH1 0x0 DUP4 ADD MSTORE PUSH2 0x3ED1 DUP2 DUP5 PUSH2 0x3E7E JUMP JUMPDEST SWAP1 POP SWAP3 SWAP2 POP POP JUMP JUMPDEST PUSH1 0x0 PUSH1 0x20 DUP3 ADD SWAP1 POP PUSH2 0x3EEE PUSH1 0x0 DUP4 ADD DUP5 PUSH2 0x3A13 JUMP JUMPDEST SWAP3 SWAP2 POP POP JUMP JUMPDEST PUSH2 0x3EFD DUP2 PUSH2 0x3809 JUMP JUMPDEST DUP2 EQ PUSH2 0x3F08 JUMPI PUSH1 0x0 DUP1 REVERT JUMPDEST POP JUMP JUMPDEST PUSH1 0x0 DUP2 CALLDATALOAD SWAP1 POP PUSH2 0x3F1A DUP2 PUSH2 0x3EF4 JUMP JUMPDEST SWAP3 SWAP2 POP POP JUMP JUMPDEST PUSH1 0x0 PUSH1 0x20 DUP3 DUP5 SUB SLT ISZERO PUSH2 0x3F36 JUMPI PUSH2 0x3F35 PUSH2 0x3608 JUMP JUMPDEST JUMPDEST PUSH1 0x0 PUSH2 0x3F44 DUP5 DUP3 DUP6 ADD PUSH2 0x3F0B JUMP JUMPDEST SWAP2 POP POP SWAP3 SWAP2 POP POP JUMP JUMPDEST PUSH1 0x0 PUSH4 0xFFFFFFFF DUP3 AND SWAP1 POP SWAP2 SWAP1 POP JUMP JUMPDEST PUSH2 0x3F66 DUP2 PUSH2 0x3F4D JUMP JUMPDEST DUP2 EQ PUSH2 0x3F71 JUMPI PUSH1 0x0 DUP1 REVERT JUMPDEST POP JUMP JUMPDEST PUSH1 0x0 DUP2 CALLDATALOAD SWAP1 POP PUSH2 0x3F83 DUP2 PUSH2 0x3F5D JUMP JUMPDEST SWAP3 SWAP2 POP POP JUMP JUMPDEST PUSH2 0x3F92 DUP2 PUSH2 0x3DAB JUMP JUMPDEST DUP2 EQ PUSH2 0x3F9D JUMPI PUSH1 0x0 DUP1 REVERT JUMPDEST POP JUMP JUMPDEST PUSH1 0x0 DUP2 CALLDATALOAD SWAP1 POP PUSH2 0x3FAF DUP2 PUSH2 0x3F89 JUMP JUMPDEST SWAP3 SWAP2 POP POP JUMP JUMPDEST PUSH1 0x0 DUP1 PUSH1 0x0 DUP1 PUSH1 0x60 DUP6 DUP8 SUB SLT ISZERO PUSH2 0x3FCF JUMPI PUSH2 0x3FCE PUSH2 0x3608 JUMP JUMPDEST JUMPDEST PUSH1 0x0 DUP6 ADD CALLDATALOAD PUSH8 0xFFFFFFFFFFFFFFFF DUP2 GT ISZERO PUSH2 0x3FED JUMPI PUSH2 0x3FEC PUSH2 0x360D JUMP JUMPDEST JUMPDEST PUSH2 0x3FF9 DUP8 DUP3 DUP9 ADD PUSH2 0x36C3 JUMP JUMPDEST SWAP5 POP SWAP5 POP POP PUSH1 0x20 PUSH2 0x400C DUP8 DUP3 DUP9 ADD PUSH2 0x3F74 JUMP JUMPDEST SWAP3 POP POP PUSH1 0x40 PUSH2 0x401D DUP8 DUP3 DUP9 ADD PUSH2 0x3FA0 JUMP JUMPDEST SWAP2 POP POP SWAP3 SWAP6 SWAP2 SWAP5 POP SWAP3 POP JUMP JUMPDEST PUSH2 0x4032 DUP2 PUSH2 0x39F7 JUMP JUMPDEST DUP2 EQ PUSH2 0x403D JUMPI PUSH1 0x0 DUP1 REVERT JUMPDEST POP JUMP JUMPDEST PUSH1 0x0 DUP2 CALLDATALOAD SWAP1 POP PUSH2 0x404F DUP2 PUSH2 0x4029 JUMP JUMPDEST SWAP3 SWAP2 POP POP JUMP JUMPDEST PUSH1 0x0 DUP1 PUSH1 0x0 DUP1 PUSH1 0x0 PUSH1 0x80 DUP7 DUP9 SUB SLT ISZERO PUSH2 0x4071 JUMPI PUSH2 0x4070 PUSH2 0x3608 JUMP JUMPDEST JUMPDEST PUSH1 0x0 DUP7 ADD CALLDATALOAD PUSH8 0xFFFFFFFFFFFFFFFF DUP2 GT ISZERO PUSH2 0x408F JUMPI PUSH2 0x408E PUSH2 0x360D JUMP JUMPDEST JUMPDEST PUSH2 0x409B DUP9 DUP3 DUP10 ADD PUSH2 0x36C3 JUMP JUMPDEST SWAP6 POP SWAP6 POP POP PUSH1 0x20 PUSH2 0x40AE DUP9 DUP3 DUP10 ADD PUSH2 0x3FA0 JUMP JUMPDEST SWAP4 POP POP PUSH1 0x40 PUSH2 0x40BF DUP9 DUP3 DUP10 ADD PUSH2 0x4040 JUMP JUMPDEST SWAP3 POP POP PUSH1 0x60 PUSH2 0x40D0 DUP9 DUP3 DUP10 ADD PUSH2 0x3F74 JUMP JUMPDEST SWAP2 POP POP SWAP3 SWAP6 POP SWAP3 SWAP6 SWAP1 SWAP4 POP JUMP JUMPDEST PUSH1 0x0 DUP1 PUSH1 0x0 DUP1 PUSH1 0x0 PUSH1 0x80 DUP7 DUP9 SUB SLT ISZERO PUSH2 0x40F9 JUMPI PUSH2 0x40F8 PUSH2 0x3608 JUMP JUMPDEST JUMPDEST PUSH1 0x0 DUP7 ADD CALLDATALOAD PUSH8 0xFFFFFFFFFFFFFFFF DUP2 GT ISZERO PUSH2 0x4117 JUMPI PUSH2 0x4116 PUSH2 0x360D JUMP JUMPDEST JUMPDEST PUSH2 0x4123 DUP9 DUP3 DUP10 ADD PUSH2 0x36C3 JUMP JUMPDEST SWAP6 POP SWAP6 POP POP PUSH1 0x20 PUSH2 0x4136 DUP9 DUP3 DUP10 ADD PUSH2 0x365F JUMP JUMPDEST SWAP4 POP POP PUSH1 0x40 PUSH2 0x4147 DUP9 DUP3 DUP10 ADD PUSH2 0x365F JUMP JUMPDEST SWAP3 POP POP PUSH1 0x60 PUSH2 0x4158 DUP9 DUP3 DUP10 ADD PUSH2 0x365F JUMP JUMPDEST SWAP2 POP POP SWAP3 SWAP6 POP SWAP3 SWAP6 SWAP1 SWAP4 POP JUMP JUMPDEST PUSH1 0x0 DUP3 DUP3 MSTORE PUSH1 0x20 DUP3 ADD SWAP1 POP SWAP3 SWAP2 POP POP JUMP JUMPDEST PUSH32 0x4E6F7420656E6F7567682062616C616E636520696E2074686520636F6E747261 PUSH1 0x0 DUP3 ADD MSTORE PUSH32 0x6374000000000000000000000000000000000000000000000000000000000000 PUSH1 0x20 DUP3 ADD MSTORE POP JUMP JUMPDEST PUSH1 0x0 PUSH2 0x41D2 PUSH1 0x22 DUP4 PUSH2 0x4165 JUMP JUMPDEST SWAP2 POP PUSH2 0x41DD DUP3 PUSH2 0x4176 JUMP JUMPDEST PUSH1 0x40 DUP3 ADD SWAP1 POP SWAP2 SWAP1 POP JUMP JUMPDEST PUSH1 0x0 PUSH1 0x20 DUP3 ADD SWAP1 POP DUP2 DUP2 SUB PUSH1 0x0 DUP4 ADD MSTORE PUSH2 0x4201 DUP2 PUSH2 0x41C5 JUMP JUMPDEST SWAP1 POP SWAP2 SWAP1 POP JUMP JUMPDEST PUSH1 0x0 DUP2 SWAP1 POP SWAP3 SWAP2 POP POP JUMP JUMPDEST PUSH1 0x0 PUSH2 0x421F DUP4 DUP6 PUSH2 0x4208 JUMP JUMPDEST SWAP4 POP PUSH2 0x422C DUP4 DUP6 DUP5 PUSH2 0x392F JUMP JUMPDEST DUP3 DUP5 ADD SWAP1 POP SWAP4 SWAP3 POP POP POP JUMP JUMPDEST PUSH1 0x0 PUSH2 0x4245 DUP3 DUP5 DUP7 PUSH2 0x4213 JUMP JUMPDEST SWAP2 POP DUP2 SWAP1 POP SWAP4 SWAP3 POP POP POP JUMP JUMPDEST PUSH32 0x4E487B7100000000000000000000000000000000000000000000000000000000 PUSH1 0x0 MSTORE PUSH1 0x11 PUSH1 0x4 MSTORE PUSH1 0x24 PUSH1 0x0 REVERT JUMPDEST PUSH1 0x0 PUSH2 0x428B DUP3 PUSH2 0x363E JUMP JUMPDEST SWAP2 POP PUSH2 0x4296 DUP4 PUSH2 0x363E JUMP JUMPDEST SWAP3 POP DUP3 DUP3 ADD SWAP1 POP DUP1 DUP3 GT ISZERO PUSH2 0x42AE JUMPI PUSH2 0x42AD PUSH2 0x4251 JUMP JUMPDEST JUMPDEST SWAP3 SWAP2 POP POP JUMP JUMPDEST PUSH1 0x0 DUP1 REVERT JUMPDEST PUSH1 0x0 DUP1 REVERT JUMPDEST PUSH1 0x0 DUP1 REVERT JUMPDEST PUSH1 0x0 DUP1 DUP4 CALLDATALOAD PUSH1 0x1 PUSH1 0x20 SUB DUP5 CALLDATASIZE SUB SUB DUP2 SLT PUSH2 0x42E0 JUMPI PUSH2 0x42DF PUSH2 0x42B4 JUMP JUMPDEST JUMPDEST DUP1 DUP5 ADD SWAP3 POP DUP3 CALLDATALOAD SWAP2 POP PUSH8 0xFFFFFFFFFFFFFFFF DUP3 GT ISZERO PUSH2 0x4302 JUMPI PUSH2 0x4301 PUSH2 0x42B9 JUMP JUMPDEST JUMPDEST PUSH1 0x20 DUP4 ADD SWAP3 POP PUSH1 0x1 DUP3 MUL CALLDATASIZE SUB DUP4 SGT ISZERO PUSH2 0x431E JUMPI PUSH2 0x431D PUSH2 0x42BE JUMP JUMPDEST JUMPDEST POP SWAP3 POP SWAP3 SWAP1 POP JUMP JUMPDEST PUSH32 0x5468697320706F6F6C20686173206120726F756E6420696E2070726F67726573 PUSH1 0x0 DUP3 ADD MSTORE PUSH32 0x7300000000000000000000000000000000000000000000000000000000000000 PUSH1 0x20 DUP3 ADD MSTORE POP JUMP JUMPDEST PUSH1 0x0 PUSH2 0x4382 PUSH1 0x21 DUP4 PUSH2 0x4165 JUMP JUMPDEST SWAP2 POP PUSH2 0x438D DUP3 PUSH2 0x4326 JUMP JUMPDEST PUSH1 0x40 DUP3 ADD SWAP1 POP SWAP2 SWAP1 POP JUMP JUMPDEST PUSH1 0x0 PUSH1 0x20 DUP3 ADD SWAP1 POP DUP2 DUP2 SUB PUSH1 0x0 DUP4 ADD MSTORE PUSH2 0x43B1 DUP2 PUSH2 0x4375 JUMP JUMPDEST SWAP1 POP SWAP2 SWAP1 POP JUMP JUMPDEST PUSH32 0x5468652067616D65206973206E6F742072756E6E696E67000000000000000000 PUSH1 0x0 DUP3 ADD MSTORE POP JUMP JUMPDEST PUSH1 0x0 PUSH2 0x43EE PUSH1 0x17 DUP4 PUSH2 0x4165 JUMP JUMPDEST SWAP2 POP PUSH2 0x43F9 DUP3 PUSH2 0x43B8 JUMP JUMPDEST PUSH1 0x20 DUP3 ADD SWAP1 POP SWAP2 SWAP1 POP JUMP JUMPDEST PUSH1 0x0 PUSH1 0x20 DUP3 ADD SWAP1 POP DUP2 DUP2 SUB PUSH1 0x0 DUP4 ADD MSTORE PUSH2 0x441D DUP2 PUSH2 0x43E1 JUMP JUMPDEST SWAP1 POP SWAP2 SWAP1 POP JUMP JUMPDEST PUSH32 0x506F6F6C20646F6573206E6F7420657869737400000000000000000000000000 PUSH1 0x0 DUP3 ADD MSTORE POP JUMP JUMPDEST PUSH1 0x0 PUSH2 0x445A PUSH1 0x13 DUP4 PUSH2 0x4165 JUMP JUMPDEST SWAP2 POP PUSH2 0x4465 DUP3 PUSH2 0x4424 JUMP JUMPDEST PUSH1 0x20 DUP3 ADD SWAP1 POP SWAP2 SWAP1 POP JUMP JUMPDEST PUSH1 0x0 PUSH1 0x20 DUP3 ADD SWAP1 POP DUP2 DUP2 SUB PUSH1 0x0 DUP4 ADD MSTORE PUSH2 0x4489 DUP2 PUSH2 0x444D JUMP JUMPDEST SWAP1 POP SWAP2 SWAP1 POP JUMP JUMPDEST PUSH32 0x6D75737420626520454F41000000000000000000000000000000000000000000 PUSH1 0x0 DUP3 ADD MSTORE POP JUMP JUMPDEST PUSH1 0x0 PUSH2 0x44C6 PUSH1 0xB DUP4 PUSH2 0x4165 JUMP JUMPDEST SWAP2 POP PUSH2 0x44D1 DUP3 PUSH2 0x4490 JUMP JUMPDEST PUSH1 0x20 DUP3 ADD SWAP1 POP SWAP2 SWAP1 POP JUMP JUMPDEST PUSH1 0x0 PUSH1 0x20 DUP3 ADD SWAP1 POP DUP2 DUP2 SUB PUSH1 0x0 DUP4 ADD MSTORE PUSH2 0x44F5 DUP2 PUSH2 0x44B9 JUMP JUMPDEST SWAP1 POP SWAP2 SWAP1 POP JUMP JUMPDEST PUSH32 0x76616C7565206D7573742062652067726561746572207468616E207A65726F00 PUSH1 0x0 DUP3 ADD MSTORE POP JUMP JUMPDEST PUSH1 0x0 PUSH2 0x4532 PUSH1 0x1F DUP4 PUSH2 0x4165 JUMP JUMPDEST SWAP2 POP PUSH2 0x453D DUP3 PUSH2 0x44FC JUMP JUMPDEST PUSH1 0x20 DUP3 ADD SWAP1 POP SWAP2 SWAP1 POP JUMP JUMPDEST PUSH1 0x0 PUSH1 0x20 DUP3 ADD SWAP1 POP DUP2 DUP2 SUB PUSH1 0x0 DUP4 ADD MSTORE PUSH2 0x4561 DUP2 PUSH2 0x4525 JUMP JUMPDEST SWAP1 POP SWAP2 SWAP1 POP JUMP JUMPDEST PUSH32 0x616D6F756E742073686F756C6420626520686967686572207468616E20746865 PUSH1 0x0 DUP3 ADD MSTORE PUSH32 0x206D696E696D756D000000000000000000000000000000000000000000000000 PUSH1 0x20 DUP3 ADD MSTORE POP JUMP JUMPDEST PUSH1 0x0 PUSH2 0x45C4 PUSH1 0x28 DUP4 PUSH2 0x4165 JUMP JUMPDEST SWAP2 POP PUSH2 0x45CF DUP3 PUSH2 0x4568 JUMP JUMPDEST PUSH1 0x40 DUP3 ADD SWAP1 POP SWAP2 SWAP1 POP JUMP JUMPDEST PUSH1 0x0 PUSH1 0x20 DUP3 ADD SWAP1 POP DUP2 DUP2 SUB PUSH1 0x0 DUP4 ADD MSTORE PUSH2 0x45F3 DUP2 PUSH2 0x45B7 JUMP JUMPDEST SWAP1 POP SWAP2 SWAP1 POP JUMP JUMPDEST PUSH32 0x616D6F756E742073686F756C64206265206C6F776572207468616E2074686520 PUSH1 0x0 DUP3 ADD MSTORE PUSH32 0x6D6178696D756D00000000000000000000000000000000000000000000000000 PUSH1 0x20 DUP3 ADD MSTORE POP JUMP JUMPDEST PUSH1 0x0 PUSH2 0x4656 PUSH1 0x27 DUP4 PUSH2 0x4165 JUMP JUMPDEST SWAP2 POP PUSH2 0x4661 DUP3 PUSH2 0x45FA JUMP JUMPDEST PUSH1 0x40 DUP3 ADD SWAP1 POP SWAP2 SWAP1 POP JUMP JUMPDEST PUSH1 0x0 PUSH1 0x20 DUP3 ADD SWAP1 POP DUP2 DUP2 SUB PUSH1 0x0 DUP4 ADD MSTORE PUSH2 0x4685 DUP2 PUSH2 0x4649 JUMP JUMPDEST SWAP1 POP SWAP2 SWAP1 POP JUMP JUMPDEST PUSH2 0x4695 DUP2 PUSH2 0x3766 JUMP JUMPDEST DUP2 EQ PUSH2 0x46A0 JUMPI PUSH1 0x0 DUP1 REVERT JUMPDEST POP JUMP JUMPDEST PUSH1 0x0 DUP2 CALLDATALOAD SWAP1 POP PUSH2 0x46B2 DUP2 PUSH2 0x468C JUMP JUMPDEST SWAP3 SWAP2 POP POP JUMP JUMPDEST PUSH1 0x0 PUSH1 0x20 DUP3 DUP5 SUB SLT ISZERO PUSH2 0x46CE JUMPI PUSH2 0x46CD PUSH2 0x3608 JUMP JUMPDEST JUMPDEST PUSH1 0x0 PUSH2 0x46DC DUP5 DUP3 DUP6 ADD PUSH2 0x46A3 JUMP JUMPDEST SWAP2 POP POP SWAP3 SWAP2 POP POP JUMP JUMPDEST PUSH1 0x0 PUSH2 0x46F0 DUP3 PUSH2 0x363E JUMP JUMPDEST SWAP2 POP PUSH2 0x46FB DUP4 PUSH2 0x363E JUMP JUMPDEST SWAP3 POP DUP3 DUP3 SUB SWAP1 POP DUP2 DUP2 GT ISZERO PUSH2 0x4713 JUMPI PUSH2 0x4712 PUSH2 0x4251 JUMP JUMPDEST JUMPDEST SWAP3 SWAP2 POP POP JUMP JUMPDEST PUSH32 0x506F6F6C2069732066756C6C2C207761697420666F72206E65787420726F756E PUSH1 0x0 DUP3 ADD MSTORE PUSH32 0x6400000000000000000000000000000000000000000000000000000000000000 PUSH1 0x20 DUP3 ADD MSTORE POP JUMP JUMPDEST PUSH1 0x0 PUSH2 0x4775 PUSH1 0x21 DUP4 PUSH2 0x4165 JUMP JUMPDEST SWAP2 POP PUSH2 0x4780 DUP3 PUSH2 0x4719 JUMP JUMPDEST PUSH1 0x40 DUP3 ADD SWAP1 POP SWAP2 SWAP1 POP JUMP JUMPDEST PUSH1 0x0 PUSH1 0x20 DUP3 ADD SWAP1 POP DUP2 DUP2 SUB PUSH1 0x0 DUP4 ADD MSTORE PUSH2 0x47A4 DUP2 PUSH2 0x4768 JUMP JUMPDEST SWAP1 POP SWAP2 SWAP1 POP JUMP JUMPDEST PUSH1 0x0 DUP1 DUP4 CALLDATALOAD PUSH1 0x1 PUSH1 0x20 SUB DUP5 CALLDATASIZE SUB SUB DUP2 SLT PUSH2 0x47C8 JUMPI PUSH2 0x47C7 PUSH2 0x42B4 JUMP JUMPDEST JUMPDEST DUP1 DUP5 ADD SWAP3 POP DUP3 CALLDATALOAD SWAP2 POP PUSH8 0xFFFFFFFFFFFFFFFF DUP3 GT ISZERO PUSH2 0x47EA JUMPI PUSH2 0x47E9 PUSH2 0x42B9 JUMP JUMPDEST JUMPDEST PUSH1 0x20 DUP4 ADD SWAP3 POP PUSH1 0x1 DUP3 MUL CALLDATASIZE SUB DUP4 SGT ISZERO PUSH2 0x4806 JUMPI PUSH2 0x4805 PUSH2 0x42BE JUMP JUMPDEST JUMPDEST POP SWAP3 POP SWAP3 SWAP1 POP JUMP JUMPDEST PUSH1 0x0 PUSH2 0x481A DUP4 DUP6 PUSH2 0x3E6D JUMP JUMPDEST SWAP4 POP PUSH2 0x4827 DUP4 DUP6 DUP5 PUSH2 0x392F JUMP JUMPDEST PUSH2 0x4830 DUP4 PUSH2 0x3872 JUMP JUMPDEST DUP5 ADD SWAP1 POP SWAP4 SWAP3 POP POP POP JUMP JUMPDEST PUSH1 0x0 PUSH2 0x4846 DUP3 PUSH2 0x3BCA JUMP JUMPDEST PUSH2 0x4850 DUP2 DUP6 PUSH2 0x4165 JUMP JUMPDEST SWAP4 POP PUSH2 0x4860 DUP2 DUP6 PUSH1 0x20 DUP7 ADD PUSH2 0x3BE6 JUMP JUMPDEST PUSH2 0x4869 DUP2 PUSH2 0x3872 JUMP JUMPDEST DUP5 ADD SWAP2 POP POP SWAP3 SWAP2 POP POP JUMP JUMPDEST PUSH1 0x0 PUSH2 0x140 DUP3 ADD SWAP1 POP DUP2 DUP2 SUB PUSH1 0x0 DUP4 ADD MSTORE PUSH2 0x4890 DUP2 DUP14 DUP16 PUSH2 0x480E JUMP JUMPDEST SWAP1 POP PUSH2 0x489F PUSH1 0x20 DUP4 ADD DUP13 PUSH2 0x35D4 JUMP JUMPDEST PUSH2 0x48AC PUSH1 0x40 DUP4 ADD DUP12 PUSH2 0x3A13 JUMP JUMPDEST DUP2 DUP2 SUB PUSH1 0x60 DUP4 ADD MSTORE PUSH2 0x48BE DUP2 DUP11 PUSH2 0x483B JUMP JUMPDEST SWAP1 POP PUSH2 0x48CD PUSH1 0x80 DUP4 ADD DUP10 PUSH2 0x3A13 JUMP JUMPDEST DUP2 DUP2 SUB PUSH1 0xA0 DUP4 ADD MSTORE PUSH2 0x48DF DUP2 DUP9 PUSH2 0x483B JUMP JUMPDEST SWAP1 POP DUP2 DUP2 SUB PUSH1 0xC0 DUP4 ADD MSTORE PUSH2 0x48F3 DUP2 DUP8 PUSH2 0x483B JUMP JUMPDEST SWAP1 POP PUSH2 0x4902 PUSH1 0xE0 DUP4 ADD DUP7 PUSH2 0x3DB8 JUMP JUMPDEST DUP2 DUP2 SUB PUSH2 0x100 DUP4 ADD MSTORE PUSH2 0x4915 DUP2 DUP6 PUSH2 0x483B JUMP JUMPDEST SWAP1 POP DUP2 DUP2 SUB PUSH2 0x120 DUP4 ADD MSTORE PUSH2 0x492A DUP2 DUP5 PUSH2 0x483B JUMP JUMPDEST SWAP1 POP SWAP13 SWAP12 POP POP POP POP POP POP POP POP POP POP POP POP JUMP JUMPDEST PUSH32 0x4E487B7100000000000000000000000000000000000000000000000000000000 PUSH1 0x0 MSTORE PUSH1 0x22 PUSH1 0x4 MSTORE PUSH1 0x24 PUSH1 0x0 REVERT JUMPDEST PUSH1 0x0 PUSH1 0x2 DUP3 DIV SWAP1 POP PUSH1 0x1 DUP3 AND DUP1 PUSH2 0x4983 JUMPI PUSH1 0x7F DUP3 AND SWAP2 POP JUMPDEST PUSH1 0x20 DUP3 LT DUP2 SUB PUSH2 0x4996 JUMPI PUSH2 0x4995 PUSH2 0x493C JUMP JUMPDEST JUMPDEST POP SWAP2 SWAP1 POP JUMP JUMPDEST PUSH32 0x57726F6E67206A61636B706F74206665652070657263656E746167652076616C PUSH1 0x0 DUP3 ADD MSTORE PUSH32 0x7565000000000000000000000000000000000000000000000000000000000000 PUSH1 0x20 DUP3 ADD MSTORE POP JUMP JUMPDEST PUSH1 0x0 PUSH2 0x49F8 PUSH1 0x22 DUP4 PUSH2 0x4165 JUMP JUMPDEST SWAP2 POP PUSH2 0x4A03 DUP3 PUSH2 0x499C JUMP JUMPDEST PUSH1 0x40 DUP3 ADD SWAP1 POP SWAP2 SWAP1 POP JUMP JUMPDEST PUSH1 0x0 PUSH1 0x20 DUP3 ADD SWAP1 POP DUP2 DUP2 SUB PUSH1 0x0 DUP4 ADD MSTORE PUSH2 0x4A27 DUP2 PUSH2 0x49EB JUMP JUMPDEST SWAP1 POP SWAP2 SWAP1 POP JUMP JUMPDEST PUSH32 0x4F6E6C792067616D6520636F6E74726F6C6C65722063616E20646F2074686973 PUSH1 0x0 DUP3 ADD MSTORE POP JUMP JUMPDEST PUSH1 0x0 PUSH2 0x4A64 PUSH1 0x20 DUP4 PUSH2 0x4165 JUMP JUMPDEST SWAP2 POP PUSH2 0x4A6F DUP3 PUSH2 0x4A2E JUMP JUMPDEST PUSH1 0x20 DUP3 ADD SWAP1 POP SWAP2 SWAP1 POP JUMP JUMPDEST PUSH1 0x0 PUSH1 0x20 DUP3 ADD SWAP1 POP DUP2 DUP2 SUB PUSH1 0x0 DUP4 ADD MSTORE PUSH2 0x4A93 DUP2 PUSH2 0x4A57 JUMP JUMPDEST SWAP1 POP SWAP2 SWAP1 POP JUMP JUMPDEST PUSH1 0x0 PUSH1 0xA0 DUP3 ADD SWAP1 POP DUP2 DUP2 SUB PUSH1 0x0 DUP4 ADD MSTORE PUSH2 0x4AB5 DUP2 DUP9 DUP11 PUSH2 0x480E JUMP JUMPDEST SWAP1 POP PUSH2 0x4AC4 PUSH1 0x20 DUP4 ADD DUP8 PUSH2 0x3A13 JUMP JUMPDEST PUSH2 0x4AD1 PUSH1 0x40 DUP4 ADD DUP7 PUSH2 0x3A13 JUMP JUMPDEST PUSH2 0x4ADE PUSH1 0x60 DUP4 ADD DUP6 PUSH2 0x3A13 JUMP JUMPDEST PUSH2 0x4AEB PUSH1 0x80 DUP4 ADD DUP5 PUSH2 0x3DB8 JUMP JUMPDEST SWAP8 SWAP7 POP POP POP POP POP POP POP JUMP JUMPDEST PUSH32 0x4E487B7100000000000000000000000000000000000000000000000000000000 PUSH1 0x0 MSTORE PUSH1 0x32 PUSH1 0x4 MSTORE PUSH1 0x24 PUSH1 0x0 REVERT JUMPDEST PUSH1 0x0 PUSH2 0x4B30 DUP3 PUSH2 0x363E JUMP JUMPDEST SWAP2 POP PUSH2 0x4B3B DUP4 PUSH2 0x363E JUMP JUMPDEST SWAP3 POP DUP3 DUP3 MUL PUSH2 0x4B49 DUP2 PUSH2 0x363E JUMP JUMPDEST SWAP2 POP DUP3 DUP3 DIV DUP5 EQ DUP4 ISZERO OR PUSH2 0x4B60 JUMPI PUSH2 0x4B5F PUSH2 0x4251 JUMP JUMPDEST JUMPDEST POP SWAP3 SWAP2 POP POP JUMP JUMPDEST PUSH32 0x4E487B7100000000000000000000000000000000000000000000000000000000 PUSH1 0x0 MSTORE PUSH1 0x12 PUSH1 0x4 MSTORE PUSH1 0x24 PUSH1 0x0 REVERT JUMPDEST PUSH1 0x0 PUSH2 0x4BA1 DUP3 PUSH2 0x363E JUMP JUMPDEST SWAP2 POP PUSH2 0x4BAC DUP4 PUSH2 0x363E JUMP JUMPDEST SWAP3 POP DUP3 PUSH2 0x4BBC JUMPI PUSH2 0x4BBB PUSH2 0x4B67 JUMP JUMPDEST JUMPDEST DUP3 DUP3 DIV SWAP1 POP SWAP3 SWAP2 POP POP JUMP JUMPDEST PUSH1 0x0 DUP2 SWAP1 POP DUP2 PUSH1 0x0 MSTORE PUSH1 0x20 PUSH1 0x0 KECCAK256 SWAP1 POP SWAP2 SWAP1 POP JUMP JUMPDEST PUSH1 0x0 DUP2 SLOAD PUSH2 0x4BE9 DUP2 PUSH2 0x496B JUMP JUMPDEST PUSH2 0x4BF3 DUP2 DUP7 PUSH2 0x4165 JUMP JUMPDEST SWAP5 POP PUSH1 0x1 DUP3 AND PUSH1 0x0 DUP2 EQ PUSH2 0x4C0E JUMPI PUSH1 0x1 DUP2 EQ PUSH2 0x4C24 JUMPI PUSH2 0x4C57 JUMP JUMPDEST PUSH1 0xFF NOT DUP4 AND DUP7 MSTORE DUP2 ISZERO ISZERO PUSH1 0x20 MUL DUP7 ADD SWAP4 POP PUSH2 0x4C57 JUMP JUMPDEST PUSH2 0x4C2D DUP6 PUSH2 0x4BC7 JUMP JUMPDEST PUSH1 0x0 JUMPDEST DUP4 DUP2 LT ISZERO PUSH2 0x4C4F JUMPI DUP2 SLOAD DUP2 DUP10 ADD MSTORE PUSH1 0x1 DUP3 ADD SWAP2 POP PUSH1 0x20 DUP2 ADD SWAP1 POP PUSH2 0x4C30 JUMP JUMPDEST DUP1 DUP9 ADD SWAP6 POP POP POP JUMPDEST POP POP POP SWAP3 SWAP2 POP POP JUMP JUMPDEST PUSH1 0x0 PUSH1 0xE0 DUP3 ADD SWAP1 POP DUP2 DUP2 SUB PUSH1 0x0 DUP4 ADD MSTORE PUSH2 0x4C7B DUP2 DUP11 DUP13 PUSH2 0x480E JUMP JUMPDEST SWAP1 POP PUSH2 0x4C8A PUSH1 0x20 DUP4 ADD DUP10 PUSH2 0x35D4 JUMP JUMPDEST PUSH2 0x4C97 PUSH1 0x40 DUP4 ADD DUP9 PUSH2 0x3A13 JUMP JUMPDEST PUSH2 0x4CA4 PUSH1 0x60 DUP4 ADD DUP8 PUSH2 0x3A13 JUMP JUMPDEST DUP2 DUP2 SUB PUSH1 0x80 DUP4 ADD MSTORE PUSH2 0x4CB6 DUP2 DUP7 PUSH2 0x4BDC JUMP JUMPDEST SWAP1 POP PUSH2 0x4CC5 PUSH1 0xA0 DUP4 ADD DUP6 PUSH2 0x3816 JUMP JUMPDEST PUSH2 0x4CD2 PUSH1 0xC0 DUP4 ADD DUP5 PUSH2 0x3816 JUMP JUMPDEST SWAP10 SWAP9 POP POP POP POP POP POP POP POP POP JUMP JUMPDEST PUSH32 0x5468652067616D65206973206E6F742072756E6E696E672C20726F756E647320 PUSH1 0x0 DUP3 ADD MSTORE PUSH32 0x63616E206F6E6C7920626520656E646564206174207468697320706F696E7400 PUSH1 0x20 DUP3 ADD MSTORE POP JUMP JUMPDEST PUSH1 0x0 PUSH2 0x4D3B PUSH1 0x3F DUP4 PUSH2 0x4165 JUMP JUMPDEST SWAP2 POP PUSH2 0x4D46 DUP3 PUSH2 0x4CDF JUMP JUMPDEST PUSH1 0x40 DUP3 ADD SWAP1 POP SWAP2 SWAP1 POP JUMP JUMPDEST PUSH1 0x0 PUSH1 0x20 DUP3 ADD SWAP1 POP DUP2 DUP2 SUB PUSH1 0x0 DUP4 ADD MSTORE PUSH2 0x4D6A DUP2 PUSH2 0x4D2E JUMP JUMPDEST SWAP1 POP SWAP2 SWAP1 POP JUMP JUMPDEST PUSH1 0x0 PUSH1 0xC0 DUP3 ADD SWAP1 POP DUP2 DUP2 SUB PUSH1 0x0 DUP4 ADD MSTORE PUSH2 0x4D8C DUP2 DUP10 DUP12 PUSH2 0x480E JUMP JUMPDEST SWAP1 POP PUSH2 0x4D9B PUSH1 0x20 DUP4 ADD DUP9 PUSH2 0x3DB8 JUMP JUMPDEST PUSH2 0x4DA8 PUSH1 0x40 DUP4 ADD DUP8 PUSH2 0x3A04 JUMP JUMPDEST PUSH2 0x4DB5 PUSH1 0x60 DUP4 ADD DUP7 PUSH2 0x3A13 JUMP JUMPDEST PUSH2 0x4DC2 PUSH1 0x80 DUP4 ADD DUP6 PUSH2 0x3A13 JUMP JUMPDEST PUSH2 0x4DCF PUSH1 0xA0 DUP4 ADD DUP5 PUSH2 0x3A13 JUMP JUMPDEST SWAP9 SWAP8 POP POP POP POP POP POP POP POP JUMP JUMPDEST PUSH1 0x0 PUSH1 0x80 DUP3 ADD SWAP1 POP DUP2 DUP2 SUB PUSH1 0x0 DUP4 ADD MSTORE PUSH2 0x4DF6 DUP2 DUP8 DUP10 PUSH2 0x480E JUMP JUMPDEST SWAP1 POP PUSH2 0x4E05 PUSH1 0x20 DUP4 ADD DUP7 PUSH2 0x3DB8 JUMP JUMPDEST PUSH2 0x4E12 PUSH1 0x40 DUP4 ADD DUP6 PUSH2 0x3A04 JUMP JUMPDEST PUSH2 0x4E1F PUSH1 0x60 DUP4 ADD DUP5 PUSH2 0x3A04 JUMP JUMPDEST SWAP7 SWAP6 POP POP POP POP POP POP JUMP JUMPDEST PUSH32 0x57726F6E672053657276696365206665652070657263656E746167652076616C PUSH1 0x0 DUP3 ADD MSTORE PUSH32 0x7565000000000000000000000000000000000000000000000000000000000000 PUSH1 0x20 DUP3 ADD MSTORE POP JUMP JUMPDEST PUSH1 0x0 PUSH2 0x4E85 PUSH1 0x22 DUP4 PUSH2 0x4165 JUMP JUMPDEST SWAP2 POP PUSH2 0x4E90 DUP3 PUSH2 0x4E29 JUMP JUMPDEST PUSH1 0x40 DUP3 ADD SWAP1 POP SWAP2 SWAP1 POP JUMP JUMPDEST PUSH1 0x0 PUSH1 0x20 DUP3 ADD SWAP1 POP DUP2 DUP2 SUB PUSH1 0x0 DUP4 ADD MSTORE PUSH2 0x4EB4 DUP2 PUSH2 0x4E78 JUMP JUMPDEST SWAP1 POP SWAP2 SWAP1 POP JUMP JUMPDEST PUSH32 0x57726F6E67206665652070657263656E746167652076616C7565000000000000 PUSH1 0x0 DUP3 ADD MSTORE POP JUMP JUMPDEST PUSH1 0x0 PUSH2 0x4EF1 PUSH1 0x1A DUP4 PUSH2 0x4165 JUMP JUMPDEST SWAP2 POP PUSH2 0x4EFC DUP3 PUSH2 0x4EBB JUMP JUMPDEST PUSH1 0x20 DUP3 ADD SWAP1 POP SWAP2 SWAP1 POP JUMP JUMPDEST PUSH1 0x0 PUSH1 0x20 DUP3 ADD SWAP1 POP DUP2 DUP2 SUB PUSH1 0x0 DUP4 ADD MSTORE PUSH2 0x4F20 DUP2 PUSH2 0x4EE4 JUMP JUMPDEST SWAP1 POP SWAP2 SWAP1 POP JUMP JUMPDEST PUSH1 0x0 DUP2 SWAP1 POP DUP2 PUSH1 0x0 MSTORE PUSH1 0x20 PUSH1 0x0 KECCAK256 SWAP1 POP SWAP2 SWAP1 POP JUMP JUMPDEST PUSH1 0x0 PUSH1 0x20 PUSH1 0x1F DUP4 ADD DIV SWAP1 POP SWAP2 SWAP1 POP JUMP JUMPDEST PUSH1 0x0 DUP3 DUP3 SHL SWAP1 POP SWAP3 SWAP2 POP POP JUMP JUMPDEST PUSH1 0x0 PUSH1 0x8 DUP4 MUL PUSH2 0x4F89 PUSH32 0xFFFFFFFFFFFFFFFFFFFFFFFFFFFFFFFFFFFFFFFFFFFFFFFFFFFFFFFFFFFFFFFF DUP3 PUSH2 0x4F4C JUMP JUMPDEST PUSH2 0x4F93 DUP7 DUP4 PUSH2 0x4F4C JUMP JUMPDEST SWAP6 POP DUP1 NOT DUP5 AND SWAP4 POP DUP1 DUP7 AND DUP5 OR SWAP3 POP POP POP SWAP4 SWAP3 POP POP POP JUMP JUMPDEST PUSH1 0x0 DUP2 SWAP1 POP SWAP2 SWAP1 POP JUMP JUMPDEST PUSH1 0x0 PUSH2 0x4FD0 PUSH2 0x4FCB PUSH2 0x4FC6 DUP5 PUSH2 0x363E JUMP JUMPDEST PUSH2 0x4FAB JUMP JUMPDEST PUSH2 0x363E JUMP JUMPDEST SWAP1 POP SWAP2 SWAP1 POP JUMP JUMPDEST PUSH1 0x0 DUP2 SWAP1 POP SWAP2 SWAP1 POP JUMP JUMPDEST PUSH2 0x4FEA DUP4 PUSH2 0x4FB5 JUMP JUMPDEST PUSH2 0x4FFE PUSH2 0x4FF6 DUP3 PUSH2 0x4FD7 JUMP JUMPDEST DUP5 DUP5 SLOAD PUSH2 0x4F59 JUMP JUMPDEST DUP3 SSTORE POP POP POP POP JUMP JUMPDEST PUSH1 0x0 SWAP1 JUMP JUMPDEST PUSH2 0x5013 PUSH2 0x5006 JUMP JUMPDEST PUSH2 0x501E DUP2 DUP5 DUP5 PUSH2 0x4FE1 JUMP JUMPDEST POP POP POP JUMP JUMPDEST JUMPDEST DUP2 DUP2 LT ISZERO PUSH2 0x5042 JUMPI PUSH2 0x5037 PUSH1 0x0 DUP3 PUSH2 0x500B JUMP JUMPDEST PUSH1 0x1 DUP2 ADD SWAP1 POP PUSH2 0x5024 JUMP JUMPDEST POP POP JUMP JUMPDEST PUSH1 0x1F DUP3 GT ISZERO PUSH2 0x5087 JUMPI PUSH2 0x5058 DUP2 PUSH2 0x4F27 JUMP JUMPDEST PUSH2 0x5061 DUP5 PUSH2 0x4F3C JUMP JUMPDEST DUP2 ADD PUSH1 0x20 DUP6 LT ISZERO PUSH2 0x5070 JUMPI DUP2 SWAP1 POP JUMPDEST PUSH2 0x5084 PUSH2 0x507C DUP6 PUSH2 0x4F3C JUMP JUMPDEST DUP4 ADD DUP3 PUSH2 0x5023 JUMP JUMPDEST POP POP JUMPDEST POP POP POP JUMP JUMPDEST PUSH1 0x0 DUP3 DUP3 SHR SWAP1 POP SWAP3 SWAP2 POP POP JUMP JUMPDEST PUSH1 0x0 PUSH2 0x50AA PUSH1 0x0 NOT DUP5 PUSH1 0x8 MUL PUSH2 0x508C JUMP JUMPDEST NOT DUP1 DUP4 AND SWAP2 POP POP SWAP3 SWAP2 POP POP JUMP JUMPDEST PUSH1 0x0 PUSH2 0x50C3 DUP4 DUP4 PUSH2 0x5099 JUMP JUMPDEST SWAP2 POP DUP3 PUSH1 0x2 MUL DUP3 OR SWAP1 POP SWAP3 SWAP2 POP POP JUMP JUMPDEST PUSH2 0x50DC DUP3 PUSH2 0x3BCA JUMP JUMPDEST PUSH8 0xFFFFFFFFFFFFFFFF DUP2 GT ISZERO PUSH2 0x50F5 JUMPI PUSH2 0x50F4 PUSH2 0x3883 JUMP JUMPDEST JUMPDEST PUSH2 0x50FF DUP3 SLOAD PUSH2 0x496B JUMP JUMPDEST PUSH2 0x510A DUP3 DUP3 DUP6 PUSH2 0x5046 JUMP JUMPDEST PUSH1 0x0 PUSH1 0x20 SWAP1 POP PUSH1 0x1F DUP4 GT PUSH1 0x1 DUP2 EQ PUSH2 0x513D JUMPI PUSH1 0x0 DUP5 ISZERO PUSH2 0x512B JUMPI DUP3 DUP8 ADD MLOAD SWAP1 POP JUMPDEST PUSH2 0x5135 DUP6 DUP3 PUSH2 0x50B7 JUMP JUMPDEST DUP7 SSTORE POP PUSH2 0x519D JUMP JUMPDEST PUSH1 0x1F NOT DUP5 AND PUSH2 0x514B DUP7 PUSH2 0x4F27 JUMP JUMPDEST PUSH1 0x0 JUMPDEST DUP3 DUP2 LT ISZERO PUSH2 0x5173 JUMPI DUP5 DUP10 ADD MLOAD DUP3 SSTORE PUSH1 0x1 DUP3 ADD SWAP2 POP PUSH1 0x20 DUP6 ADD SWAP5 POP PUSH1 0x20 DUP2 ADD SWAP1 POP PUSH2 0x514E JUMP JUMPDEST DUP7 DUP4 LT ISZERO PUSH2 0x5190 JUMPI DUP5 DUP10 ADD MLOAD PUSH2 0x518C PUSH1 0x1F DUP10 AND DUP3 PUSH2 0x5099 JUMP JUMPDEST DUP4 SSTORE POP JUMPDEST PUSH1 0x1 PUSH1 0x2 DUP9 MUL ADD DUP9 SSTORE POP POP POP JUMPDEST POP POP POP POP POP POP JUMP JUMPDEST PUSH1 0x0 DUP3 SWAP1 POP SWAP3 SWAP2 POP POP JUMP JUMPDEST PUSH2 0x51BA DUP4 DUP4 PUSH2 0x51A5 JUMP JUMPDEST PUSH8 0xFFFFFFFFFFFFFFFF DUP2 GT ISZERO PUSH2 0x51D3 JUMPI PUSH2 0x51D2 PUSH2 0x3883 JUMP JUMPDEST JUMPDEST PUSH2 0x51DD DUP3 SLOAD PUSH2 0x496B JUMP JUMPDEST PUSH2 0x51E8 DUP3 DUP3 DUP6 PUSH2 0x5046 JUMP JUMPDEST PUSH1 0x0 PUSH1 0x1F DUP4 GT PUSH1 0x1 DUP2 EQ PUSH2 0x5217 JUMPI PUSH1 0x0 DUP5 ISZERO PUSH2 0x5205 JUMPI DUP3 DUP8 ADD CALLDATALOAD SWAP1 POP JUMPDEST PUSH2 0x520F DUP6 DUP3 PUSH2 0x50B7 JUMP JUMPDEST DUP7 SSTORE POP PUSH2 0x5277 JUMP JUMPDEST PUSH1 0x1F NOT DUP5 AND PUSH2 0x5225 DUP7 PUSH2 0x4F27 JUMP JUMPDEST PUSH1 0x0 JUMPDEST DUP3 DUP2 LT ISZERO PUSH2 0x524D JUMPI DUP5 DUP10 ADD CALLDATALOAD DUP3 SSTORE PUSH1 0x1 DUP3 ADD SWAP2 POP PUSH1 0x20 DUP6 ADD SWAP5 POP PUSH1 0x20 DUP2 ADD SWAP1 POP PUSH2 0x5228 JUMP JUMPDEST DUP7 DUP4 LT ISZERO PUSH2 0x526A JUMPI DUP5 DUP10 ADD CALLDATALOAD PUSH2 0x5266 PUSH1 0x1F DUP10 AND DUP3 PUSH2 0x5099 JUMP JUMPDEST DUP4 SSTORE POP JUMPDEST PUSH1 0x1 PUSH1 0x2 DUP9 MUL ADD DUP9 SSTORE POP POP POP JUMPDEST POP POP POP POP POP POP POP JUMP JUMPDEST PUSH1 0x0 PUSH1 0x20 DUP3 ADD SWAP1 POP DUP2 DUP2 SUB PUSH1 0x0 DUP4 ADD MSTORE PUSH2 0x529B DUP2 DUP5 DUP7 PUSH2 0x480E JUMP JUMPDEST SWAP1 POP SWAP4 SWAP3 POP POP POP JUMP JUMPDEST POP JUMP JUMPDEST PUSH1 0x0 PUSH2 0x52B4 PUSH1 0x0 DUP4 PUSH2 0x4208 JUMP JUMPDEST SWAP2 POP PUSH2 0x52BF DUP3 PUSH2 0x52A4 JUMP JUMPDEST PUSH1 0x0 DUP3 ADD SWAP1 POP SWAP2 SWAP1 POP JUMP JUMPDEST PUSH1 0x0 PUSH2 0x52D5 DUP3 PUSH2 0x52A7 JUMP JUMPDEST SWAP2 POP DUP2 SWAP1 POP SWAP2 SWAP1 POP JUMP JUMPDEST PUSH32 0x436F756C646E27742073656E6420657468657200000000000000000000000000 PUSH1 0x0 DUP3 ADD MSTORE POP JUMP JUMPDEST PUSH1 0x0 PUSH2 0x5315 PUSH1 0x13 DUP4 PUSH2 0x4165 JUMP JUMPDEST SWAP2 POP PUSH2 0x5320 DUP3 PUSH2 0x52DF JUMP JUMPDEST PUSH1 0x20 DUP3 ADD SWAP1 POP SWAP2 SWAP1 POP JUMP JUMPDEST PUSH1 0x0 PUSH1 0x20 DUP3 ADD SWAP1 POP DUP2 DUP2 SUB PUSH1 0x0 DUP4 ADD MSTORE PUSH2 0x5344 DUP2 PUSH2 0x5308 JUMP JUMPDEST SWAP1 POP SWAP2 SWAP1 POP JUMP JUMPDEST PUSH1 0x0 DUP3 SWAP1 POP SWAP3 SWAP2 POP POP JUMP JUMPDEST PUSH1 0x1F DUP3 GT ISZERO PUSH2 0x5397 JUMPI PUSH2 0x5368 DUP2 PUSH2 0x4BC7 JUMP JUMPDEST PUSH2 0x5371 DUP5 PUSH2 0x4F3C JUMP JUMPDEST DUP2 ADD PUSH1 0x20 DUP6 LT ISZERO PUSH2 0x5380 JUMPI DUP2 SWAP1 POP JUMPDEST PUSH2 0x5394 PUSH2 0x538C DUP6 PUSH2 0x4F3C JUMP JUMPDEST DUP4 ADD DUP3 PUSH2 0x5023 JUMP JUMPDEST POP POP JUMPDEST POP POP POP JUMP JUMPDEST PUSH2 0x53A6 DUP4 DUP4 PUSH2 0x534B JUMP JUMPDEST PUSH8 0xFFFFFFFFFFFFFFFF DUP2 GT ISZERO PUSH2 0x53BF JUMPI PUSH2 0x53BE PUSH2 0x3883 JUMP JUMPDEST JUMPDEST PUSH2 0x53C9 DUP3 SLOAD PUSH2 0x496B JUMP JUMPDEST PUSH2 0x53D4 DUP3 DUP3 DUP6 PUSH2 0x5356 JUMP JUMPDEST PUSH1 0x0 PUSH1 0x1F DUP4 GT PUSH1 0x1 DUP2 EQ PUSH2 0x5403 JUMPI PUSH1 0x0 DUP5 ISZERO PUSH2 0x53F1 JUMPI DUP3 DUP8 ADD CALLDATALOAD SWAP1 POP JUMPDEST PUSH2 0x53FB DUP6 DUP3 PUSH2 0x50B7 JUMP JUMPDEST DUP7 SSTORE POP PUSH2 0x5463 JUMP JUMPDEST PUSH1 0x1F NOT DUP5 AND PUSH2 0x5411 DUP7 PUSH2 0x4BC7 JUMP JUMPDEST PUSH1 0x0 JUMPDEST DUP3 DUP2 LT ISZERO PUSH2 0x5439 JUMPI DUP5 DUP10 ADD CALLDATALOAD DUP3 SSTORE PUSH1 0x1 DUP3 ADD SWAP2 POP PUSH1 0x20 DUP6 ADD SWAP5 POP PUSH1 0x20 DUP2 ADD SWAP1 POP PUSH2 0x5414 JUMP JUMPDEST DUP7 DUP4 LT ISZERO PUSH2 0x5456 JUMPI DUP5 DUP10 ADD CALLDATALOAD PUSH2 0x5452 PUSH1 0x1F DUP10 AND DUP3 PUSH2 0x5099 JUMP JUMPDEST DUP4 SSTORE POP JUMPDEST PUSH1 0x1 PUSH1 0x2 DUP9 MUL ADD DUP9 SSTORE POP POP POP JUMPDEST POP POP POP POP POP POP POP JUMP JUMPDEST PUSH1 0x0 PUSH1 0x80 DUP3 ADD SWAP1 POP DUP2 DUP2 SUB PUSH1 0x0 DUP4 ADD MSTORE PUSH2 0x5487 DUP2 DUP8 DUP10 PUSH2 0x480E JUMP JUMPDEST SWAP1 POP PUSH2 0x5496 PUSH1 0x20 DUP4 ADD DUP7 PUSH2 0x35D4 JUMP JUMPDEST PUSH2 0x54A3 PUSH1 0x40 DUP4 ADD DUP6 PUSH2 0x3A13 JUMP JUMPDEST DUP2 DUP2 SUB PUSH1 0x60 DUP4 ADD MSTORE PUSH2 0x54B5 DUP2 DUP5 PUSH2 0x4BDC JUMP JUMPDEST SWAP1 POP SWAP7 SWAP6 POP POP POP POP POP POP JUMP INVALID LOG2 PUSH5 0x6970667358 0x22 SLT KECCAK256 0x23 SWAP11 0xA6 0xC0 0xDA 0xC1 0xF9 0xC7 DUP5 0xBE EXTCODECOPY SWAP12 0xD3 0xE2 PUSH21 0xCFB7A920AF3DF22B4D2C19986C77010ECE64736F6C PUSH4 0x43000818 STOP CALLER "},"methodIdentifiers":{"changeGameControllerAddress15(address)":"d5ac395a","changeGameControllerAddress30(address)":"f901b0c3","changeGameFeeAddress(address)":"595dc897","changeGameFeeJackpotAddress(address)":"1c2db192","changeGameFeeJackpotPercentage(uint8)":"900b7b3f","changeGameFeePercentage(uint8)":"d4c770cf","changeGameServiceFeeAddress(address)":"41581768","changeGameServicePercentage(uint8)":"afad745a","createPool(bytes,uint256,uint256,uint256)":"e4709969","distribute(bytes,uint32,int64)":"a7c3324d","feeAddress()":"41275358","feeJackpotAddress()":"3b9fe1ee","feeJackpotPercentage()":"159dc634","feePercentage()":"a001ecdd","gameController15()":"b91429a8","gameController30()":"04c15b58","getContractBalance()":"6f9fb98a","hasPendingDistributions(bytes)":"0c2f915e","isPoolOpen(bytes)":"30efabd4","isRunning()":"2014e5d1","makeTrade((bytes,string,string,bool,string,string))":"0d62d031","notRunningReason()":"6518a0a9","owner()":"8da5cb5b","pools(bytes)":"3fafac92","renounceOwnership()":"715018a6","serviceFeeAddress()":"ae38a8b9","serviceFeePercentage()":"603ef649","startGame()":"d65ab5f2","stopGame(bytes)":"eab79b7d","transferEther(address,uint256)":"05b1137b","transferOwnership(address)":"f2fde38b","trigger(bytes,int64,int32,uint32)":"a9b99af5"}}}}}